:020000040800F2
:1000000000000220A9C4010805C5010811C50108A6
:1000100019C5010821C5010829C501080000000013
:100020000000000000000000000000001988010826
:1000300031C5010800000000B58801080D890108DC
:1000400001C5010801C5010801C5010801C5010874
:1000500001C5010801C5010859C501083DC50108D0
:1000600001C5010801C5010801C50108E1570108E2
:1000700001C5010801C5010801C5010801C5010844
:1000800001C5010801C5010801C5010801C5010834
:1000900001C5010801C5010801C5010801C5010824
:1000A00001C5010801C5010801C5010801C5010814
:1000B00001C5010801C5010801C5010801C5010804
:1000C00001C5010801C5010801C5010801C50108F4
:1000D00001C5010801C5010801C5010801C50108E4
:1000E00001C5010801C5010801C5010801C50108D4
:1000F00001C5010801C5010801C50108D55701085E
:1001000001C5010801C5010801C50108ED57010835
:1001100001C5010801C5010801C5010801C50108A3
:1001200001C5010801C5010801C5010801C5010893
:1001300001C5010801C5010801C5010801C5010883
:1001400001C5010801C5010801C5010871C5010803
:1001500001C5010801C5010801C5010801C5010863
:1001600001C5010801C5010801C5010801C5010853
:1001700001C5010801C5010801C5010801C5010843
:0801800001C5010801C50108D9
:1001880010B5054C237833B9044B13B10448AFF3C9
:1001980000800123237010BDA0090020000000008A
:1001A800342D020808B5064B1BB106480649AFF3C3
:1001B80000800648036813B1054B03B1984708BD92
:1001C80000000000342D0208A4090020A009002026
:1001D8000000000080B485B000AFF860B9607A60B4
:1001E800FB68002B05D0BB68002B02D07B68002B76
:1001F80002D14FF000030BE0FB684FF000021A70C9
:10020800FB68BA685A60FB687A689A604FF0010325
:10021800184607F11407BD4680BC704780B485B006
:1002280000AFF860B9607A60FB68002B05D0BB6846
:10023800002B02DB7B68002B02D14FF000030BE0A0
:10024800FB684FF02D021A70FB68BA685A60FB68A9
:100258007A689A604FF00103184607F11407BD4603
:1002680080BC704780B485B000AFF8600B467A60F8
:10027800FB72FB68002B08D07B68002B05D0FB7A4B
:10028800002B02D0FB7A032B02D94FF000030BE0BE
:10029800FB684FF007021A70FB68FA7A1A71FB685C
:1002A8007A689A604FF00103184607F11407BD46B3
:1002B80080BC704780B485B000AFF8600B467A60A8
:1002C800FB72FB68002B08D07B68002B05D0FB7AFB
:1002D800002B02D0FB7A032B02D94FF000030BE06E
:1002E800FB684FF008021A70FB68FA7A1A71FB680B
:1002F8007A689A604FF00103184607F11407BD4663
:1003080080BC704780B485B000AF78607B685A695C
:100318007B689B699A4202DB4FF0000313E07B681D
:1003280019697B685B691A4613464FEA43039B18B1
:100338004FEA8303CB18FB607B685B6903F101021A
:100348007B685A61FB68184607F11407BD4680BCF4
:10035800704700BF80B586B000AFF8607A603B6038
:100368000B46FB72FB7A03F1FF33412B00F29D80B1
:1003780001A252F823F000BF89040008890400088C
:100388008904000889040008B3040008B3040008BD
:10039800B3040008B30400089B0400089B04000889
:1003A800890400089B0400089B0400089B040008BB
:1003B8009B0400089B0400089B0400089B04000899
:1003C8009B0400089B0400089B040008B304000871
:1003D800B9040008B9040008B9040008B904000801
:1003E800B9040008B9040008890400089B0400083F
:1003F8009B0400089B0400089B0400089B04000859
:10040800B30400089B040008B9040008A704000806
:1004180089040008B304000889040008B904000826
:10042800B9040008B3040008B30400089B040008DA
:100438008904000889040008890400088904000860
:100448008904000889040008890400088904000850
:100458009B04000889040008B3040008B3040008DA
:100468009B0400089B0400089B040008B3040008D0
:10047800B3040008B30400089B04000889040008BA
:100488007B68002B02D03B68002B13D14FF0000390
:1004980027E07B68002B0FD14FF0000321E03B6879
:1004A800002B0BD14FF000031BE04FF0000318E0C6
:1004B80000BF04E000BF02E000BF00E000BFF86832
:1004C800FFF720FF03467B617B69002B08D07B691F
:1004D800FA7A1A707B697A685A607B693A689A6016
:1004E8007B69184607F11807BD4680BD80B582B004
:1004F80000AF786039607B68DB681B785F2B06D1BA
:100508007B68DB6803F101031B785A2B0AD0386833
:1005180007F03CFE0346786839681A4600F014F87C
:1005280003460BE07B68DB6803F102027B68DA6054
:1005380078684FF0000100F04DFA0346184607F1BD
:100548000807BD4680BD00BF80B586B000AFF86023
:10055800B9607A60F868FFF7D5FE03467B61786971
:10056800B9687A68FFF736FE0346002B02D14FF0D0
:10057800000300E07B69184607F11807BD4680BDF7
:1005880080B584B000AF786039603B68002B02D139
:100598004FF000030FE07868FFF7B4FE0346FB60F6
:1005A800FB68002B06D0FB684FF023021A70FB682B
:1005B8003A685A60FB68184607F11007BD4680BDC7
:1005C80080B584B000AF786039607868FFF79AFE2C
:1005D8000346FB60FB68002B06D0FB684FF02C023B
:1005E8001A70FB683A685A60FB68184607F11007EA
:1005F800BD4680BD80B586B000AFF860B9607A604E
:10060800F868FFF77FFE03467B617869B9687A6806
:10061800FFF704FE0346002B02D14FF0000300E071
:100628007B69184607F11807BD4680BD80B586B0BE
:1006380000AFF860B9607A60F868FFF763FE0346B8
:100648007B617B69002B09D07B694FF03F021A70F0
:100658007B69BA689A607B697A685A607B691846D0
:1006680007F11807BD4680BD80B586B000AFF860B9
:100678000B467A60FB72F868FFF744FE03467B611D
:10068800FB7A786919467A68FFF7ECFD0346002B78
:1006980002D14FF0000300E07B69184607F1180704
:1006A800BD4680BD80B586B000AFF8600B467A6065
:1006B800FB72F868FFF726FE03467B61FB7A7869D0
:1006C80019467A68FFF7F6FD0346002B02D14FF072
:1006D800000300E07B69184607F11807BD4680BD96
:1006E80080B584B000AF786039607868FFF70AFE9B
:1006F8000346FB60FB68002B06D0FB684FF0050241
:100708001A70FB683A685A60FB68184607F11007C8
:10071800BD4680BD80B584B000AF78603960786828
:10072800FFF7F0FD0346FB60FB68002B06D0FB6873
:100738004FF006021A70FB683A685A60FB68184660
:1007480007F11007BD4680BD80B586B000AFF860E0
:10075800B9607A60F868FFF7D5FD03467B617B696D
:10076800002B09D07B694FF016021A707B69BA68B2
:100778005A607B697A689A607B69184607F118079E
:10078800BD4680BD80B584B000AF786039607B68B5
:10079800DB681B785F2B08D17B68DB6803F10102FB
:1007A8007B68DA604FF0000301E04FF00103002B93
:1007B80005D03B68002B02D04FF0000354E07B6863
:1007C800DB681B785A2B08D17B68DB6803F10102D0
:1007D8007B68DA604FF0000301E04FF00103002B63
:1007E80002D04FF000033FE07868396800F0F2F873
:1007F8000346FB603B68002B35D07B689B6803F0A1
:100808000103DBB2002B2ED005E07868F96802F00E
:10081800BBFC0346FB607B68DB681B782E2B22D170
:100828007B68DB6803F101031B78602B06D97B68C2
:10083800DB6803F101031B787A2BE6D97B68DB6858
:1008480003F101031B785F2BDFD07B68DB6803F1C2
:1008580001031B782F2B06D97B68DB6803F10103A2
:100868001B78392BD1D9FB68184607F11007BD460C
:1008780080BD00BF80B582B000AF78607B68002B78
:1008880002D14FF000031DE07B681B78042B08D0D1
:10089800042B03DBA3F11A03022B0DD94FF000033D
:1008A80010E07B685B68184600F012F80346002BDE
:1008B80014BF0023012305E07B685B681846FFF737
:1008C800D9FF0346184607F10807BD4680BD00BF9B
:1008D80080B582B000AF78607B68002B02D14FF002
:1008E800000371E07B681B7803F1FF332D2B5FD881
:1008F80001A252F823F000BFBF090008BF09000891
:10090800B9090008B9090008B9090008B9090008B7
:10091800CD090008CD090008B9090008B90900087F
:10092800B9090008B9090008B9090008B909000897
:10093800B9090008B9090008B9090008B909000887
:10094800B9090008B9090008B9090008B909000877
:10095800B9090008B9090008B9090008B909000867
:10096800B9090008B9090008B9090008B909000857
:10097800B9090008B9090008B9090008B909000847
:10098800B9090008B9090008B9090008B909000837
:10099800B9090008B9090008B9090008B909000827
:1009A800B9090008B9090008B9090008CD09000803
:1009B8004FF0000308E07B689B681846FFF788FF44
:1009C800034601E04FF00103184607F10807BD464A
:1009D80080BD00BF80B586B000AF786039607B68A5
:1009E800DB681B78FB73FB7B472B02D0FB7B542B0C
:1009F80004D1786800F01CFD03465BE0786800F0DD
:100A08005FF803467B617B69002B34D03B68002B81
:100A180031D07B689B6803F00103002B2BD102E0E7
:100A28007B695B687B617B691B781A2BF8D07B69D3
:100A38001B781B2BF4D07B691B781C2BF0D07B69AF
:100A48001B78022B15D17B699B683B6102E03B69EF
:100A58005B683B613B691B781A2BF8D03B691B78B4
:100A68001B2BF4D03B691B781C2BF0D07B693A69AF
:100A78009A607B691EE07B68DB681B78FB737B6987
:100A8800002B05D0FB7B002B02D0FB7B452B01D133
:100A98007B690FE07869FFF7EDFE03467868194631
:100AA80001F07EFC034678684FF003017A69FFF78E
:100AB80051FC0346184607F11807BD4680BD00BF24
:100AC80090B587B000AF78607B68DB681B78FB73F4
:100AD800FB7BA3F14C030E2B00F2888001A252F895
:100AE80023F000BF3D0B0008F50B0008290B000898
:100AF800F50B0008F50B0008F50B0008F50B0008CE
:100B0800470B0008F50B00083D0B0008F50B000823
:100B1800F50B0008F50B0008F50B0008330B00086F
:100B2800786800F089F8034681E0786802F090F967
:100B380003467CE0786800F06BF9034677E07B6851
:100B4800DB6803F101031B78742B0AD078684FF037
:100B5800000102F0BDFB03467B614FF001033B61DE
:100B680024E07B68DB6803F102027B68DA6078685E
:100B78004EF2EC11C0F601014FF00302FFF7E4FC5E
:100B88000446786800F044F9034678684FF001019C
:100B98002246FFF7DFFB03467B617B681B6B03F193
:100BA80003027B681A634FF000033B617B68DB68D4
:100BB8001B78492B18D13B69002B09D178687969D2
:100BC80002F05AFB0346002B02D14FF000032EE03F
:100BD800786801F0C3FD034678684FF004017A692C
:100BE800FFF7B8FB03467B617B6920E0786800F07B
:100BF8000FF903467B617B68DB681B78492B15D1AD
:100C08007868796902F038FB0346002B02D14FF06F
:100C180000030CE0786801F0A1FD034678684FF006
:100C280004017A69FFF796FB03467B617B691846E6
:100C380007F11C07BD4690BD80B584B000AF786051
:100C48007B68DB681B784E2B08D17B68DB6803F177
:100C580001027B68DA604FF0000301E04FF0010306
:100C6800002B02D04FF0000332E007F10803786848
:100C780019464FF0010201F077FA0346FB60FB6862
:100C8800002B02D14FF0000322E0786800F026F82C
:100C98000246FB681A60FB681B68002B02D14FF004
:100CA800000315E07B68DB681B78452B08D17B685F
:100CB800DB6803F101027B68DA604FF0000301E0B2
:100CC8004FF00103002B02D04FF0000300E0BB6897
:100CD800184607F11007BD4680BD00BF80B586B035
:100CE80000AF78604FF000037B6100E000BF7B68D5
:100CF800DB681B78FB72FB7A002B02D14FF00003F4
:100D080081E04FF00103FB74FB7A2F2B02D9FB7AA9
:100D1800392B11D9FB7A602B02D9FB7A7A2B0BD9A4
:100D2800FB7A432B08D0FB7A442B05D0FB7A552B52
:100D380002D0FB7A4C2B05D1786800F069F803469D
:100D4800FB603EE0FB7A532B07D178684FF0010136
:100D580002F0BEFA0346FB6033E0FB7A492B0ED162
:100D68007B69002B02D14FF000034CE04FF00403E5
:100D7800FB74786801F0F2FC0346FB6021E0FB7A23
:100D8800542B05D1786801F0B5FC0346FB6018E0E8
:100D9800FB7A452B01D17B6935E0FB7A4D2B0DD1D0
:100DA8007B69002B02D14FF000032CE07B68DB68E5
:100DB80003F101027B68DA6000BF97E74FF0000398
:100DC80021E07B69002B02D1FB687B6108E0FB7C9A
:100DD800786819467A69FB68FFF7BCFA03467B61B5
:100DE800FB7A532B82D07B68DB681B78452B3FF45A
:100DF8007DAF7868796902F03FFA0346002B7FF4EB
:100E080075AF4FF00003184607F11807BD4680BDBF
:100E180080B586B000AF78607B68DB681B78FB75AF
:100E2800FB7D2F2B07D9FB7D392B04D8786800F080
:100E38006DF8034665E0FB7D602B1CD9FB7D7A2BA2
:100E480019D8786800F056F903463B613B69002BD6
:100E58000FD03B691B782C2B0BD17B681B6B1A4678
:100E68003B695B689B68D31803F107031A467B68E4
:100E78001A633B6945E0FB7D432B02D0FB7D442B85
:100E880004D1786800F02EFD03463AE0FB7D4C2B38
:100E98001BD17B68DB6803F101027B68DA60786844
:100EA80000F034F80346FB60FB68002B02D14FF0DA
:100EB800000326E0786802F06FF80346002B02D1A1
:100EC8004FF000031DE0FB681BE0FB7D552B16D19E
:100ED8007B68DB6803F101031B786C2B02D0742B51
:100EE80005D009E0786802F07BF8034609E07868E5
:100EF80002F0F2F8034604E04FF0000301E04FF07F
:100F08000003184607F11807BD4680BD80B584B0B8
:100F180000AF7860786800F017F80346FB60FB685C
:100F2800002B02DC4FF0000309E07868F96800F054
:100F380071F80346BB607B68BA68DA62BB6818461A
:100F480007F11007BD4680BD80B487B000AF786058
:100F58004FF000037B617B68DB681B78FB74FB7CCC
:100F68006E2B0CD14FF001037B617B68DB6803F1CA
:100F780001027B68DA607B68DB681B78FB744FF0E2
:100F88000003FB60FB7C2F2B02D9FB7C392B0DD98E
:100F98007B69002B03D0FB68C3F10003FB60FB688F
:100FA800184607F11C07BD4680BC7047FA6813460F
:100FB8004FEA83039B184FEA43031A46FB7CD31876
:100FC800A3F13003FB607B68DB6803F101027B68F7
:100FD800DA607B68DB681B78FB74D3E780B584B084
:100FE80000AF78607868FFF78DF90346FB60FB680F
:100FF800002B09D0FB684FF03A021A707868FFF7A7
:10100800A3FF0246FB685A60FB68184607F1100701
:10101800BD4680BD80B584B000AF786039607B681C
:10102800DB68FB607B685B681A46FB68D21A3B6822
:101038009A4202DA4FF0000356E07B68DA683B68B0
:10104800D2187B68DA607B689B6803F00403002B86
:101058000AD07B68DB681B78242B05D17B68DB68AA
:1010680003F101027B68DA603B68092B36DDF8681A
:101078004EF2F011C0F601014FF0080206F0AEFA88
:101088000346002B2AD1FB6803F10803BB60BB6849
:101098001B782E2B07D0BB681B785F2B03D0BB684F
:1010A8001B78242B1AD1BB6803F101031B784E2B44
:1010B80014D17B681B6B1A463B68D31A03F11603DD
:1010C8001A467B681A6378684EF2FC11C0F6010173
:1010D8004FF01502FFF738FA034605E07868F9681B
:1010E8003A68FFF731FA0346184607F11007BD467C
:1010F80080BD00BF90B589B000AF78607B68DB68C1
:101108001B78002B07D07B68DA68137802F101019D
:101118007A68D16001E04FF00003FB757B68DB68FB
:101128001B78002B07D07B68DA68137802F101017D
:101138007A68D16001E04FF00003BB75FB7D762B28
:1011480013D1BB7D2F2B10D9BB7D392B0DD8BB7D7F
:10115800A3F130047868FFF7D9FE03467868214682
:101168001A46FFF747FA034665E0FB7D632B10D16B
:10117800BB7D762B0DD1786800F03AFC0346786881
:101188004FF02E011A464FF00003FFF7E3F803462D
:1011980051E04FF00003FB614FF03403BB6100E006
:1011A80000BFBA69FB69D31A4FEAD372D3184FEA62
:1011B80063031A46FB69D3183B613B694FEA031284
:1011C8004EF2B833C0F60103D318FB60FB681B6806
:1011D8001B78FA7D9A420DD1FB681B6803F1010365
:1011E8001B78BA7D9A4205D17868F968FFF7E8F963
:1011F800034620E0FB681B681B78FA7D9A420DD3F2
:10120800FB681B681B78FA7D9A420AD1FB681B6849
:1012180003F101031B78BA7D9A4202D23B69BB6194
:1012280003E03B6903F10103FB61FA69BB699A4278
:10123800B6D14FF00003184607F12407BD4690BD0C
:1012480080B584B000AF786039607868FFF75AF8E5
:101258000346FB60FB68002B06D0FB684FF03902A1
:101268001A70FB683A685A60FB68184607F110075D
:10127800BD4680BD80B588B000AF78604FF00003F0
:10128800FB614FF00003BB617868FFF75DFE034622
:101298007B617B69012B02DC4FF00003C2E07B68B5
:1012A800DB681B78002B0DD07B68DB681A785F2A17
:1012B8000CBF00220122D2B203F101017B68D96080
:1012C800002A02D04FF00003ACE07B6903F1FF3342
:1012D8007B617B68DB68BB604FF000033B6192E099
:1012E8003B69BA68D3181B78FB73FB7B002B02D1D0
:1012F8004FF0000396E0FB7B242B42D13B6903F1BE
:1013080001033B613B69BA68D3181B783A6902F15B
:1013180001023A61532B04D05F2B06D0242B08D04E
:101328000BE04FF02F03FB730AE04FF02E03FB7323
:1013380006E04FF02403FB7302E04FF0000371E076
:10134800FB7B78681946FFF77BFF0346BB617B6828
:10135800DA683B69D2187B68DA607B68DB68BB6057
:101368007A693B69D31A7B614FF000033B61BB6923
:10137800002B33D14FF0000354E03B6903F1010324
:101388003B613A697B699A420BDA3B69BA68D318C0
:101398001B78002B05D03B69BA68D3181B78242B1F
:1013A800EBD17868B9683A69FFF7CEF80346BB61B4
:1013B8007B68DA683B69D2187B68DA607B68DB682F
:1013C800BB607A693B69D31A7B614FF000033B61CC
:1013D800BB69002B02D14FF0000323E0FB69002B0F
:1013E80002D1BB69FB610EE078684FF03801FA69F9
:1013F800BB69FEF7AFFF0346FB61FB69002B02D117
:101408004FF000030EE07B69002B3FF769AF786867
:101418004FF03701FA694FF00003FEF79BFF0346D0
:10142800FB61FB69184607F12007BD4680BD00BF78
:1014380080B586B000AF78607B681B6B03F114023F
:101448007B681A637B68DB681B78542B08D17B6840
:10145800DB6803F101027B68DA604FF0010301E009
:101468004FF00003002B00F077817B68DB681B7866
:10147800002B07D07B68DA68137802F101017A68DB
:10148800D16001E04FF00003A3F14303332B00F2D6
:10149800608101A252F823F0B11600085B1700081A
:1014A8005B170008231700085B1700085B17000884
:1014B800C11500083F1700085B1700085B170008F4
:1014C8005B1700085B1700085B1700085B1700082C
:1014D8005B1700085B170008DD1500089915000860
:1014E8005B170008711500085B1700085B170008F8
:1014F8005B1700085B1700085B1700085B170008FC
:101508005B1700085B1700085B1700085B170008EB
:101518005B1700085B170008651600085B170008D2
:101528005B1700085B1700085B170008F91500082F
:101538005B1700085B1700085B1700085B170008BB
:101548005B1700085B1700085B1700085B170008AB
:101558005B1700085B1700085B1700085B1700089B
:101568005B1700082F1600087B681B6BA3F10502A8
:101578007B681A63786800F03BFA034678684FF096
:1015880009011A464FF00003FEF7E4FE034646E160
:101598007B681B6BA3F10A027B681A63786800F00A
:1015A80027FA034678684FF00A011A464FF00003FD
:1015B800FEF7D0FE034632E1786800F019FA0346D8
:1015C80078684FF00C011A464FF00003FEF7C2FE90
:1015D800034624E1786800F00BFA034678684FF078
:1015E8000D011A464FF00003FEF7B4FE034616E15C
:1015F80078684FF0680100F017F90346002B02D114
:101608004FF000030BE178684FF00001FFF7E2F9B3
:10161800034678684FF00F011A464FF00003FEF7B3
:1016280099FE0346FBE078684FF0760100F0FCF87D
:101638000346002B02D14FF00003F0E078684FF02A
:101648000001FFF7C7F9034678684FF010011A4602
:101658004FF00003FEF77EFE0346E0E078684FF0A7
:10166800000100F0E1F80346002B02D14FF000031F
:10167800D5E078684FF0000100F0D6F80346002B5B
:1016880002D14FF00003CAE078684FF00001FFF77D
:10169800A1F9034678684FF011011A464FF000038C
:1016A800FEF758FE0346BAE0786800F0A1F9034651
:1016B8007B617868FFF748FC03463B613B69002B78
:1016C80002DA4FF00003AAE07B68DB681B785F2B27
:1016D80008D17B68DB6803F101027B68DA604FF0B0
:1016E800000301E04FF00103002B02D04FF000038C
:1016F80095E0786800F07CF90346FB607B681B6B1B
:1017080003F105027B681A6378684FF00B01FA68E9
:101718007B69FEF71FFE034681E0786800F068F9F0
:10172800034678684FF00E011A464FF00003FEF7A3
:1017380011FE034673E0786800F05AF903467868AA
:101748004FF012011A464FF00003FEF703FE03465E
:1017580065E04FF0000362E07B68DB681B78472B8D
:1017680008D17B68DB6803F101027B68DA604FF01F
:10177800010301E04FF00003002B4ED07B68DB68CB
:101788001B78002B07D07B68DA68137802F1010117
:101798007A68D16001E04FF00003522B17D0522B2A
:1017A80002DC412B21D035E0562B02D0722B2CD0F5
:1017B80030E07868FFF784F9034678684FF0130142
:1017C8001A464FF00003FEF7C5FD034627E0786888
:1017D800FFF776F9034678684FF014011A464FF080
:1017E8000003FEF7B7FD034619E078684FF00001E3
:1017F800FFF7F0F8034678684FF015011A464FF0E6
:101808000003FEF7A7FD034609E07868FFF732FDFD
:10181800034604E04FF0000301E04FF000031846D0
:1018280007F11807BD4680BD80B582B000AF78606B
:1018380039603B68002B0FD17B68DB681B78002B75
:1018480007D07B68DA68137802F101017A68D16001
:1018580001E04FF000033B603B68682B03D17868D8
:10186800FFF772FB21E03B68762B1BD17868FFF706
:101878006BFB7B68DB681B785F2B08D17B68DB68B8
:1018880003F101027B68DA604FF0000301E04FF0DA
:101898000103002B02D04FF000031DE07868FFF72A
:1018A80053FB02E04FF0000316E07B68DB681B780F
:1018B8005F2B08D17B68DB6803F101027B68DA6083
:1018C8004FF0000301E04FF00103002B02D04FF06E
:1018D800000301E04FF00103184607F10807BD4671
:1018E80080BD00BF80B584B000AF78607B68DB6ADC
:1018F800002B1AD07B68DB6A1B78002B08D17B6829
:101908001A6B7B68DB6A9B68D2187B681A630CE0E9
:101918007B68DB6A1B78162B07D17B681A6B7B68A0
:10192800DB6A9B68D2187B681A637B68DB681B7864
:10193800432B02D0442B2AD053E07B68DB6803F1A9
:1019480001031B78322B07D0332B09D0312B0BD155
:101958004FF00103FB730AE04FF00203FB7306E04C
:101968004FF00303FB7302E04FF000033BE07B689A
:10197800DB6803F102027B68DA607B68DB6AFA7B6A
:10198800786811461A46FEF76FFE03462BE07B681F
:10199800DB6803F101031B78312B07D0322B09D008
:1019A800302B0BD14FF00103BB730AE04FF0020359
:1019B800BB7306E04FF00303BB7302E04FF0000374
:1019C80011E07B68DB6803F102027B68DA607B6800
:1019D800DB6ABA7B786811461A46FEF763FE03464F
:1019E80001E04FF00003184607F11007BD4680BD1F
:1019F80090B587B000AF78607B68DB681B78FB74B4
:101A0800FB7C722B05D0FB7C562B02D0FB7C4B2B2E
:101A180026D107F10803786819464FF0000200F054
:101A2800A3FB0346FB60FB68002B02D14FF00003C9
:101A380086E37868FFF7DCFF0246FB681A60FB68FC
:101A48001B68002B07D0BB687868194601F014FCA6
:101A58000346002B02D14FF0000371E3BB686FE32C
:101A68004FF001037B61FB7CA3F130034A2B00F2AA
:101A7800528301A252F823F0331C0008331C0008DB
:101A8800331C0008331C0008331C0008331C0008F2
:101A9800331C0008331C0008331C0008331C0008E2
:101AA8001F2100081F2100081F2100081F2100080E
:101AB8001F2100081F2100081F2100083F1C0008E3
:101AC8001F210008A51D0008291E00081F21000865
:101AD800271C0008CF1D00081F2100081F2100082F
:101AE8001F2100081F2100081F2100084B1C0008A7
:101AF800331C0008271D0008511D00081F2100087D
:101B08007B1D00089F1C0008571C0008F91D0008D1
:101B18001F2100081F2100081F2100081F2100089D
:101B2800331C00081F2100081F2100081F2100087E
:101B38001F2100081F2100081F210008AD1B0008F5
:101B4800AD1B0008AD1B0008AD1B0008AD1B00084D
:101B5800AD1B0008AD1B0008AD1B0008AD1B00083D
:101B6800AD1B00081F210008AD1B0008AD1B0008B5
:101B7800AD1B0008AD1B00081F2100081F2100082D
:101B88001F210008AD1B0008AD1B0008FD1B000845
:101B9800AD1B0008AD1B0008AD1B0008AD1B0008FD
:101BA800AD1B0008FA7C13464FEA83039B184FEAE3
:101BB8008303A3F5F262A2F104024DF65873C0F64E
:101BC8000103D31878681946FEF7DAFC0346BB60B0
:101BD8007B681A6BBB685B685B68D2187B681A63A2
:101BE8004FF000037B617B68DB6803F101027B68CF
:101BF800DA6096E27B68DB6803F101027B68DA60F1
:101C08007868FFF783F9034678684FF024011A468D
:101C18004FF00003FEF79EFB0346BB6081E2786845
:101C280000F016FB0346BB607BE2786800F0F6FB29
:101C38000346BB6075E2786800F0FEFB0346BB60B4
:101C48006FE2786800F0C0FC0346BB6069E2786820
:101C580000F050FD0346BB607B68DB681B78492BAE
:101C680040F05C82BB687868194601F005FB0346C2
:101C7800002B02D14FF0000362E2BC68786800F0E4
:101C88006DFD034678684FF004012246FEF762FBBB
:101C98000346BB6042E27B68DB685B78BB74BB7C55
:101CA8002F2B02D9BB7C392B08D9BB7C5F2B05D0E5
:101CB800BB7C402B20D9BB7C5A2B1DD878684FF0B1
:101CC800000101F005FB0346BB607B68DB681B78FD
:101CD800492B0DD1BC68786800F040FD0346786850
:101CE8004FF004012246FEF735FB0346BB6015E0C2
:101CF8004FF000037B6111E0786800F08FFB03462A
:101D0800BB60BB68002B00F00B82BB681B78162BEE
:101D180040F006824FF000037B6101E200E27B683D
:101D2800DB6803F101027B68DA607868FFF760FE20
:101D3800034678684FF020011A464FF00003FEF77B
:101D480009FB0346BB60ECE17B68DB6803F1010239
:101D58007B68DA607868FFF74BFE034678684FF0D7
:101D68001E011A464FF00003FEF7F4FA0346BB6063
:101D7800D7E17B68DB6803F101027B68DA60786889
:101D8800FFF736FE034678684FF01F011A464FF0FA
:101D98000003FEF7DFFA0346BB60C2E17B68DB683D
:101DA80003F101027B68DA607868FFF721FE0346D9
:101DB80078684FF021011A464FF00003FEF7CAFA7F
:101DC8000346BB60ADE17B68DB6803F101027B6819
:101DD800DA607868FFF70CFE034678684FF0220156
:101DE8001A464FF00003FEF7B5FA0346BB6098E1C8
:101DF8007B68DB6803F101027B68DA607868FFF7CB
:101E080085F80346BB607868FFF7F2FD0246BB68B9
:101E180078684FF01D01FEF79DFA0346BB6080E12C
:101E28004FF000037B617B68DB6803F101027B688C
:101E3800DA607B68DB681B78002B07D07B68DA6880
:101E4800137802F101017A68D16001E04FF00003D4
:101E5800FB74FB7CA3F14603302B00F2578101A2EF
:101E680052F823F057200008152100081521000812
:101E78001521000815210008152100081521000862
:101E88001521000815210008152100081521000852
:101E9800152100081521000815210008311F000828
:101EA8001521000815210008152100081521000832
:101EB8001521000815210008152100081521000822
:101EC8001521000815210008152100081521000812
:101ED800152100081521000815210008C11F000858
:101EE800DF1F0008A31F000815210008FD1F0008B8
:101EF80039200008152100081521000815210008BF
:101F080015210008F720000815210008851F000882
:101F180015210008152100081B200008311F0008A2
:101F280015210008EB200008786800F023FD03461F
:101F380078684FF03B011A464FF00003FEF70AFAA3
:101F48000346BB60BB68002B00F0E3807B68DB685E
:101F58001B78002B0ED07B68DB681A78452A0CBFEB
:101F680000220122D2B203F101017B68D960002A64
:101F780000F0CF804FF00003BB60CAE07868FFF73D
:101F880037FD034678684FF041011A464FF00003C9
:101F9800FEF7E0F90346BB60BCE078686B49FEF7E2
:101FA800EFFA0346BB607B681A6BBB685B685B68CB
:101FB800D2187B681A63ADE078686549FEF7E0FAE5
:101FC8000346BB607B681A6BBB685B685B68D218AA
:101FD8007B681A639EE078685E49FEF7D1FA03468B
:101FE800BB607B681A6BBB685B685B68D2187B68F0
:101FF8001A638FE078685849FEF7C2FA0346BB6057
:102008007B681A6BBB685B685B68D2187B681A636D
:1020180080E078685149FEF7B3FA0346BB607B68F5
:102028001A6BBB685B685B68D2187B681A6371E0DF
:1020380078684B49FEF7A4FA0346BB607B681A6BC5
:10204800BB685B685B68D2187B681A6362E0786873
:10205800FEF758F90346BB60BB684FF028021A70B8
:10206800BB687A68D26812782F2A07D97A68D2684A
:102078001278392A02D84FF0010201E04FF000022D
:1020880092B21A811B89002B02D07868FEF75CFF98
:10209800BC687868FFF7ACFC03466360BB685B68A4
:1020A800002B02D14FF000034AE07868FEF74CFF9E
:1020B8007B68DB681B78002B07D07B68DA681378AD
:1020C80002F101017A68D16001E04FF00003FB746E
:1020D800BB68FA7C732A14BF0022012292B25A818B
:1020E80018E0786800F028FA0346BB6012E07868C8
:1020F8001C49FEF745FA0346BB607B681A6BBB6850
:102108005B685B68D2187B681A6303E04FF00003D2
:1021180016E000BF05E04FF0000311E000BF00E04B
:1021280000BF7B69002B0AD0BB687868194601F0AC
:10213800A3F80346002B02D14FF0000300E0BB6870
:10214800184607F11C07BD4690BD00BF60E10108B5
:1021580074E1010888E101089CE10108B0E1010887
:10216800C4E10108D8E1010880B586B000AFF86085
:10217800B9607A60FB68DB681B78FB7559E0FB681F
:10218800DB6803F10102FB68DA60FB7D722B10D17A
:102198007B68002B02D04FF01A0301E04FF01703C1
:1021A800BB75FB681B6B03F109031A46FB681A63CE
:1021B80023E0FB7D562B10D17B68002B02D04FF01B
:1021C8001B0301E04FF01803BB75FB681B6B03F1A1
:1021D80009031A46FB681A630FE07B68002B02D0DC
:1021E8004FF01C0301E04FF01903BB75FB681B6B34
:1021F80003F106031A46FB681A63BB7DF8681946A3
:102208004FF000024FF00003FEF7A4F80246BB6847
:102218001A60BB681B68002B02D14FF0000312E064
:10222800BB681B6803F10403BB60FB68DB681B78B1
:10223800FB75FB7D722BA2D0FB7D562B9FD0FB7DBF
:102248004B2B9CD0BB68184607F11807BD4680BDCC
:1022580080B584B000AF78607B68DB681B78462B5C
:1022680008D17B68DB6803F101027B68DA604FF014
:10227800000301E04FF00103002B02D04FF00003F0
:1022880027E07B68DB681B78592B05D17B68DB6806
:1022980003F101027B68DA6078684FF0010100F011
:1022A8007FF80346FB607B68DB681B78452B08D109
:1022B8007B68DB6803F101027B68DA604FF000039A
:1022C80001E04FF00103002B02D04FF0000300E0C3
:1022D800FB68184607F11007BD4680BD80B586B07B
:1022E80000AF78604FF00003BB6007F108037B6123
:1022F8007B68DB681B78FB74FB7C002B28D0FB7C9D
:10230800452B25D0FB7C2E2B22D07868FFF770FB5D
:102318000346FB60FB68002B02D14FF000033AE054
:1023280078684FF02A01FA684FF00003FEF712F8B8
:1023380002467B691A607B691B68002B02D14FF04B
:10234800000328E07B691B6803F108037B61CFE782
:10235800BB68002B02D14FF000031CE0BB689B68F0
:10236800002B17D1BB685B681B78232B12D1BB6885
:102378005B685B681B7C092B0CD17B681A6BBB689C
:102388005B685B685B68D21A7B681A63BB684FF04E
:1023980000025A60BB68184607F11807BD4680BDA1
:1023A80080B586B000AF786039607B68DB681B78E1
:1023B800FB74FB7C4A2B08D17B68DB6803F10102C4
:1023C8007B68DA604FF001033B603B68002B0AD062
:1023D8007868FFF70DFB03467B617B69002B05D10D
:1023E8004FF0000315E04FF000037B617868FFF7BA
:1023F80075FF0346FB60FB68002B02D14FF000031A
:1024080007E078684FF025017A69FB68FDF7A2FFBD
:102418000346184607F11807BD4680BD80B582B04F
:1024280000AF78607868FEF74BFB0346184607F163
:102438000807BD4680BD00BF80B586B000AF786094
:102448007B68DB681B78412B08D17B68DB6803F16C
:1024580001027B68DA604FF0000301E04FF00103EE
:10246800002B02D04FF0000361E07B68DB681B782B
:10247800FB74FB7C5F2B03D14FF000037B6136E0DC
:10248800FB7C2F2B27D9FB7C392B24D87B68DB6876
:10249800FB607B68DB6803F101027B68DA607B68BC
:1024A800DB681B78FB74FB7C2F2B02D9FB7C392B58
:1024B800EFD97B68DB681A46FB68D31A7868F96835
:1024C8001A46FEF741F803467B617B69002B0DD164
:1024D8004FF000032BE0786800F04CFA03467B616C
:1024E8007B69002B03D14FF0000320E000BF7B681D
:1024F800DB681B785F2B08D17B68DB6803F101027E
:102508007B68DA604FF0000301E04FF00103002B15
:1025180002D04FF000030AE07868FFF769FA034633
:1025280078684FF026017A69FDF714FF03461846CC
:1025380007F11807BD4680BD80B584B000AF78604C
:102548007B68DB681B78FB72FB7A5F2B0BD17B689F
:10255800DB6803F101027B68DA60786800F00AFA48
:102568000346FB6004E07868FEF738FD0346FB602D
:10257800FB68002B02D14FF000031FE07B68DB688B
:102588001B785F2B08D17B68DB6803F101027B684D
:10259800DA604FF0000301E04FF00103002B02D096
:1025A8004FF000030AE07868FFF722FA03467868DC
:1025B8004FF02901FA68FDF7CDFE0346184607F1EA
:1025C8001007BD4680BD00BF80B586B000AF7860FB
:1025D8007B68DB681B784D2B08D17B68DB6803F1CF
:1025E80001027B68DA604FF0000301E04FF001035D
:1025F800002B02D04FF000033EE07868FFF7F8F9AF
:1026080003467B6107F10C03786819464FF0010215
:10261800FFF7AAFD03463B613B69002B02D14FF04F
:10262800000329E07868FFF7E3F902463B691A607E
:102638003B691B68002B02D14FF000031CE007F137
:102648000C033A699A420FD03B691B681B78252B0B
:102658000AD0FB687868194600F00EFE0346002B86
:1026680002D14FF0000307E0FB6878684FF02701BC
:102678007A69FDF76FFE0346184607F11807BD464D
:1026880080BD00BF80B584B000AF78607B68DB6830
:102698001B785F2B03D14FF00003FB600EE07B68D3
:1026A800DB681B786E2B02D14FF0FF331CE0786893
:1026B800FEF74AFC034603F10103FB607B68DB6815
:1026C8001B785F2B08D17B68DB6803F101027B680C
:1026D800DA604FF0000301E04FF00103002B02D055
:1026E8004FF0FF3300E0FB68184607F11007BD46BE
:1026F80080BD00BF80B584B000AF78607B68DB68C0
:102708001B78542B08D17B68DB6803F101027B68D6
:10271800DA604FF0000301E04FF00103002B02D014
:102728004FF0000315E07868FFF7ACFF0346FB6045
:10273800FB68002B02DA4FF000030AE07B689B6A13
:1027480003F101027B689A627868F968FDF7C8FFAF
:102758000346184607F11007BD4680BD80B586B010
:1027680000AF78607B68DB6A3B617B68DB681B785D
:10277800492B08D17B68DB6803F101027B68DA60CA
:102788004FF0000301E04FF00103002B02D04FF09F
:1027980000034FE07B68DB681B78452B10D17B6812
:1027A800DB6803F101027B68DA6078684FF02B017F
:1027B8004FF000024FF00003FDF7CCFD034639E06F
:1027C8004FF00003BB6007F108037B6100E000BF26
:1027D800786800F035F80346FB60FB68002B02D1EF
:1027E8004FF0000326E078684FF02B01FA684FF0AD
:1027F8000003FDF7AFFD02467B691A607B691B6821
:10280800002B02D14FF0000314E07B691B6803F131
:1028180008037B617B68DB681B78452BD7D17B6815
:10282800DB6803F101027B68DA6000BF7B683A6904
:10283800DA62BB68184607F11807BD4680BD00BFBD
:1028480080B584B000AF78607B68DB681B784C2B60
:1028580026D0582B02D0492B27D02BE07B68DB6889
:1028680003F101027B68DA60786800F083F80346B8
:10287800FB607B68DB681B78452B08D17B68DB68CD
:1028880003F101027B68DA604FF0000301E04FF0CA
:102898000103002B02D04FF000030FE0FB680DE0AE
:1028A800786800F037FA034608E07868FFF756FFC3
:1028B800034603E07868FFF79BF80346184607F1DC
:1028C8001007BD4680BD00BF80B586B000AF7860F8
:1028D8004FF00003FB6007F10C037B617B68DB684A
:1028E8001B78452B11D17B68DB6803F101027B68FB
:1028F800DA6078684FF02A014FF000024FF00003C9
:10290800FDF728FD03462FE000BF786800F032F895
:1029180003463B613B69002B02D14FF0000323E0E3
:1029280078684FF02A013A694FF00003FDF712FD6D
:1029380002467B691A607B691B68002B02D14FF045
:10294800000311E07B691B6803F108037B617B6866
:10295800DB681B78452BD7D17B68DB6803F1010264
:102968007B68DA6000BFFB68184607F11807BD46A8
:1029780080BD00BF80B590B000AF78607B68DB6831
:102988001B7887F8333097F833304C2B04D17868AC
:1029980000F0C0F90346B8E197F83330542B04D15E
:1029A8007868FFF7A7FE0346AFE197F83330732B3B
:1029B80037D17B68DB6803F101031B78722B30D1B8
:1029C8007B68DB6803F102027B68DA607868FFF7EE
:1029D8000FF80346FB627868FEF71AFA0346BB62F3
:1029E8007B68DB681B78492B08D078684FF00101B9
:1029F800FA6ABB6AFDF7AEFC034686E17868FFF722
:102A0800ADFE034678684FF00401BA6AFDF7A2FCF0
:102A1800034678684FF00101FA6AFDF79BFC03460C
:102A280073E197F83330732B1AD17B68DB6803F1B5
:102A380001031B78702B13D17B68DB6803F102025A
:102A48007B68DA607868FFF795FF034678684FF08F
:102A580041011A464FF00003FDF77CFC034654E1A0
:102A680097F83330662B1DD17B68DB6803F10103CF
:102A78001B78702B16D17B68DB6803F102027B6838
:102A8800DA607868FFF7FEFD03467B627B6A002BFD
:102A980002DA4FF0000338E17868796AFDF73AFE08
:102AA800034632E197F833302F2B03D997F83330A8
:102AB800392B0AD997F833306F2B2ED17B68DB6816
:102AC80003F101031B786E2B27D197F833306F2B56
:102AD80005D17B68DB6803F102027B68DA607868FD
:102AE800FEF796F90346FB60FB68002B02D14FF016
:102AF80000030AE17B68DB681B78492B0BD17868F7
:102B0800FFF72CFE034678684FF00401FA68FDF7DA
:102B180021FC0346F9E0FB68F7E07868FEF7EAFA7B
:102B280003463B623B6A002B02D14FF00003ECE006
:102B38003B6A1B782C2B09D17B681A6B3B6A5B6854
:102B48009B68A3F10203D2187B681A633B6A1B785F
:102B58002C2B18D13B6A5B681B6818464EF29431DF
:102B6800C0F6010105F0C6F90346002B0BD17868C1
:102B7800FEF73EFF034678684FF02F013A6AFDF7EB
:102B8800E9FB0346C1E03B6A1B782D2B0BD02E2BAB
:102B98000DD02C2B02D04FF00003B6E03B6A5B68E7
:102BA800DB68FB6307E03B6A5B68FB6303E04FF0AD
:102BB8000103FB6300BFFB6B022B27D0032B7ED0E6
:102BC800012B40F0A0803B6A1B782E2B10D17B682C
:102BD800DB681B785F2B0BD17B68DB6803F1010294
:102BE8007B68DA607868FFF76FFE0346BB6304E032
:102BF8007868FFF7BFFE0346BB6378684FF02F0184
:102C08003A6ABB6BFDF7A6FB03467EE03B6A5B684E
:102C18001B68FB617868FFF7ADFE0346BB61F86986
:102C28004EF23821C0F6010105F064F90346002B85
:102C380005D17868FFF748FE03467B632FE0F86903
:102C48004EF27C21C0F6010105F054F90346002B31
:102C580009D0F8694EF26431C0F6010105F04AF96D
:102C68000346002B16D17868FEF7D2F803467B633B
:102C78007B68DB681B78492B11D17868FFF76EFDFC
:102C8800034678684FF004017A6BFDF763FB03464F
:102C98007B6304E07868FFF76DFE03467B63786822
:102CA8004FF03101BA697B6BFDF754FB0346786836
:102CB8004FF030013A6AFDF74DFB034625E078688E
:102CC800FFF758FE03467B617868FFF753FE03461B
:102CD8003B617868FFF74EFE034678684FF0340191
:102CE8003A69FDF737FB034678684FF033017A6994
:102CF800FDF730FB034678684FF032013A6AFDF77A
:102D080029FB034601E04FF00003184607F140078E
:102D1800BD4680BD80B586B000AF78607B68DB6853
:102D28001B784C2B08D17B68DB6803F101027B68B8
:102D3800DA604FF0000301E04FF00103002B02D0EE
:102D48004FF000037EE07B68DB681B785F2B04D0C4
:102D58007B68DB681B785A2B07D178684FF0000135
:102D6800FDF710FD03467B6156E07868FEF740FEEC
:102D78000346FB60FB68002B02D14FF0000361E0C3
:102D8800FB681B78232B0CD1FB685B681B7C002B32
:102D980007D07B681A6BFB685B685B68D21A7B6834
:102DA8001A634FF03503FB747B68DB681B786E2B66
:102DB80008D14FF03603FB747B68DB6803F101022E
:102DC8007B68DA607B68DB68BB600DE07B68DB688A
:102DD8001B78002B02D14FF0000333E07B68DB68DF
:102DE80003F101027B68DA607B68DB681B78452B9E
:102DF800ECD17B68DB681A46BB68D31A7868B96877
:102E08001A46FDF7A1FB0346FA7C78681146FA6872
:102E1800FDF7A0FA03467B617B68DB681B78452BCE
:102E280008D17B68DB6803F101027B68DA604FF048
:102E3800000301E04FF00103002B02D04FF0000324
:102E480000E07B69184607F11807BD4680BD00BF42
:102E580080B586B000AF78607B68DB681B785A2B3A
:102E680008D17B68DB6803F101027B68DA604FF008
:102E7800000301E04FF00103002B02D04FF00003E4
:102E880084E078684FF00001FDF7A4FD0346FB607D
:102E98007B68DB681B78452B08D17B68DB6803F10E
:102EA80001027B68DA604FF0000301E04FF0010394
:102EB800002B02D04FF0000368E07B68DB681B78CA
:102EC800732B20D17B68DB6803F101027B68DA6031
:102ED800786800F061F80346002B02D14FF0000338
:102EE80054E078684EF20871C0F601014FF00E0206
:102EF800FDF72AFB034678684FF00201FA68FDF7F0
:102F080029FA034642E04FF0FF333B617B68DB68F8
:102F18001B78642B10D17B68DB6803F101027B68A6
:102F2800DA607868FFF7AEFB03463B613B69002B2C
:102F380002DA4FF0000329E07868FDF7C1FD034687
:102F48007B617B69002B0FD07B691B783E2B0AD0F5
:102F5800402B08D0786800F01FF80346002B03D1F7
:102F68004FF0000312E000BF3B69002B06DB7868D6
:102F780039697A69FDF75AFB03467B6178684FF037
:102F88000201FA687B69FDF7E5F90346184607F17F
:102F98001807BD4680BD00BF80B584B000AF78601B
:102FA8007B68DB681B785F2B02D04FF0010312E0CF
:102FB8007B68DB6803F101027B68DA607868FDF7FB
:102FC800C3FF0346FB60FB68002B02DA4FF00003E7
:102FD80001E04FF00103184607F11007BD4680BD18
:102FE80080B586B000AF78607B68DB681B78552BAE
:102FF80008D17B68DB6803F101027B68DA604FF077
:10300800000301E04FF00103002B02D04FF0000352
:103018005CE07B68DB681B786C2B08D17B68DB681D
:1030280003F101027B68DA604FF0000301E04FF022
:103038000103002B02D04FF0000347E07868FFF748
:103048004DF903467B617B69002B02D14FF00003E9
:103058003CE07B68DB681B78452B08D17B68DB6824
:1030680003F101027B68DA604FF0000301E04FF0E2
:103078000103002B02D04FF0000327E07868FFF728
:1030880001FB03463B613B69002B02DA4FF000036A
:103098001CE07868FDF736F90346FB60FB68002BF7
:1030A80009D0FB684FF03E021A70FB687A695A60D3
:1030B800FB683A699A607868F96800F0DDF80346B9
:1030C800002B02D14FF0000300E0FB68184607F11F
:1030D8001807BD4680BD00BF80B584B000AF7860DA
:1030E8007B68DB681B78552B08D17B68DB6803F1AC
:1030F80001027B68DA604FF0000301E04FF0010342
:10310800002B02D04FF0000339E07B68DB681B78A6
:10311800742B08D17B68DB6803F101027B68DA60F5
:103128004FF0000301E04FF00103002B02D04FF0F5
:10313800000324E07868FFF7A5FA0346FB60FB6804
:10314800002B02DA4FF0000319E07868FDF7DAF88F
:103158000346BB60BB68002B06D0BB684FF040023B
:103168001A70BB68FA685A607868B96800F084F821
:103178000346002B02D14FF0000300E0BB6818465D
:1031880007F11007BD4680BD80B586B000AF7860F6
:1031980039607B68DB683B613B697B617B691B78D5
:1031A8002E2B39D17B6903F101031B78602B05D9DC
:1031B8007B6903F101031B787A2B05D97B6903F13D
:1031C80001031B785F2B27D17B6903F102037B6125
:1031D80003E07B6903F101037B617B691B78602B4A
:1031E80003D97B691B787A2BF3D97B691B785F2B12
:1031F800EFD011E07B6903F102037B6103E07B6997
:1032080003F101037B617B691B782F2B05D97B694F
:103218001B78392BF3D900E000BF7B691B782E2B74
:103228000BD17B6903F101031B782F2B05D97B692F
:1032380003F101031B78392BDCD97B68DA687969DB
:103248003B69CB1AD2187B68DA607A693B69D31A72
:10325800786839691A46FDF777F90346FB6078689C
:103268004FF042013A68FB68FDF774F803461846C8
:1032780007F11807BD4680BD80B483B000AF786001
:1032880039603B68002B02D14FF0000319E07B68DE
:103298001A6A7B685B6A9A4202DB4FF0000310E00F
:1032A8007B68DA697B681B6A4FEA8303D3183A683C
:1032B8001A607B681B6A03F101027B681A624FF08F
:1032C8000103184607F10C07BD4680BC704700BFD4
:1032D80080B58CB000AF786039607B68DB681B789C
:1032E800532B08D17B68DB6803F101027B68DA6045
:1032F8004FF0000301E04FF00103002B02D04FF024
:103308000003F6E07B68DB681B78002B07D07B683E
:10331800DA68137802F101017A68D16001E04FF0B0
:10332800000387F82F3097F82F305F2B0FD097F8CE
:103338002F302F2B03D997F82F30392B07D997F82F
:103348002F30402B74D997F82F305A2B70D84FF064
:103358000003BB6297F82F305F2B52D097F82F30BD
:103368002F2B12D997F82F30392B0ED8BA6A13465B
:103378004FEAC3039B184FEA83031A4697F82F3086
:10338800D318A3F130037B6219E097F82F30402B54
:1033980012D997F82F305A2B0ED8BA6A13464FEA2B
:1033A800C3039B184FEA83031A4697F82F30D318A4
:1033B800A3F137037B6202E04FF0000399E07A6AD9
:1033C800BB6A9A4202D24FF0000392E07B6ABB626A
:1033D8007B68DB681B78002B07D07B68DA6813787A
:1033E80002F101017A68D16001E04FF0000387F82B
:1033F8002F3097F82F305F2BB0D1BB6A03F1010350
:10340800BB627B681B6A1A46BB6A9A4202D84FF0B5
:1034180000036EE07B689B6A03F101027B689A6295
:103428007B68DA69BB6A4FEA8303D3181B6860E0DC
:103438007B689B6803F00803002B0CBF0023012363
:103448003B623B6A002B0FD13B68002B0CD07B689A
:10345800DB681B78FB74FB7C432B02D0FB7C442B82
:1034680002D14FF001033B62244BFB604EF6A803E8
:10347800C0F60103FB6136E0FB691B7897F82F2043
:103488009A422CD1FB695B69002B0BD0FB695A6906
:10349800FB699B69786811461A46FDF755F902469B
:1034A8007B68DA623B6A002B06D0FB69DB68BB618C
:1034B800FB691B697B6105E0FB695B68BB61FB69B4
:1034C8009B687B617B681A6B7B69D2187B681A637F
:1034D8007868B9697A69FDF737F9034609E0FB6945
:1034E80003F11C03FB61FA69FB689A42C4D34FF0ED
:1034F8000003184607F13007BD4680BD6CE9010896
:1035080080B582B000AF786039607B684FF0000208
:103518001A607B684FF000025A607B684FF0000227
:103528009A607B684FF00002DA603B68002B03D09A
:103538007868396800F004F807F10807BD4680BDCF
:1035480080B584B000AF786039607B68DB68002B99
:103558003AD17B689B68002B02D07B689B6801E0AE
:103568004FF00203FB6003E0FB684FEA4303FB6094
:10357800FA683B689A42F7D37B681B681846F96873
:1035880004F0B0F90346BB60BB68002B15D17B681B
:103598001B68184603F024FD7B684FF000021A6090
:1035A8007B684FF000025A607B684FF000029A6017
:1035B8007B684FF00102DA6007E07B68BA681A603E
:1035C8007B68FA689A6000E000BF07F11007BD4603
:1035D80080BD00BF80B586B000AFF860B9607A6082
:1035E800FB685A687B68D31803F101037B61FB68A9
:1035F8009A687B699A4203D2F8687969FFF7A0FF55
:10360800FB68DB68002B1ED1FB681A68FB685B68E7
:10361800D218BB6811461A467B68084611461A46F6
:1036280004F00CF8FB681A68FB6859687B68CB18CB
:10363800D3184FF000021A70FB685A687B68D218DA
:10364800FB685A6000E000BF07F11807BD4680BD5F
:1036580080B586B000AFF860B9607A607B687B613E
:103668007869F968BA68FFF7B5FF07F11807BD462A
:1036780080BD00BF80B485B000AFF860B9607A60E3
:103688003B60FB68BA681A60FB684FF00002C3F839
:103698000421FB684FF0000283F80821FB684FF013
:1036A8000002C3F81421FB684FF00002C3F8182188
:1036B800FB684FF00002C3F82421FB687A68C3F85E
:1036C8000C21FB683A68C3F81021FB684FF0000230
:1036D800C3F81C2107F11407BD4680BC704700BF22
:1036E80080B483B000AF78607B684FF00102C3F804
:1036F8001C2107F10C07BD4680BC704780B483B01D
:1037080000AF78607B68D3F81C31002B0CBF002316
:103718000123184607F10C07BD4680BC704700BF5F
:1037280080B582B000AF78607B68D3F804317A68DE
:10373800D3184FF000021A717B68D3F80C317A68FD
:1037480002F104007A68D2F804117A68D2F81021DC
:1037580098477B684FF00002C3F804217B68D3F8D0
:10376800243103F101027B68C3F8242107F108071B
:10377800BD4680BD80B582B000AF78600B46FB7057
:103788007B68D3F80431FF2B02D17868FFF7C8FFB4
:103798007B68D3F804317A68D218F978117103F18B
:1037A80001027B68C3F804217B68FA7883F8082152
:1037B80007F10807BD4680BD80B586B000AFF86048
:1037C800B9607A604FF000037B610BE0BA687B69EF
:1037D800D3181B78F8681946FFF7CCFF7B6903F10B
:1037E80001037B617A697B689A42EFD307F1180776
:1037F800BD4680BD80B582B000AF7860396038685A
:1038080004F0C4FC0346786839681A46FFF7D4FF09
:1038180007F10807BD4680BD80B58AB000AF786063
:10382800396007F10C0318464EF66C11C0F6010119
:103838003A6804F037FB07F10C0378681946FFF77C
:10384800D9FF07F12807BD4680BD00BF80B483B00B
:1038580000AF78607B6893F80831184607F10C07C9
:10386800BD4680BC704700BF90B5CFB000AF07F130
:103878000C04206007F10800016007F104010A60E8
:103888003A46136007F1100007F10C0107F1040232
:103898003B46096812681B68FFF7ECFE07F1100247
:1038A80007F108031046196800F0CCF907F1100376
:1038B8001846FFF735FF07F110031846FFF71EFFFC
:1038C8000346002B14BF00230123184607F59E77F3
:1038D800BD4690BD80B588B000AFF860B9607A6029
:1038E8003B607B6807F1100210461946FFF708FE97
:1038F80007F11003F868B96843F25962C0F600028C
:10390800FFF7B2FF0346002B0AD13B69184603F0C4
:1039180067FB3B684FF000021A604FF0000309E0B4
:10392800FB69002B01D1BB6901E04FF001033A6844
:1039380013603B69184607F12007BD4680BD00BFEC
:1039480080B485B000AF786039607B68FB6010E0B8
:10395800FB681B782B2B02D04FF0000319E03B6863
:10396800002B0ADD3B6803F1FF333B60FB689B6873
:10397800FB60FB68002BEBD100E000BF3B68002B2D
:1039880002D1FB68002B02D14FF0000301E0FB6875
:103998005B68184607F11407BD4680BC704700BF36
:1039A80080B582B000AF786039607B68D3F8143195
:1039B800002B05D17868FFF793FE4FF000030BE06A
:1039C8007B68D3F814315B689A683B685B6810467B
:1039D8001946FFF7B5FF0346184607F10807BD4625
:1039E80080BD00BF80B584B000AF786039603B68A7
:1039F800002B02D14FF00003D0E03B681B78412B2D
:103A080000F2B88001A252F823F000BF473B00083B
:103A18007D3B00087D3B00087D3B00087D3B00089E
:103A28001D3B0008473B00085D3B00086D3B000854
:103A38007D3B00087D3B00087D3B00087D3B00087E
:103A48007D3B00087D3B00087D3B00087D3B00086E
:103A58007D3B00087D3B00087D3B00087D3B00085E
:103A68007D3B0008473B00087D3B00087D3B000884
:103A78007D3B00087D3B00087D3B00087D3B00083E
:103A88007D3B00087D3B00087D3B00087D3B00082E
:103A98007D3B00087D3B0008473B00087D3B000854
:103AA8007D3B00087D3B00087D3B00087D3B00080E
:103AB8007D3B00087D3B00087D3B0008473B000834
:103AC8004D3B00087D3B00087D3B00087D3B00081E
:103AD8007D3B00087D3B00087D3B00087D3B0008DE
:103AE8007D3B00087D3B00087D3B00087D3B0008CE
:103AF800473B00087D3B00087D3B00087D3B0008F4
:103B08007D3B0008473B00087D3B00087D3B0008E3
:103B1800413B000878683968FFF742FF0346FB60BD
:103B2800FB68002B05D0FB681B782B2B01D1FB68A9
:103B380034E04FF0000331E04FF000032EE04FF087
:103B480000032BE03B689B6878681946FFF74AFF3B
:103B5800034623E03B689B6878681946FFF742FFF5
:103B680003461BE03B689B6878681946FFF73AFFF5
:103B7800034613E03B685B6878681946FFF732FF35
:103B88000346FB60FB68002B01D0FB6806E03B683E
:103B98009B6878681946FFF725FF0346184607F122
:103BA8001007BD4680BD00BF80B485B000AF786007
:103BB8004FF00003FB6006E0FB6803F10103FB60C4
:103BC8007B689B687B607B68002B07D07B681B78D1
:103BD8002B2B03D17B685B68002BEDD1FB68184663
:103BE80007F11407BD4680BC704700BF80B584B09C
:103BF80000AF786039604FF00003FB603B681B78CA
:103C0800002B03D03B681B78062B02D14FF0010331
:103C1800FB60FB68002B04D178684FF02801FFF7A0
:103C2800A9FD7868396800F00DF8FB68002B04D10D
:103C380078684FF02901FFF79DFD07F11007BD4691
:103C480080BD00BF90B5B5B000AF786039603B6803
:103C5800002B04D17868FFF743FD01F0F3B87868CA
:103C6800FFF74CFD0346002B41F0E1803B681B78D1
:103C7800422B01F2D78001A151F823F0913D0008B1
:103C8800C93D0008C93D00080B3E0008EB4000088C
:103C9800C54100082B4D00083B4200084B42000874
:103CA8006542000883420008A1420008D942000882
:103CB800F742000815430008334300085143000841
:103CC8006F4300088D430008AB430008C943000850
:103CD800E7430008054400081B4400081B4400088B
:103CE8001B4400088B4400088B4400088B440008E0
:103CF8008B4400088B4400088B4400088B44000860
:103D08008B4400088B440008D5440008154500087A
:103D180025450008C1450008134700085B4700080F
:103D280013470008BB470008BB470008494800087C
:103D380095480008B1480008C94800080F4900081C
:103D48000D4A0008154A00087D4A00087D4A000807
:103D5800854A0008854A0008214C00083D4C0008A7
:103D6800574C0008134C0008674C0008554D0008D4
:103D7800714D00088D4D00082D4E0008D14D0008EA
:103D88008D4C0008FB4D00087B681B6803F004039A
:103D9800002B0AD13B685A683B689B6878681146D3
:103DA8001A46FFF709FD01F04DB83B685A683B68B1
:103DB8009B68786811461A4601F048F801F042B845
:103DC8003B685B6878681946FFF73CFF7B681B68AF
:103DD80003F00403002B07D178684EF67011C0F683
:103DE8000101FFF707FD04E078684FF02E01FFF7A7
:103DF800C1FC3B689B6878681946FFF723FF01F010
:103E080021B87B68D3F81831C7F8A8307B684FF021
:103E18000002C3F818214FF00003C7F8C8303B6808
:103E28005B68C7F8CC305EE0D7F8C830032B04D9FC
:103E38007868FFF755FC01F005B87B68D3F81821BE
:103E4800D7F8C8304FEA031307F1D001CB18A3F114
:103E5800C4031A60D7F8C8304FEA031307F10C02FD
:103E6800D2187B68C3F81821D7F8C8304FEA031373
:103E780007F1D002D318A3F1C003D7F8CC201A60F9
:103E8800D7F8C8304FEA031307F1D001CB18A3F1D4
:103E9800BC034FF000021A607B68D3F81421D7F8EE
:103EA800C8304FEA031307F1D001CB18A3F1B803C8
:103EB8001A60D7F8C83003F10103C7F8C830D7F83B
:103EC800CC301B781A2B09D0D7F8CC301B781B2B99
:103ED80004D0D7F8CC301B781C2B09D1D7F8CC30BC
:103EE8005B68C7F8CC30D7F8CC30002B9CD100E009
:103EF80000BFD7F8CC30002B04D17868FFF7F0FB6F
:103F080000F0A0BFD7F8CC301B78042B0CD17B680D
:103F1800D3F81431FB677B6807F17C02C3F81421DE
:103F2800D7F8CC30C7F88030D7F8CC301B78022BC4
:103F380040F09780D7F8CC309B68C7F8C430D7F8E2
:103F4800C4301B783F2B7AD1D7F8C4305B68C7F8E8
:103F5800C43074E0D7F8C830032B04D97868FFF769
:103F6800BFFB00F06FBFD7F8C83003F1FF33D7F8B5
:103F7800C8204FEA021207F1D0018A18A2F1C40240
:103F88004FEA031307F1D001CB18A3F1C403144679
:103F98000FCB84E80F00D7F8C83003F1FF334FEA9E
:103FA800031307F10C02D218D7F8C8304FEA0313ED
:103FB80007F1D001CB18A3F1C4031A60D7F8C830B1
:103FC8004FEA031307F10C02D2187B68C3F81821D3
:103FD800D7F8C83003F1FF334FEA031307F1D002D3
:103FE800D318A3F1C003D7F8C4201A60D7F8C83093
:103FF80003F1FF334FEA031307F1D001CB18A3F104
:10400800BC034FF000021A60D7F8C83003F1FF3341
:104018007A68D2F814214FEA031307F1D001CB18BC
:10402800A3F1B8031A60D7F8C83003F10103C7F841
:10403800C830D7F8C4305B68C7F8C43000E000BFA8
:10404800D7F8C4301B781A2B84D0D7F8C4301B7823
:104058001B2B3FF47FAFD7F8C4301B781C2B3FF4E1
:1040680079AF3B689B6878681946FFF7EBFDD7F88E
:10407800CC301B78042B29D1FA6F7B68C3F8142144
:1040880024E0D7F8C83003F1FF33C7F8C830D7F8B1
:10409800C8304FEA031307F1D002D318A3F1BC03C9
:1040A8001B68002B12D178684FF02001FFF762FBE4
:1040B800D7F8C8304FEA031307F1D001CB18A3F1A2
:1040C800C0031B687868194601F02AF8D7F8C83089
:1040D800002BD6D17B68D7F8A820C3F8182100F0A8
:1040E800B1BE7B68D3F81831C7F8A4307B684FF0AD
:1040F8000002C3F818213B685B68C7F8A0307B68EA
:104108001B6803F00403002B26D0D7F8A0301B78D7
:10411800002B21D1D7F8A0309B68062B1CD1D7F8EB
:10412800A0305B6818464EF67411C0F601014FF0D6
:10413800060204F05BF80346002B0DD13B689B6830
:1041480078681946FFF77EFD78684EF2B821C0F608
:104158000101FFF74FFB2AE07868D7F8A010FFF7B6
:1041680071FD7868FFF772FB03463C2B04D1786831
:104178004FF02001FFF7FEFA78684FF03C01FFF797
:10418800F9FA3B689B6878681946FFF75BFD786821
:10419800FFF75CFB03463E2B04D178684FF0200103
:1041A800FFF7E8FA78684FF03E01FFF7E3FA7B681B
:1041B800D7F8A420C3F8182100F044BE78683968FD
:1041C800FFF7EEFB0346C7F8C030D7F8C030002B26
:1041D8000FD0D7F8C0301B782B2B0AD17B68D3F8C7
:1041E8002031D7F8C0001946FFF7AAFB0346C7F8E5
:1041F800C030D7F8C030002B04D17868FFF770FAC8
:1042080000F020BE7B68D3F81431C7F89C30D7F88B
:104218009C301A687B68C3F814217868D7F8C010F6
:10422800FFF710FD7B68D7F89C20C3F8142100F035
:1042380009BE3B689B6878681946FFF703FD00F0E4
:1042480001BE78684FF07E01FFF794FA3B689B68DF
:1042580078681946FFF7F6FC00F0F4BD78684EF66A
:104268007C11C0F60101FFF7C5FA3B685B68786806
:104278001946FFF7E7FC00F0E5BD78684EF68811AF
:10428800C0F60101FFF7B6FA3B685B687868194623
:10429800FFF7D8FC00F0D6BD78684EF69411C0F64A
:1042A8000101FFF7A7FA3B685B6878681946FFF7D2
:1042B800C9FC78684EF6B011C0F60101FFF79AFA0A
:1042C8003B689B6878681946FFF7BCFC00F0BABDEC
:1042D80078684EF6B811C0F60101FFF78BFA3B6813
:1042E8005B6878681946FFF7ADFC00F0ABBD7868ED
:1042F8004EF6C811C0F60101FFF77CFA3B685B680F
:1043080078681946FFF79EFC00F09CBD78684EF669
:10431800DC11C0F60101FFF76DFA3B685B6878684D
:104328001946FFF78FFC00F08DBD78684EF6F01146
:10433800C0F60101FFF75EFA3B685B6878681946CA
:10434800FFF780FC00F07EBD78684EF60821C0F6C5
:104358000101FFF74FFA3B685B6878681946FFF779
:1043680071FC00F06FBD78684EF61C21C0F60101A3
:10437800FFF740FA3B685B6878681946FFF762FC0C
:1043880000F060BD78684EF63821C0F60101FFF7ED
:1043980031FA3B685B6878681946FFF753FC00F010
:1043A80051BD78684EF64821C0F60101FFF722FAA0
:1043B8003B685B6878681946FFF744FC00F042BD2B
:1043C80078684EF65C21C0F60101FFF713FA3B68E6
:1043D8005B6878681946FFF735FC00F033BD7868EC
:1043E8004EF67821C0F60101FFF704FA3B685B68D6
:1043F80078681946FFF726FC00F024BD3B685A6828
:104408003B689B68786811461A46FFF7D5F900F0B3
:1044180019BD7B68D3F81831C7F8BC302BE0D7F842
:10442800BC309B68002B21D1D7F8BC305B681B7867
:10443800172B0BD0D7F8BC305B681B78182B05D02E
:10444800D7F8BC305B681B78192B19D1D7F8BC306A
:104458005B681A783B681B789A4207D13B685B68AF
:1044680078681946FFF7EEFB00F0ECBCD7F8BC30D3
:104478001B68C7F8BC30D7F8BC30002BCFD100E0A0
:1044880000BF7B68D3F81831FB667B6807F16C02C4
:10449800C3F818213B683B674FF000037B677B68D4
:1044A800D3F81431BB673B685B6878681946FFF737
:1044B800C9FB7B6F002B03D17868396800F030FEA8
:1044C800FA6E7B68C3F8182100F0BCBC7B681B68D7
:1044D80003F00403002B0CD13B685B681A683B6847
:1044E8005B685B68786811461A46FFF765F900F063
:1044F800A9BC3B685B689A683B685B68DB6878685E
:1045080011461A46FFF758F900F09CBC3B685B68F7
:1045180078681946FFF796FB00F094BC7B681B6827
:1045280003F02003002B07D07B68D3F81831786894
:1045380039681A4600F0DEFE3B685B68002B2AD01B
:104548007B68D3F81831FB657B6807F15C02C3F818
:1045580018213B683B664FF000037B667B68D3F805
:104568001431BB663B685B6878681946FFF76AFBDD
:10457800FA6D7B68C3F818217B6E002B40F05984D4
:104588007B681B6803F02003002B04D178684FF088
:104598002001FFF7EFF87B681B6803F02003002B6E
:1045A80040F049847B68D3F81831786839681A462E
:1045B80000F0A0FE00F03FBC7B68D3F81831C7F8C4
:1045C8009830D7F89830FB607B6807F10C02C3F885
:1045D80018213B683B614FF000037B617B68D3F88F
:1045E8001431BB614FF00103C7F8B830D7F89830E1
:1045F800C7F8B43043E0D7F8B4309B68002B39D102
:10460800D7F8B830032B04D97868FFF769F800F0B9
:1046180019BCD7F8B8304FEA031307F1D002D31802
:10462800A3F1C402D7F8B43014460FCB84E80F00C6
:104638007B68D3F81821D7F8B8304FEA031307F18D
:10464800D001CB18A3F1C4031A60D7F8B8304FEAE9
:10465800031307F10C02D2187B68C3F81821D7F8A6
:10466800B4304FF001029A60D7F8B83003F1010373
:10467800C7F8B830D7F8B4301B68C7F8B430D7F8E3
:10468800B430002B11D0D7F8B4305B681B78172BE7
:10469800B1D0D7F8B4305B681B78182BABD0D7F8FB
:1046A800B4305B681B78192BA5D03B689B68786889
:1046B8001946FFF7C7FA7B68D7F89820C3F818217E
:1046C8007B69002B14D0BDE3D7F8B83003F1FF3372
:1046D800C7F8B830D7F8B8304FEA031307F1D0025B
:1046E800D318A3F1C0031B687868194600F018FDB9
:1046F800D7F8B830012BE7D87B68D3F81831786839
:1047080039681A4600F0A0FE9CE37B68D3F818319C
:10471800FB647B6807F14C02C3F818213B683B65D2
:104728004FF000037B657B68D3F81431BB653B68A9
:104738009B6878681946FFF785FA7B6D002B03D1D3
:104748007868396800F0ECFCFA6C7B68C3F81821CB
:1047580078E33B685B89002B06D078684EF68C219D
:10476800C0F60101FFF746F83B685B685A68A44B3E
:104778009A420AD03B685B6878681946FFF762FA84
:1047880078684FF02001FEF7F5FF3B681B89002B86
:1047980007D078684EF69421C0F60101FFF72AF891
:1047A80050E378684EF69C21C0F60101FFF722F825
:1047B80048E33B685B68002B05D03B685B6878681A
:1047C8001946FFF73FFA3B689B68002B00F03583DA
:1047D8007B68D3F80431FD2B02D97868FEF7A0FF77
:1047E80078684EF6A421C0F60101FFF703F87B684C
:1047F800D3F80431C7F894307B68D3F82431C7F86C
:1048080090303B689B6878681946FFF71BFA7B680D
:10481800D3F82421D7F890309A4240F00E837B6871
:10482800D3F80421D7F894309A4240F006837B6885
:10483800D3F80431A3F102027B68C3F80421FCE237
:1048480078684EF6A821C0F60101FEF7D3FF3B6851
:104858005B685B681B7887F88F3097F88F30602B20
:1048680008D997F88F307A2B04D878684FF0200150
:10487800FEF780FF3B685B685A683B685B689B682B
:10488800786811461A46FEF797FFDBE278684EF61D
:10489800B421C0F60101FEF7ADFF3B689B6878685C
:1048A8001946FFF7CFF9CDE278684EF6B421C0F685
:1048B8000101FEF79FFF7868396800F047FEC1E202
:1048C8003B685B681B782E2B06D03B685B68786872
:1048D800194600F01DFE0FE078684FF02801FEF73A
:1048E80049FF3B685B687868194600F02FFE7868D6
:1048F8004FF02901FEF73EFF3B689B687868194630
:10490800FFF774F99EE23B689B681B78312B03D054
:104918007868FEF7E5FE95E23B685B681B782C2B10
:1049280011D13B685B685B689B68012B0BD13B68C6
:104938005B685B685B681B783E2B04D178684FF036
:104948002801FEF717FF3B689B685B687868194683
:10495800FFF74CF93B685B685B681B6818464EF2CA
:10496800B421C0F6010103F0C5FA0346002B11D1AA
:1049780078684FF05B01FEF7FDFE3B689B689B681B
:1049880078681946FFF75EF978684FF05D01FEF721
:10499800F1FE1AE03B685B685B681B6818464EF2DC
:1049A8003821C0F6010103F0A5FA0346002B05D013
:1049B8003B685B687868194600F0AAFD3B689B680D
:1049C8009B6878681946FFF711F93B685B681B78A4
:1049D8002C2B40F034823B685B685B689B68012B3A
:1049E80040F02D823B685B685B685B681B783E2BF8
:1049F80040F0258278684FF02901FEF7BBFE1EE2E1
:104A0800F8DF01087868FEF76BFE1BE23B689B68DD
:104A18001B78332B05D13B689B689B681B78342B2C
:104A280003D07868FEF75CFE0CE23B689B685B6825
:104A380078681946FFF7DAF83B685B6878681946C2
:104A480000F066FD3B689B689B685B687868194660
:104A5800FFF7CCF878684EF6C021C0F60101FEF7E2
:104A6800C9FE3B689B689B689B6878681946FFF796
:104A7800BDF8E7E17868FEF733FEE3E14FF00003A5
:104A880087F8B3303B685B681B78232B40F08A803B
:104A98003B685B685B681B7C87F8B33097F8B3307A
:104AA800012B7ADB062B02DD072B4DD075E03B6826
:104AB8009B681B78002B72D13B681B78362B04D17E
:104AC80078684FF02D01FEF755FE3B689B687868C3
:104AD8001946FFF7B7F897F8B330A3F10203042B90
:104AE80030D801A151F823F0054B0008114B0008FC
:104AF8001D4B00082D4B00083D4B000878684FF00F
:104B08007501FEF737FE1EE078684FF06C01FEF77E
:104B180031FE18E078684EF6C421C0F60101FEF7B0
:104B280069FE10E078684EF6C821C0F60101FEF76C
:104B380061FE08E078684EF6CC21C0F60101FEF768
:104B480059FE00E000BF7DE13B689B681B78002BA5
:104B580027D13B689B689B68012B22D13B681B7857
:104B6800352B1ED13B689B685B681B78302B02D0C5
:104B7800312B08D00FE078684EF6D021C0F601013D
:104B8800FEF738FE5EE178684EF6D821C0F60101DE
:104B9800FEF730FE56E100BF03E000BF02E000BFB1
:104BA80000E000BF78684FF02801FEF7E3FD3B689E
:104BB8005B6878681946FFF745F878684FF029016F
:104BC800FEF7D8FD3B681B78362B04D178684FF088
:104BD8002D01FEF7CFFD97F8B330082B04D1786884
:104BE8004FF05B01FEF7C6FD3B689B687868194685
:104BF800FFF728F897F8B330082B40F0228178683F
:104C08004FF05D01FEF7B6FD1BE13B685B68786815
:104C18001946FEF701FE15E178684EF6E021C0F668
:104C28000101FEF7E7FD3B685B6878681946FFF706
:104C380009F807E13B685B6878681946FFF702F8EE
:104C48003B689B6878681946FEF7FCFFFAE03B680A
:104C58005B68DBB278681946FEF78CFDF2E078688D
:104C68004EF6F021C0F60101FEF7C4FD3B685B6813
:104C780078681946FEF7E6FF78684FF02901FEF7D5
:104C880079FDDFE03B685B6878681946FEF7AAFEA5
:104C98000346C7F88830D7F88830002B0DD13B6819
:104CA8005B6878681946FEF7A1FF78684DF6FC61E5
:104CB800C0F60101FEF79EFDC4E0D7F88800FEF7B4
:104CC80073FF0346C7F884303B685B683B604FF06E
:104CD8000003C7F8AC301DE07B68D7F8AC20C3F8F8
:104CE800202178683968FEF7ADFFD7F8843003F1E2
:104CF800FF32D7F8AC309A4206DD78684EF6A42128
:104D0800C0F60101FEF776FDD7F8AC3003F10103D8
:104D1800C7F8AC30D7F8AC20D7F884309A42DBDB40
:104D280090E078684EF6FC21C0F60101FEF762FDBE
:104D38003B685B6803F1010378681946FEF76CFD70
:104D480078684FF07D01FEF715FD7BE078684EF638
:104D58000431C0F60101FEF74DFD3B685B687868D9
:104D68001946FEF76FFF6DE078684EF62431C0F6FD
:104D78000101FEF73FFD3B685B6878681946FEF75E
:104D880061FF5FE078684EF64431C0F60101FEF736
:104D980031FD3B685B6878681946FEF753FF786811
:104DA8004EF65031C0F60101FEF724FD3B689B68C2
:104DB80003F1010378681946FEF72EFD78684FF075
:104DC8007D01FEF7D7FC3DE078684EF65431C0F619
:104DD8000101FEF70FFD3B685B6803F1010378688A
:104DE8001946FEF719FD78684FF07D01FEF7C2FC01
:104DF80028E03B685B6878681946FEF723FF786807
:104E08004EF66431C0F60101FEF7F4FC3B689B687E
:104E180078681946FEF716FF78684FF05D01FEF7CF
:104E2800A9FC0FE07868FEF75BFC00BF0AE000BF52
:104E380008E000BF06E000BF04E000BF02E000BFDA
:104E480000E000BF07F1D407BD4690BD80B58AB029
:104E580000AFF860B9607A607B68BA68D3187B6184
:104E6800BB687B6271E07A697B6AD31A032B62DDC7
:104E78007B6A1B785F2B5ED17B6A03F101031B7889
:104E88005F2B58D17B6A03F102031B78552B52D153
:104E98004FF000033B627B6A03F10303FB6132E0DE
:104EA800FB691B782F2B09D9FB691B78392B05D88F
:104EB800FB691B78A3F13003BB611AE0FB691B781F
:104EC800402B09D9FB691B78462B05D8FB691B7851
:104ED800A3F13703BB610CE0FB691B78602B16D983
:104EE800FB691B78662B12D8FB691B78A3F1570363
:104EF800BB613B6A4FEA0312BB69D3183B62FB698B
:104F080003F10103FB61FA697B699A42C8D3FA6924
:104F18007B699A420FD2FB691B785F2B0BD13B6AE6
:104F2800FF2B08D83B6ADBB2F8681946FEF722FC6B
:104F3800FB697B6205E07B6A1B78F8681946FEF717
:104F480019FC7B6A03F101037B627A6A7B699A42E6
:104F580089D307F12807BD4680BD00BF80B588B05A
:104F680000AFF860B9607A60BB68002B00F0D280AF
:104F7800F868FEF7C3FB0346002B40F0CB80BB6804
:104F88009B68002B11D17B68002B16D1BB685B682E
:104F98001B781A2B09D0BB685B681B781B2B04D0C5
:104FA800BB685B681B781C2B07D1BB681B68F8685B
:104FB80019467A68FFF7D2FFADE0BB684FF00102EF
:104FC8009A60FB68D3F81431BB61BB68DA68FB6888
:104FD800C3F81421BB685B681B78252B0DD1BB680F
:104FE8005A68BB681B68F86811461A4600F082F9CF
:104FF800FB68BA69C3F814218DE0BB685B681B784D
:10500800262B0DD1BB685A68BB681B68F868114627
:105018001A4600F019FAFB68BA69C3F814217AE055
:10502800BB685B681B78022B62D1FB68D3F8183128
:105038007B61FB684FF00002C3F81821BB685B680E
:105048005B68F8681946FEF7FDFDFB687A69C3F8E6
:105058001821FB681B6803F00403002B07D1F868CC
:105068004EF67011C0F60101FEF7C4FB04E0F868C3
:105078004FF02E01FEF77EFBBB685B689B68FB6107
:10508800FB691B783F2B1DD1F8684EF67031C0F6CE
:105098000101FEF7AFFBFB699B6803F10103F868A8
:1050A8001946FEF7B9FBF8684EF68031C0F60101E3
:1050B800FEF7A0FBFB695B68FB6103E0FB695B68CB
:1050C800FB6100E000BFFB691B781A2BF6D0FB6977
:1050D8001B781B2BF2D0FB691B781C2BEED0F868D1
:1050E800F969FEF7AFFDFB68BA69C3F8142112E04D
:1050F800BB685B68F868194600F012F8FB68BA6983
:10510800C3F81421BB681B68F86819467A68FFF76A
:1051180025FF00E000BF07F12007BD4680BD00BFA6
:1051280080B582B000AF786039603B681B78A3F126
:105138000303262B00F2D38001A252F823F000BF0C
:10514800B3520008E7520008E7520008E752000887
:10515800E7520008E7520008E7520008E752000843
:10516800E7520008E7520008E7520008E752000833
:10517800E7520008E7520008E7520008E752000823
:10518800E7520008E7520008E7520008E752000813
:10519800E5510008F551000805520008E5510008DE
:1051A800F551000805520008155200082D52000854
:1051B8004552000851520008615200087152000817
:1051C800E7520008E7520008E7520008E7520008D3
:1051D80081520008E7520008C152000878684EF66C
:1051E8008431C0F60101FEF705FB7FE078684EF6D2
:1051F8009031C0F60101FEF7FDFA77E078684EF6C7
:105208009C31C0F60101FEF7F5FA6FE078684FF0BF
:105218002001FEF7AFFA3B689B6878681946FEF7ED
:1052280011FD63E07B681B6803F00403002B5CD16D
:1052380078684FF02A01FEF79DFA56E078684FF03B
:105248002601FEF797FA51E078684EF22821C0F659
:105258000101FEF7CFFA49E078684EF6A431C0F6AE
:105268000101FEF7C7FA41E078684EF6B031C0F6A2
:105278000101FEF7BFFA39E07868FEF7E7FA03465E
:10528800282B04D078684FF02001FEF773FA3B68AA
:105298005B6878681946FEF7D5FC78684EF6BC312D
:1052A800C0F60101FEF7A6FA20E03B685B68786863
:1052B8001946FEF7C7FC19E078684EF6C031C0F60B
:1052C8000101FEF797FA3B685B6878681946FEF7B4
:1052D800B9FC78684FF02901FEF74CFA06E07868C7
:1052E8003968FEF7AFFC00BF00E000BF07F1080710
:1052F800BD4680BD80B588B000AFF860B9607A60FF
:105308004FF00003FB614FF00003BB617B687B61DA
:1053180032E07B699B68002B32D17B695B681B7824
:10532800A3F11703102B1ED84FF0010202FA03F263
:1053380040F64743C0F201031340002B0CD102F49E
:105348006073002B04D102F03803002B0DD10AE062
:105358004FF00103FB6109E04FF00103BB614FF01F
:105368000103FB6102E000BF00E000BFFB69002B06
:1053780008D17B691B687B617B69002BC9D102E07E
:1053880000BF00E000BFFB69002B24D0BB69002BE5
:105398000ED1F868FEF75AFA0346282B08D0F868A9
:1053A800FEF754FA03462A2B02D04FF00103BB61E3
:1053B800BB69002B0AD0F868FEF748FA0346202B91
:1053C80004D0F8684FF02001FEF7D4F9F8684FF0E0
:1053D8002801FEF7CFF9FB68D3F818313B61FB6869
:1053E8004FF00002C3F81821F86879684FF00002FE
:1053F800FFF7B4FDFB69002B04D0F8684FF02901D2
:10540800FEF7B8F9F8684FF02801FEF7B3F9BB6862
:105418009B68002B05D0BB689B68F8681946FEF7A7
:1054280011FCF8684FF02901FEF7A4F9F8687968CB
:105438004FF00102FFF792FDFB683A69C3F81821A3
:1054480007F12007BD4680BD80B588B000AFF86081
:10545800B9607A604FF00103FB617B68002B37D09D
:105468004FF00003BB617B687B6116E07B699B683A
:10547800002B0FD17B695B681B78262B03D14FF07B
:105488000003FB610CE04FF00103BB614FF0010327
:10549800FB6105E07B691B687B617B69002BE5D1BB
:1054A800BB69002B06D0F8684EF6CC31C0F6010176
:1054B800FEF7A0F9F86879684FF00002FFF74EFD93
:1054C800BB69002B04D0F8684FF02901FEF752F9A8
:1054D800FB69002B04D0F8684FF02001FEF74AF969
:1054E800F8684FF05B01FEF745F9BB685B68002B75
:1054F80005D0BB685B68F8681946FEF7A3FBF86837
:105508004FF05D01FEF736F907F12007BD4680BD73
:1055180080B582B000AF786039603B681B782C2B6F
:105528000BD13B685B685A683B685B689B68786826
:1055380011461A46FEF740F903E078683968FEF725
:1055480081FB07F10807BD4680BD00BF80B586B066
:1055580000AF786039603B685B681B78042B06D025
:105568003B685B6878681946FEF76CFB4AE07B6825
:10557800D3F818317B617B684FF00002C3F818211B
:105588007B68D3F81431FB607B6807F10C02C3F821
:1055980014213B685B683B613B685B685B687868C3
:1055A8001946FEF74FFBFA687B68C3F81421786840
:1055B800FEF74CF903463C2B04D178684FF02001E4
:1055C800FEF7D8F878684FF03C01FEF7D3F83B684F
:1055D8005B689B6878681946FEF734FB7868FEF7C5
:1055E80035F903463E2B04D178684FF02001FEF7C9
:1055F800C1F878684FF03E01FEF7BCF87B687A691D
:10560800C3F8182107F11807BD4680BD80B485B0DE
:1056180000AFF860B9607A603B603B68FA681A606E
:10562800FA687B68D2183B685A603B68BA689A6027
:105638003B68FA68DA607B684FEA43031A463B68BE
:105648009A613B684FF000025A617A683B685A6277
:105658003B684FF000021A623B684FF000029A6202
:105668003B684FF00002DA623B684FF000021A63B1
:1056780007F11407BD4680BC704700BF2DE9F04F05
:1056880099B000AFF860B9607A603B60FB681B783E
:105698005F2B0AD1FB6803F101031B785A2B04D155
:1056A8004FF0010387F85F3049E0F8684EF2F011D7
:1056B800C0F601014FF0080202F098FD0346002BE6
:1056C80031D1FB6803F108031B782E2B0BD0FB6844
:1056D80003F108031B785F2B05D0FB6803F108036F
:1056E8001B78242B1FD1FB6803F109031B78442B7B
:1056F80005D0FB6803F109031B78492B13D1FB681C
:1057080003F10A031B785F2B0DD1FB6803F1090332
:105718001B78492B02D14FF0020301E04FF003033D
:1057280087F85F300BE0BB6803F01003002B02D151
:105738004FF00003F6E04FF0000387F85F30F86899
:1057480002F024FD024607F11003F868B968FFF774
:105758005DFF6B461E46BD6A05F1FF337B652B4630
:1057680018464FF000014FF0600303FB01F24FF0C1
:10577800000303FB00F3D4184FF06003A0FB0323DE
:10578800E1180B462A4613464FEA43039B184FEA93
:1057980083032B4618464FF000014FF0600303FBCC
:1057A80001F24FF0000303FB00F3D4184FF060033D
:1057B800A0FB0323E1180B462A4613464FEA43038E
:1057C8009B184FEA830303F1070303F107034FEA2A
:1057D800D3034FEAC303ADEB030D6B4603F1070395
:1057E8004FEAD3034FEAC3033B65786B00F1FF33FD
:1057F800FB6401460A464FF000034FEAD2614FEAC4
:10580800431B41EA0B0B4FEA421A01460A464FF086
:1058180000034FEAD2614FEA431941EA09094FEA06
:10582800421803464FEA830303F1070303F1070312
:105838004FEAD3034FEAC303ADEB030D6B4603F105
:1058480007034FEAD3034FEAC303BB643B6D3B62D4
:10585800BB6CFB6297F85F30032B46D801A252F865
:1058680023F000BF7D5800088D580008A158000893
:10587800A158000807F110031846FCF7B9F80346C9
:10588800BB6532E007F1100318464FF00101FAF743
:1058980079FF0346BB6528E0FB6903F10B03FB6155
:1058A80097F85F30022B02D14FF03C0401E04FF033
:1058B8003D04FB6907F1100210461946FAF716FE77
:1058C800034607F11002104621461A464FF000031E
:1058D800FAF740FD0346BB65FC69FB69184602F010
:1058E80055FC0346E318FB6100BFBB6803F00103E6
:1058F800DBB2002B06D0FB691B78002B02D04FF0DF
:105908000003BB65BB6D002B07D0B868B96D7A681A
:105918003B68FDF7A9FF034601E04FF000037B64F5
:10592800B5467B6C184607F16407BD46BDE8F08FA5
:1059380080B58AB000AFF860B9607A6007F11403E7
:1059480018464FF00001FDF7DBFD07F11403F86876
:10595800B96843F25962C0F60002FFF78FFE0346AA
:105968007B627B6A002B0AD17B69184601F038FB01
:105978007B684FF000021A604FF0000309E03B6AB1
:10598800002B01D1FB6901E04FF001037A68136035
:105998007B69184607F12807BD4680BD80B586B0EB
:1059A80000AFF860B9607A603B60FB68002B09D1F2
:1059B8003B68002B03D03B686FF002021A604FF07F
:1059C800000358E0BB68002B0CD07B68002B09D182
:1059D8003B68002B03D03B686FF002021A604FF05F
:1059E800000348E007F11003F8684FF011011A4668
:1059F800FFF79EFF03467B617B69002B11D13B6853
:105A0800002B0BD03B69012B04D13B684FF0FF32D0
:105A18001A6003E03B686FF001021A604FF0000360
:105A280029E0BB68002B06D17B68002B1BD03A69A4
:105A38007B681A6017E0786902F0A8FB02467B6869
:105A48001B689A4209D2B868796902F041FB786903
:105A580001F0C6FABB687B6105E0B86801F0C0FADE
:105A68003A697B681A603B68002B03D03B684FF0AB
:105A780000021A607B69184607F11807BD4680BD09
:105A880080B586B000AFF860B9607A60FB68002B1B
:105A980002D0BB68002B02D16FF0020310E0F86857
:105AA8004FF01101BA687B68FFF7E8FD03467B6198
:105AB8007B69002B02D16FF0010301E04FF0000376
:105AC800184607F11807BD4680BD00BF036803B13B
