:020000040800F2
:100000000000022099C60208D5E00108E1E00108DD
:10001000E9E00108F1E00108F9E001080000000052
:1000200000000000000000000000000089620108DC
:1000300001E101080000000095630108ED6301087B
:10004000F1C60208F1C60208F1C60208F1C60208AC
:10005000F1C60208F1C6020861E101080DE10108DC
:10006000F1C60208F1C60208F1C6020809A200089A
:10007000F1C60208F1C60208F1C60208F1C602087C
:10008000F1C60208F1C60208F1C60208F1C602086C
:10009000F1C60208F1C60208F1C60208F1C602085C
:1000A000F1C60208F1C60208F1C60208F1C602084C
:1000B000F1C60208F1C60208F1C60208F1C602083C
:1000C000F1C60208F1C60208F1C60208F1C602082C
:1000D000F1C60208F1C60208F1C60208F1C602081C
:1000E000F1C60208F1C60208F1C60208F1C602080C
:1000F000F1C60208F1C60208F1C60208FDA1000817
:10010000F1C60208F1C60208F1C6020815A20008ED
:10011000F1C60208F1C60208F1C60208F1C60208DB
:10012000F1C60208F1C60208F1C60208F1C60208CB
:10013000F1C60208F1C60208F1C60208F1C60208BB
:10014000F1C60208F1C60208F1C60208BDE10108C5
:10015000F1C60208F1C60208F1C60208F1C602089B
:10016000F1C60208F1C60208F1C60208F1C602088B
:10017000F1C60208F1C60208F1C60208F1C602087B
:08018000F1C60208F1C60208F5
:1001880010B5054C237833B9044B13B10448AFF3C9
:1001980000800123237010BDB80900200000000072
:1001A800FC5E030808B5064B1BB106480649AFF3C9
:1001B80000800648036813B1054B03B1984708BD92
:1001C80000000000FC5E0308BC090020B8090020FC
:1001D8000000000080B485B000AF78604FF00003E5
:1001E800FB607B68DB684FF0FF325A607B68DB6836
:1001F8004FF0FF325A61FB6843F00043FB60FB6835
:1002080043F40063FB607B68DB68FA689A6107F176
:100218001407BD4680BC704780B586B000AF7860D3
:100228004FF00003FB744FF000037B614FF00003B5
:10023800FB604FF0030018F01DFB7B68DB681B694F
:10024800FB607B6903F101037B617A694FF45463B6
:10025800C0F203039A4202D94FF000032AE0FB6878
:1002680003F00043002BE4D04FF000037B61FB68F0
:1002780043F00103FB607B68DB68FA681A617B68FE
:10028800DB681B69FB607B6903F101037B617A69A9
:100298004FF45463C0F203039A4205D8FB6803F095
:1002A8000103002BEBD100E000BF4FF0030018F072
:1002B800E1FAFB7C184607F11807BD4680BD00BF70
:1002C80080B489B000AFF860B960FA71BB804FF0B4
:1002D8000003FB76FB68DB78002B2DD14FF0000381
:1002E8007B614FF00003FB61BB8803F1030303F15B
:1002F8000302002BB8BF13464FEAA3037B61FB79C7
:10030800FA6803F132034FEA8303D3189B683B6111
:100318004FF00003FB610BE0BB681A683B691A6089
:10032800FB6903F10103FB61BB6803F10403BB60D4
:10033800FA697B699A42EFD3FB7E184607F12407D6
:10034800BD4680BC704700BF80B489B000AFF8607C
:10035800B9601346FB804FF00003FB61FB8803F193
:10036800030303F10302002BB8BF13464FEAA303AC
:10037800BB61FB68D3F8D0307B614FF00003FB61B1
:100388000BE07B691A68BB681A60FB6903F101031B
:10039800FB61BB6803F10403BB60FA69BB699A425D
:1003A800EFD3BB68184607F12407BD4680BC7047E9
:1003B80080B487B000AF78600B46FB704FF0000345
:1003C8003B614FF00003FB737B684FF00002DA706B
:1003D8007B684FF001029A707B684FF040029A8068
:1003E800FB78012B17D14FF0A0433B617B684FF09E
:1003F8000102DA727B684FF008021A707B684FF0CE
:1004080004025A707B684FF4A072DA807B684FF060
:1004180002021A721FE0FB78002B1CD14FF0000378
:10042800C4F204033B617B684FF00002DA727B6818
:100438004FF00C021A707B684FF006025A707B6806
:100448004FF4A062DA807B684FF002021A727B6870
:100458004FF00102DA703A697B68DA603B6903F5AC
:1004680000631A467B681A614FF000037B6123E042
:100478007B694FEA43123B69D31803F510631A46A8
:1004880079687B6903F104034FEA8303CB189A6008
:100498007B694FEA43123B69D31803F530631A4668
:1004A80079687B6903F114034FEA8303CB185A6018
:1004B8007B6903F101037B617B685B781A467B6982
:1004C8009A42D5D83B6903F580631A467B685A611E
:1004D8003B6903F588631A467B68C3F8CC204FF064
:1004E80000037B6113E07B694FEA43123B69D31831
:1004F80003F5A0631A4679687B6903F122034FEA82
:100508008303CB189A607B6903F101037B617B68E5
:100518001B781A467B699A42E5D84FF000037B6145
:1005280013E07B694FEA03323B69D31803F5805324
:100538001A4679687B6903F132034FEA8303CB18C3
:100548009A607B6903F101037B617B681B781A461B
:100558007B699A42E5D83B6903F560631A467B6874
:10056800C3F80C21FB7B184607F11C07BD4680BC6D
:10057800704700BF80B588B000AF78604FF00003C7
:10058800FB774FF00003BB614FF000037B614FF036
:100598000003FB607B681B7A012B55D17B68DB6805
:1005A8009B6B7B617B696FF310437B617B685B7A34
:1005B800002B03D07B6943F480137B617B68DB6885
:1005C8007A699A634FF00003BB617B68DB68DB687C
:1005D800BB61BB696FF38613BB61BB6943F48013CE
:1005E800BB61BB696FF39653BB61BB6943F01003F2
:1005F800BB61BB696FF3C303BB61BB696FF3C7130F
:10060800BB61BB696FF35143BB61BB696FF3D343F4
:10061800BB617B68DB68BA69DA607868FFF7FCFD64
:100628007B68DB78012B40F08980FB684FF005027E
:1006380062F34403FB60FB6843F02003FB607B68C4
:10064800DB68FA689A6079E07B68DB68DB68BB6125
:10065800BB6943F04003BB617B68DB68BA69DA6059
:100668007868FFF7D9FD4FF000037B617B6943F49D
:1006780080337B617B681B7A032B03D17B6943F44E
:1006880000337B617B6943F480237B617B6943F49E
:1006980000237B617B6943F400137B617B685B7A91
:1006A800002B03D07B6943F480137B617B68DB6894
:1006B8007A699A634FF0140018F008F97B68DB68D0
:1006C800DB68BB617B681B7A032B03D1BB6943F4EE
:1006D8008033BB617B68DB68BA69DA607B681B7A48
:1006E800032B2BD17B68DB681B6B3B613B694FF0AD
:1006F800010262F39B633B613B696FF3D7533B6134
:100708003B6943F080533B613B694FF02D0262F334
:1007180016433B617B68DB683A691A634FF0C8008F
:1007280018F0D4F83B6943F400033B617B68DB684D
:100738003A691A634FF0C80018F0C8F87B68DB788C
:10074800012B11D17B68DB689B68FB60FB684FF06D
:10075800050262F34403FB60FB6843F02003FB607F
:100768007B68DB68FA689A60FB7F184607F1200708
:10077800BD4680BD80B485B000AF78604FF00003FF
:10078800FB734FF00003BB60BB6843F00103BB6021
:100798007B68DB687A68D26892681146BA680A434F
:1007A8009A60FB7B184607F11407BD4680BC70476A
:1007B80080B485B000AF78604FF00003FB734FF052
:1007C8000003BB60BB6843F00103BB607B68DB6868
:1007D8007A68D26892681146BA686FEA02020A40DB
:1007E8009A60FB7B184607F11407BD4680BC70472A
:1007F80080B586B000AF786039604FF00003FB74B5
:100808004FF000037B614FF00003FB60FB6843F08F
:100818002003FB603B68DBB203F01F03DAB2FB681E
:1008280062F38A13FB607B68DB68FA681A617B688D
:10083800DB681B69FB607B6903F101037B617A69F3
:100848004FF45463C0F203039A4205D8FB6803F0DF
:100858002003002BEBD100E000BF4FF0030018F09D
:1008680009F8FB7C184607F11807BD4680BD00BF94
:1008780080B586B000AF78604FF00003FB744FF08E
:1008880000037B614FF00003FB60FB6843F010033B
:10089800FB607B68DB68FA681A617B68DB681B6948
:1008A800FB607B6903F101037B617A694FF4546350
:1008B800C0F203039A4205D8FB6803F01003002B2B
:1008C800EBD100E000BF4FF0030017F0D3FFFB7C33
:1008D800184607F11807BD4680BD00BF80B584B033
:1008E80000AF78600B46FB704FF00003FB737B682A
:1008F800DB68DB68BB60BB686FF35D73BB60BB68BC
:100908006FF39E73BB60FB78012B04D1BB6843F087
:100918000053BB6006E0FB78002B03D1BB6843F0B3
:100928008043BB607B68DB68BA68DA604FF03200EE
:1009380017F0CCFFFB7B184607F11007BD4680BDBA
:1009480080B483B000AF78607B68DB685B6903F0D4
:100958000103184607F10C07BD4680BC704700BF6D
:1009680080B582B000AF78607868FFF7E9FF03468A
:10097800012B0CBF00230123DBB2184607F108073F
:10098800BD4680BD80B582B000AF78607868FFF75B
:10099800D7FF0346012B14BF00230123DBB21846FF
:1009A80007F10807BD4680BD80B485B000AF786008
:1009B8004FF00003FB607B68DB685B69FB607B686A
:1009C800DB689B69FA681340FB60FB68184607F10F
:1009D8001407BD4680BC704780B483B000AF786010
:1009E8007B68DB685B68184607F10C07BD4680BC6E
:1009F800704700BF80B588B000AF78604FF0000343
:100A0800FB764FF00003FB614FF000037B614FF072
:100A180000033B614FF00003FB60786817F0F8FEB5
:100A28007B68D3F80C314FF000021A6078684FF0F9
:100A3800010100F01DF97B685B691B68FB60FB68BE
:100A48006FF38203FB607B685B69FA681A607B68F6
:100A5800DB7A012B19D17B68DB684FF080025A6280
:100A68004FF08003BB824FF06003FB827B68DB683A
:100A78007A699A624FF0E0033B824FF060037B8211
:100A88007B68DB683A69C3F800217B68DB7A002B56
:100A980019D17B68DB684FF400725A624FF4007317
:100AA800BB824FF48073FB827B68DB687A699A6249
:100AB8004FF440733B824FF480737B827B68DB6822
:100AC8003A69C3F8002178684FF01001FFF790FEEB
:100AD8007868FFF7CDFE4FF00003FB6119E07A68F4
:100AE800FB6903F122034FEA8303D3189B684FF095
:100AF800FF329A607A68FB6903F122034FEA8303A5
:100B0800D3189B684FF00002DA60FB6903F1010318
:100B1800FB617B681B781A46FB699A42DFD87868C4
:100B28004FF0010100F01EF8786800F05BF8FB7EDA
:100B3800184607F12007BD4680BD00BF80B483B0CA
:100B480000AF78607B685B699B6803F00103002B4A
:100B580014BF00230123DBB2184607F10C07BD467A
:100B680080BC704780B584B000AF78600B46FB70DE
:100B78004FF00003FB60FB787868194617F02AFEEF
:100B8800786800F091F80346FB607B7B03F0100364
:100B9800DBB2002B0BD1FB78012B08D1FB6843F4A7
:100BA8008053FB607B68D3F8CC30FA681A607B7B93
:100BB80003F01003DBB2002B0BD0FB78002B08D11D
:100BC800FB686FF30C33FB607B68D3F8CC30FA68B2
:100BD8001A604FF0C80017F079FE07F11007BD46FC
:100BE80080BD00BF80B584B000AF78604FF00003CF
:100BF800FB734FF00003BB607B68DB684FF00002BB
:100C08009A617B68DB684FF0FF325A617868FFF7BA
:100C1800E1FA7B68DB78002B03D1BB6843F0100353
:100C2800BB60BB6843F08073BB60BB6843F0007374
:100C3800BB60BB6843F00053BB60BB6843F008036C
:100C4800BB60BB6843F40013BB607B68DB687A68F1
:100C5800D26892691146BA686FEA02021140BA680E
:100C68000A439A61FB7B184607F11007BD4680BD11
:100C780080B485B000AF78600B46FB707B685B6919
:100C88001B68FB60FB7803F00303DAB2FB6862F3CE
:100C98000103FB607B685B69FA681A6007F1140757
:100CA800BD4680BC704700BF80B485B000AF786097
:100CB8007B68D3F8CC301B68FB60FB686FF382035A
:100CC800FB60FB686FF34103FB60FB686FF3C303D2
:100CD800FB60FB686FF34513FB60FB68184607F180
:100CE8001407BD4680BC704780B483B000AF7860FD
:100CF8007B685B695B69184607F10C07BD4680BCD9
:100D0800704700BF80B584B000AF78607868FFF79F
:100D1800CBFF0346FB60FB6843F48073FB607B6892
:100D2800D3F8CC30FA681A604FF00A0017F0CEFDFD
:100D3800FB686FF30823FB607B68D3F8CC30FA6854
:100D48001A604FF0140017F0C1FD4FF00103184668
:100D580007F11007BD4680BD80B489B000AF786048
:100D68000B46FB704FF00003FB774FF00003BB61AD
:100D78004FF000033B614FF000037B614FF000032D
:100D8800FB604FF0FF33BB60FB787A6803F1220306
:100D98004FEA8303D3189B68BA689A604FF0000340
:100DA8007B617B68DB78012B03D17B6943F004030B
:100DB8007B61FB787A684FEA4313D31803F52A73EB
:100DC8005B7A032B00F28D8001A252F823F000BF5A
:100DD800E90D0008A30E0008E90D0008550E0008EB
:100DE8007B6943F001037B617B6943F008037B6106
:100DF8007B6943F080037B617B6943F480637B619B
:100E08007B6943F010037B61FB787A684FEA4313F0
:100E1800D31803F52A739B79002B04D07B6943F41C
:100E280080737B6158E07B6943F040037B61FB780A
:100E38007A684FEA4313D31803F52A731B7A002BF9
:100E48004AD07B6943F020037B6145E07B6943F02E
:100E580001037B617B6943F010037B617B6943F08D
:100E680008037B617B6943F080037B617B6943F402
:100E780080637B617B6943F400737B61FB787A68EC
:100E88004FEA4313D31803F52A739B79002B25D017
:100E98007B6943F480737B6120E07B6943F0010345
:100EA8007B617B6943F400737B617B6943F02003BA
:100EB8007B61FB787A684FEA4313D31803F52A73EA
:100EC8009B79002B0CD07B6943F080037B617B69A5
:100ED80043F480737B6103E000BF02E000BF00E0E1
:100EE80000BFFB787A6803F122034FEA8303D31823
:100EF8009B687A69DA60FB784FF0010202FA03F323
:100F0800BB617B685B697A68526992691146BA6904
:100F18000A439A613B6943F000733B617B68DB6875
:100F28007A68D268926911463A690A439A614FF021
:100F38000003FB60FB787A684FEA4313D31803F584
:100F48002A731B7903F07F03DAB2FB6862F39C53C0
:100F5800FB60FB787A684FEA4313D31803F52A73CA
:100F68005B7903F00F03DAB2FB6862F3CE23FB6010
:100F7800FB787A684FEA4313D31803F52A739B79F1
:100F880003F00103DAB2FB6862F3CF33FB60FB784E
:100F98007A684FEA4313D31803F52A73DB79022BD7
:100FA80014BF00230123DAB2FB6862F35143FB60EC
:100FB800FB787A684FEA4313D31803F52A735B7AF0
:100FC80003F00303DAB2FB6862F39343FB60FB7838
:100FD8007A684FEA4313D31803F52A735B894FEAFB
:100FE80043534FEA53539AB2FB6862F30A03FB6018
:100FF800FB787A684FEA4313D31803F52A735B7AB0
:10100800032B03D1FB6843F00053FB60FB787A683D
:1010180003F122034FEA8303D3189B68FA681A6026
:10102800FB7F184607F12407BD4680BC704700BF08
:1010380080B58AB000AF78600B46FB704FF00003B4
:1010480087F825304FF000037B844FF480733B848E
:101058004FF00003BB614FF00003FB614FF000034A
:10106800FB60FB787A684FEA4313D31803F52F73B4
:101078001B68002B37D0FB787A684FEA4313D318E4
:1010880003F52F731A68FB7879684FEA4313CB1876
:1010980003F52A735B89D31803F1FF32FB7879686B
:1010A8004FEA4313CB1803F52A735B89B2FBF3F3BA
:1010B800FB84FA8C3B8C9A4218D93B8CFB84FB78D6
:1010C800FA8CF97878684FEA4111411801F52A71CC
:1010D800498901FB02F279684FEA4313CB1803F5FB
:1010E8002F731A6002E04FF00103FB84FB787A68E3
:1010F8004FEA4313D31803F52A739B79002B12D0B8
:10110800FB78FA8CF97878684FEA4111411801F5B3
:101118002A71498901FB02F279684FEA4313CB1817
:1011280003F52F731A60FB787A684FEA4313D318D4
:1011380003F52F731B6823F07F4222F47802BB6902
:1011480062F31203BB61FB8C4FEA83534FEA93535C
:101158009AB2BB6962F3DC43BB61FB787A6803F13E
:101168000D034FEA4313D31803F588731B7903F073
:101178000303DAB2BB6962F35E73BB61FB787A681A
:1011880003F122034FEA8303D3189B68BA691A61F3
:101198007B68DB78012B12D1FB787A6803F1220394
:1011A8004FEA8303D3189B68FA78796802F10D0235
:1011B8004FEA42128A1802F58C7212685A61FB785B
:1011C8007A6803F122034FEA8303D3189B681B68EC
:1011D800FB617868FFF7B2FC034603F00103DAB25B
:1011E800FB6962F35D73FB61FB6943F00043FB61DC
:1011F800FB696FF39E73FB61FB787A6803F1220346
:101208004FEA8303D3189B68FA691A607B68DB7816
:10121800002B40F08D80FB787A684FEA4313D3188F
:1012280003F52A739B79002B40F08280FB787A685B
:101238004FEA4313D31803F52F731B68002B77D09D
:10124800FB787A684FEA4313D31803F52A735B7A5D
:10125800032B51D801A252F823F000BF75120008E1
:10126800BB12000875120008BB1200087B68DB6817
:10127800DB6A7B61FB787A684FEA4313D31803F57E
:101288002F731B6803F103034FEA93037B84BB8A24
:101298007A8C9A4232D9FB6843F02003FB607B6862
:1012A800DB687A68D26892691146FA680A439A61DB
:1012B80024E07B685B691B693B61FB787A684FEACD
:1012C8004313D31803F52F731B6803F103034FEA85
:1012D80093037B843B8A7A8C9A4211D9FB6843F04A
:1012E8008063FB607B68DB687A68D2689269114624
:1012F800FA680A439A6103E000BF02E000BF00E019
:1013080000BFFB787A6803F10D034FEA4313D31843
:1013180003F58C731968FB787A684FEA4313D3187E
:1013280003F52F731B689BB2FA787868FEF7C8FF3D
:1013380097F82530184607F12807BD4680BD00BF3D
:1013480080B487B000AF78600B46FB704FF00003A5
:10135800FB754FF000033B614FF00003FB60FB7827
:101368007A6803F122034FEA8303D3189B681B684A
:10137800BB60BB6843F00043BB60BB6843F080437D
:10138800BB60BB7A03F00C03DBB2002B05D0BB7A41
:1013980003F00C03DBB2082B0BD17B68DB68DB6A3C
:1013A8003B61BB7C002B0FD1BB686FF3DF73BB6065
:1013B8000AE07B685B691B69FB60BB7B002B03D180
:1013C800BB686FF3DF73BB60FB787A6803F12203B5
:1013D8004FEA8303D3189B68BA681A60FB7D1846E6
:1013E80007F11C07BD4680BC704700BF80B487B0BA
:1013F80000AF78600B46FB704FF00003FB754FF0B1
:101408000003FB60FB6843F00043FB60FB684FF0A0
:10141800010262F3DC43FB60FB787A6803F1220384
:101428004FEA8303D3189B68FA681A61FB787A68D5
:1014380003F122034FEA8303D3189B681B683B61BF
:101448003B6943F000433B613B696FF39E733B612B
:10145800FB787A6803F122034FEA8303D3189B6869
:101468003A691A60FB7D184607F11C07BD4680BC27
:10147800704700BF80B584B000AF78607B685B6957
:101488004FF000029A617B685B694FF0FF325A6146
:101498004FF00003FB6023E07A68FB6803F1220346
:1014A8004FEA8303D3189B681B68BB60BB686FF364
:1014B800DF73BB60BB6843F08043BB60BB686FF3FE
:1014C800CF33BB607A68FB6803F122034FEA8303DA
:1014D800D3189B68BA681A60FB6803F10103FB60C4
:1014E8007B681B781A46FB689A42D5D87868FFF75C
:1014F800BFF978684FF01001FFF77AF907F1100784
:10150800BD4680BD80B584B000AF78600B46FB70E7
:101518004FF00003FB737B684FF00002C3F8102202
:101528004FF00003FB731CE0FB7B7A6803F1840334
:101538004FEA8303D3184FF000025A60FA7B7B68A6
:1015480002F194024FF0000143F82210FB7B7A6805
:10155800D3184FF0000283F88C22FB7B03F10103C0
:10156800FB73FB7B0E2BDFD97B684FF00802A3F8D7
:10157800B222FB7878681946FEF71AFF7868FFF7F9
:1015880017F97868FEF7F6FF78684FF00101FFF762
:10159800A5F97868FFF72EFA7868FFF7EBF84FF0AF
:1015A8000003184607F11007BD4680BD80B485B01A
:1015B80000AF78607B68D3F8CC301B68FB60FB68B1
:1015C800C3F34143DBB2184607F11407BD4680BC9C
:1015D800704700BF80B582B000AF78607868FFF7C9
:1015E80091FB4FF00003184607F10807BD4680BD80
:1015F80080B483B000AF78607B68D3F810321846A7
:1016080007F10C07BD4680BC704700BF80B483B0AB
:1016180000AF78607B685B699B684FEA03434FEAD9
:101628001343184607F10C07BD4680BC704700BF3E
:1016380080B483B000AF78600B46FB70FB787A68A3
:10164800D31893F89B32DBB2184607F10C07BD4656
:1016580080BC704780B483B000AF78600B46FB70E5
:10166800FA787B6802F1940253F82230184607F1A1
:101678000C07BD4680BC704780B483B000AF78606B
:101688000B46FB70FB787A68D31893F88C32DBB280
:10169800184607F10C07BD4680BC704780B582B07C
:1016A80000AF78600B46FB70FB7878681946FFF747
:1016B80053FB0346184607F10807BD4680BD00BF27
:1016C80080B582B000AF78600B46FB70FB787A6813
:1016D800D3184FF0000283F89B22FB787A684FEA10
:1016E8004313D31803F530734FF000021A60FB78E8
:1016F80078681946FFF79CFC0346184607F1080767
:10170800BD4680BD80B584B000AF78604FF000035F
:10171800FB604FF00003BB607868FFF733F90346BE
:10172800002B72D07868FFF73FF90346BB60BB68AF
:10173800002B02D14FF0000368E03B7A03F0080366
:10174800DBB2002B06D0786800F0B4F80346FA68DC
:101758001343FB603B7A03F01003DBB2002B06D087
:10176800786801F007F90346FA681343FB603B7A8F
:1017780003F02003DBB2002B06D0786800F0D4F821
:101788000346FA681343FB60FB7A03F00403DBB2F9
:10179800002B06D0786800F09FF90346FA681343D7
:1017A800FB60FB7A03F00203DBB2002B06D07868FB
:1017B80000F032F80346FA681343FB60FB7A03F043
:1017C8000103DBB2002B06D0786800F05DFA03460F
:1017D800FA681343FB60FB7A03F02003DBB2002BAB
:1017E80006D0786800F07EF80346FA681343FB6079
:1017F800BB7A03F02003DBB2002B06D0786801F037
:101808009FF90346FA681343FB60FB68184607F123
:101818001007BD4680BD00BF80B586B000AF7860B8
:101828004FF000037B614FF000033B617868FFF7DE
:101838005BFA0346FB604FF000037B612EE0BB8937
:101848001A467B6942FA03F303F00103DBB2002B6B
:1018580020D07A687B6903F122034FEA8303D31807
:101868009B681B68BB607B7A23F07F03DBB2002B8D
:1018780008D07868796900F077FD03463A69134320
:101888003B6107E07868796900F0BEFA03463A6977
:1018980013433B617B6903F101037B617B681B7820
:1018A8001A467B699A42CAD83B69184607F1180755
:1018B800BD4680BD80B485B000AF78604FF00003AE
:1018C800FB60FB6843F00803FB607B68DB68FA6831
:1018D8005A614FF00103184607F11407BD4680BC52
:1018E800704700BF80B584B000AF78607B684FF068
:1018F8000002C3F810224FF00003FB607B68D3F8A6
:10190800AC341B6878689847FB6843F00053FB6069
:101918007B68DB68FA685A614FF00103184607F1E3
:101928001007BD4680BD00BF80B586B000AF7860A7
:101938007B68DB68DB6AFB60FB68C3F34173DBB27F
:101948007A684FEA4313D31803F52F731B6803F122
:1019580003034FEA9303FB82A5E0BB894FEA8303A5
:10196800BB82BA8AFB68C3F34173DBB279684FEA7A
:101978004313CB1803F52F731B689A421DD9FB68D4
:10198800C3F34173DBB27A684FEA4313D31803F504
:101998002F731B68BB824FF000033B613B6943F028
:1019A80020033B617B68DB687A68D26892691146DC
:1019B8003A696FEA02020A409A61FB68C3F341730D
:1019C800DBB27A684FEA4313D31803F52F731B6809
:1019D80003F103034FEA9303FB82FB68C3F34173EC
:1019E800DBB27A6803F10D034FEA4313D31803F50A
:1019F8008C731968FB68C3F34173DBB21A46BB8A60
:101A08007868FEF75DFCFB68C3F34173DBB2FA68E4
:101A1800C2F34172D2B2796802F10D024FEA421262
:101A28008A1802F58C721168BA8A8A18796803F1E3
:101A38000D034FEA4313CB1803F58C731A60FB6848
:101A4800C3F34173DBB2FA68C2F34172D2B2796868
:101A58004FEA42128A1802F52F721168BA8A8A1A56
:101A680079684FEA4313CB1803F52F731A60FB68A4
:101A7800C3F34173DBB2FA68C2F34172D2B2796838
:101A88004FEA42128A1802F530721168BA8A8A1827
:101A980079684FEA4313CB1803F530731A607B68F3
:101AA800DB68DB6AFB60BB89FA8A9A420DD2FB6865
:101AB800C3F34173DBB27A684FEA4313D31803F5D3
:101AC8002F731B68002B7FF448AF4FF001031846B3
:101AD80007F11807BD4680BD80B586B000AF7860B5
:101AE8007B685B691B69FB60FB68C3F34173DBB20E
:101AF8007A684FEA4313D31803F52F731B6803F171
:101B080003034FEA9303FB82A5E0BB894FEA8303F3
:101B1800BB82BA8AFB68C3F34173DBB279684FEAC8
:101B28004313CB1803F52F731B689A421DD9FB6822
:101B3800C3F34173DBB27A684FEA4313D31803F552
:101B48002F731B68BB824FF000033B613B6943F076
:101B580080633B617B68DB687A68D268926911466A
:101B68003A696FEA02020A409A61FB68C3F341735B
:101B7800DBB27A684FEA4313D31803F52F731B6857
:101B880003F103034FEA9303FB82FB68C3F341733A
:101B9800DBB27A6803F10D034FEA4313D31803F558
:101BA8008C731968FB68C3F34173DBB21A46BB8AAE
:101BB8007868FEF785FBFB68C3F34173DBB2FA680C
:101BC800C2F34172D2B2796802F10D024FEA4212B1
:101BD8008A1802F58C721168BA8A8A18796803F132
:101BE8000D034FEA4313CB1803F58C731A60FB6897
:101BF800C3F34173DBB2FA68C2F34172D2B27968B7
:101C08004FEA42128A1802F52F721168BA8A8A1AA4
:101C180079684FEA4313CB1803F52F731A60FB68F2
:101C2800C3F34173DBB2FA68C2F34172D2B2796886
:101C38004FEA42128A1802F530721168BA8A8A1875
:101C480079684FEA4313CB1803F530731A607B6841
:101C58005B691B69FB60BB89FA8A9A420DD2FB68F3
:101C6800C3F34173DBB27A684FEA4313D31803F521
:101C78002F731B68002B7FF448AF4FF00103184601
:101C880007F11807BD4680BD80B588B000AF786001
:101C98004FF00003FB614FF00003BB614FF00003FE
:101CA800FB604FF000037B614FF000033B617B68F2
:101CB800D3F8CC301B687B617B68D3F8CC301B68C9
:101CC8003B613B696FF382033B613B696FF34103FF
:101CD8003B613B696FF3C3033B613B696FF345139A
:101CE8003B613B7D03F00203DBB2002B10D07B6825
:101CF800D3F8AC345B68786898473B6943F00203D3
:101D08003B614FF00103FB61BB6943F00103BB6119
:101D18003B7D03F00803DBB2002B55D03B6943F051
:101D280008033B613B7D03F00403DBB2002B4BD07F
:101D38007B684FF00102C3F81022BB7D03F0060355
:101D4800DBB2042B05D0BB7D03F00603DBB2022B0C
:101D580035D17B685B691B68FB60BB7D03F00603BC
:101D6800DBB2042B17D17B685B6941F270725A6051
:101D78003B7B03F00303DBB2022B24D07B68DB7AC6
:101D8800012B04D178684FF00201FEF771FF4FF084
:101D98000103FB6117E07B685B694BF680325A6090
:101DA8003B7B03F00303DBB2012B0CD078684FF0C8
:101DB8000101FEF75DFF4FF00103FB6103E04FF007
:101DC8000103FB6100E000BF3B7D03F02003DBB2B1
:101DD800002B07D03B6943F020033B61BB6943F00C
:101DE8000103BB61FB69002B02D07868FEF78AFF0C
:101DF8007B68D3F8CC303A691A60BB69184607F19A
:101E08002007BD4680BD00BF80B598B000AF7860A0
:101E180039607A683B6803F122034FEA8303D318D9
:101E28009B68FB65FB6D9B68BB65FB6DDB687B6531
:101E3800BA6D7B6D1340BB657A683B6803F122037A
:101E48004FEA8303D3189B681B683B6597F85830A3
:101E580003F00403DBB2002B22D04FF00003FB6435
:101E6800FB6C43F00403FB64FA6CFB6D9A607A68C0
:101E78003B6803F122034FEA8303D3189B68DB68AE
:101E8800BB64BB6C43F00203BB647A683B6803F134
:101E980022034FEA8303D3189B68BA6CDA605CE2CA
:101EA80097F8583003F02003DBB2002B0AD04FF02C
:101EB80000037B647B6C43F020037B647A6CFB6DCE
:101EC8009A604AE297F8583003F00103DBB2002B1E
:101ED8003AD07A683B6803F184034FEA8303D31846
:101EE8004FF000025A607A683B6803F122034FEA18
:101EF8008303D3189B68DB683B643B6C43F00203A5
:101F08003B647A683B6803F122034FEA8303D318E2
:101F18009B683A6CDA603B68DBB278681946FFF771
:101F28000FFA4FF00003FB63FB6B43F00103FB6305
:101F3800FA6BFB6D9A607A683B68D31803F52273D5
:101F48004FF001021A7108E297F8583003F00803BD
:101F5800DBB2002B30D04FF00003BB63BB6B43F008
:101F68000803BB63BA6BFB6D9A607A683B6803F140
:101F780022034FEA8303D3189B68DB687B637B6B80
:101F880043F002037B637A683B6803F122034FEA5C
:101F98008303D3189B687A6BDA603B68DBB2786896
:101FA8001946FFF7CDF97A683B68D31803F5227311
:101FB8004FF005021A71D0E197F8583003F010037A
:101FC800DBB2002B3AD07A683B6803F184034FEA0E
:101FD8008303D3184FF000025A607A683B6803F114
:101FE80022034FEA8303D3189B68DB683B633B6B90
:101FF80043F002033B637A683B6803F122034FEA2C
:102008008303D3189B683A6BDA603B68DBB2786865
:102018001946FFF795F94FF00003FB62FB6A43F09E
:102028001003FB62FA6AFB6D9A607A683B68D31802
:1020380003F522734FF003021A718EE197F85830B6
:1020480023F07F03DBB2002B42D07A683B6803F1B0
:1020580022034FEA8303D3189B68DB68BB62BB6A21
:1020680043F00203BB627A683B6803F122034FEA3C
:102078008303D3189B68BA6ADA603B68DBB2786876
:102088001946FFF75DF97A683B6803F184034FEA64
:102098008303D3185B6803F1010279683B6803F195
:1020A80084034FEA8303CB185A607A683B68D318D5
:1020B80003F522734FF006021A714FF000037B629A
:1020C8007B6A43F080037B627A6AFB6D9A6044E125
:1020D80097F8583003F04003DBB2002B3AD07A6807
:1020E8003B6803F184034FEA8303D3184FF00002DF
:1020F8005A607A683B6803F122034FEA8303D318D6
:102108009B68DB683B623B6A43F002033B627A6888
:102118003B6803F122034FEA8303D3189B683A6AAA
:10212800DA603B68DBB278681946FFF709F94FF0C7
:102138000003FB61FB6943F04003FB61FA69FB6D37
:102148009A607A683B68D31803F522734FF004024B
:102158001A7102E197F8593003F00403DBB2002B3F
:102168003AD07A683B6803F122034FEA8303D31815
:102178009B68DB68BB61BB6943F00203BB617A689B
:102188003B6803F122034FEA8303D3189B68BA69BB
:10219800DA603B68DBB278681946FFF7D1F84FF090
:1021A80000037B617B6943F010037B617A69FB6DF7
:1021B8009A607A683B68D31803F522734FF00802D7
:1021C8001A714FF000033B613B6943F480633B6144
:1021D8003A69FB6D9A60C0E097F8583003F0020343
:1021E800DBB2002B00F0B9807A683B6803F1220368
:1021F8004FEA8303D3189B68DB68FB60FB686FF3C7
:102208004103FB607A683B6803F122034FEA8303CA
:10221800D3189B68FA68DA607A683B68D31803F5C4
:1022280022731B79DBB2012B22D17A683B68D31861
:1022380003F526734FF00102DA7097F8523003F075
:102248000C03DBB2082B7ED17A683B6803F11603D6
:102258004FEA4313D3185B7983F00103DAB2796844
:102268003B6803F116034FEA4313CB185A716AE02F
:102278007A683B68D31803F522731B79DBB2032B0A
:1022880008D17A683B68D31803F526734FF0020229
:10229800DA7058E07A683B68D31803F522731B7923
:1022A800DBB2042B18D17A683B684FEA4313D31882
:1022B80003F52A731B7A012B05D13B68DBB27868DA
:1022C8001946FFF793F87A683B68D31803F5267325
:1022D8004FF00202DA7036E07A683B68D31803F5EB
:1022E80022731B79DBB2052B08D17A683B68D318B7
:1022F80003F526734FF00402DA7024E07A683B682D
:10230800D31803F522731B79DBB2062B1BD17A682D
:102318003B6803F184034FEA8303D3185B68032BFC
:1023280011D17A683B68D31803F526734FF003027E
:10233800DA707A683B6803F184034FEA8303D318A1
:102348004FF000025A604FF00003BB60BB6843F0D7
:102358000203BB60BA68FB6D9A604FF00103184630
:1023680007F16007BD4680BD80B59CB000AF7860BE
:1023780039607A683B6803F122034FEA8303D31874
:102388009B68FB66FB6E9B68BB66FB6EDB687B66C7
:10239800BA6E7B6E1340BB667A683B6803F1220312
:1023A8004FEA8303D3189B681B683B664FF0000312
:1023B8007B6697F8683003F00403DBB2002B22D069
:1023C8004FF00003BB65BB6D43F00403BB65BA6DFA
:1023D800FB6E9A607A683B6803F122034FEA830335
:1023E800D3189B68DB687B657B6D43F002037B65D4
:1023F8007A683B6803F122034FEA8303D3189B688A
:102408007A6DDA6098E097F8683003F02003DBB261
:10241800002B0AD04FF000033B653B6D43F02003CF
:102428003B653A6DFB6E9A6086E097F8683003F07A
:102438000803DBB2002B3ED07A683B6803F1220325
:102448004FEA8303D3189B68DB68FB64FB6C43F09B
:102458000203FB647A683B6803F122034FEA8303B3
:10246800D3189B68FA6CDA607A683B68D31803F56E
:1024780022734FF005021A714FF00003BB64BB6C66
:1024880043F01003BB64BA6CFB6E9A604FF0000314
:102498007B647B6C43F008037B647A6CFB6E9A6008
:1024A800BB6E6FF30413BB663B68DBB278681946F2
:1024B800FEF746FF40E097F8693003F00403DBB20B
:1024C800002B39D07A683B6803F122034FEA830373
:1024D800D3189B68DB683B643B6C43F002033B64A6
:1024E8007A683B6803F122034FEA8303D3189B6899
:1024F8003A6CDA603B68DBB278681946FEF720FF71
:102508004FF00003FB63FB6B43F01003FB63FA6BB4
:10251800FB6E9A607A683B68D31803F522734FF014
:1025280008021A714FF00003BB63BB6B43F480636E
:10253800BB63BA6BFB6E9A6097F8693003F00203CD
:10254800DBB2002B28D07A683B6803F122034FEAFC
:102558008303D3189B68DB687B637B6B43F00203C0
:102568007B637A683B6803F122034FEA8303D3183D
:102578009B687A6BDA603B68DBB278681946FEF7CD
:10258800DFFE4FF000033B633B6B43F400733B6398
:102598003A6BFB6E9A60E5E197F8683003F0010347
:1025A800DBB2002B00F0A5807B68DB78012B1BD108
:1025B8007A683B6803F122034FEA8303D3189B68C8
:1025C8001B69FB657A683B684FEA4313D31803F528
:1025D8002F731A68FB6DC3F31203D11A7B683A682C
:1025E80002F1940243F822107A683B68D31803F585
:1025F80022734FF001021A717A683B6803F1840371
:102608004FEA8303D3184FF000025A604FF00003DB
:10261800FB62FB6A43F00103FB62FA6AFB6E9A6095
:1026280097F8623003F00C03DBB2002B06D097F862
:10263800623003F00C03DBB2082B3BD17A683B68AD
:1026480003F122034FEA8303D3189B68DB68BB625C
:10265800BB6A43F00203BB627A683B6803F122035A
:102668004FEA8303D3189B68BA6ADA603B68DBB227
:1026780078681946FEF764FE4FF000037B627B6AB8
:1026880043F010037B627A6AFB6E9A607A683B6853
:1026980003F116034FEA4313D3181B7983F00103A0
:1026A800DAB279683B6803F116034FEA4313CB1893
:1026B8001A7157E197F8623003F00C03DBB20C2B68
:1026C80040F04F813B6E43F000533B667A683B68AD
:1026D80003F122034FEA8303D3189B683A6E1A600A
:1026E8007A683B68D31803F526734FF00102DA7055
:1026F80037E197F8683003F00203DBB2002B00F0F3
:1027080086807A683B6803F122034FEA8303D31873
:102718009B68DB683B623B6A6FF341033B627A6804
:102728003B6803F122034FEA8303D3189B683A6A94
:10273800DA607A683B68D31803F522731B79DBB239
:10274800012B08D17A683B68D31803F526734FF03C
:102758000102DA7050E07A683B68D31803F52273F7
:102768001B79DBB2052B08D17A683B68D31803F5CF
:1027780026734FF00402DA703EE07A683B68D3189B
:1027880003F522731B79DBB2062B08D07A683B6805
:10279800D31803F522731B79DBB2082B12D17A68A0
:1027A8003B6803F184034FEA8303D3184FF0000218
:1027B8005A607A683B68D31803F526734FF0030212
:1027C800DA7019E097F8623003F00C03DBB20C2BD7
:1027D80012D17A683B6803F116034FEA4313D31802
:1027E8001B7983F00103DAB279683B6803F11603B9
:1027F8004FEA4313CB181A714FF00003FB61FB69D2
:1028080043F00203FB61FA69FB6E9A60AAE097F84D
:10281800683023F07F03DBB2002B42D07A683B6834
:1028280003F122034FEA8303D3189B68DB68BB617B
:10283800BB6943F00203BB617A683B6803F122037A
:102848004FEA8303D3189B68BA69DA607A683B68F1
:1028580003F184034FEA8303D3185B6803F1010291
:1028680079683B6803F184034FEA8303CB185A6005
:102878007A683B68D31803F522734FF006021A7181
:102888003B68DBB278681946FEF75AFD4FF0000343
:102898007B617B6943F080037B617A69FB6E9A6098
:1028A80060E097F8683003F01003DBB2002B59D0D2
:1028B80097F8623003F00C03DBB20C2B28D17A684E
:1028C8003B6803F122034FEA8303D3189B68DB6854
:1028D8003B613B6943F002033B617A683B6803F163
:1028E80022034FEA8303D3189B683A69DA603B688E
:1028F800DBB278681946FEF723FD4FF00003FB6052
:10290800FB6843F01003FB60FA68FB6E9A601FE0F7
:1029180097F8623003F00C03DBB2002B06D097F86F
:10292800623003F00C03DBB2082B11D13B6E43F08D
:1029380000433B663B6E6FF39E733B667A683B6869
:1029480003F122034FEA8303D3189B683A6E1A6097
:102958007A683B68D31803F522734FF003021A71A3
:1029680000E000BF4FF00103184607F17007BD46AD
:1029780080BD00BF80B588B000AF78604FF000031D
:10298800FB724FF000037B617B6943F010037B61AE
:102998007B68DB687A68D268926911467A696FEA5F
:1029A80002020A409A617B68DB681B6ABB61BB69EB
:1029B800C3F30303DBB2FB72FB7ADBB27A6803F181
:1029C80022034FEA8303D3189B681B68FB60BB692B
:1029D800C3F34343DBB2022B40F09B80BB69C3F3D4
:1029E8000A139BB2002B40F39580FB7ADBB27A681E
:1029F80003F10D034FEA4313D31803F58C731B68D7
:102A0800002B00F08780FB7ADBB27A6803F10D03B4
:102A18004FEA4313D31803F58C731A68BB69C3F3E1
:102A28000A139BB2786811461A46FDF78DFCBB69FC
:102A3800C3F30303DBB2BA69C2F30302D2B2796803
:102A480002F10D024FEA42128A1802F58C721168DF
:102A5800BA69C2F30A1292B28A18796803F10D03AF
:102A68004FEA4313CB1803F58C731A60BB69C3F3A1
:102A78000303DBB2BA69C2F30302D2B279684FEA40
:102A880042128A1802F530721168BA69C2F30A1242
:102A980092B28A1879684FEA4313CB1803F530735A
:102AA8001A60FB7ADBB27A684FEA4313D31803F54E
:102AB80030731B68FB61FB7ADBB21A467B6802F154
:102AC8009402F96943F82210FB7ADBB27A6803F1C1
:102AD80022034FEA8303D3189B681B693B613B6958
:102AE800C3F3C9439BB2002B14DDFB6843F00043DA
:102AF800FB60FB686FF39E73FB60FB7ADBB27A685E
:102B080003F122034FEA8303D3189B68FA681A601B
:102B180000E000E000BF7B6943F010037B617B6845
:102B2800DB687A68D268926911467A690A439A61C1
:102B38004FF00103184607F12007BD4680BD00BFCE
:102B480080B485B000AF78607B68D3F890301B689C
:102B5800BB60BB6843F00043BB60BB6843F0804385
:102B6800BB607B68D3F89030BA681A604FF00003F6
:102B7800FB60FB6843F40013FB607B68DB68FA6862
:102B88005A614FF00103184607F11407BD4680BC8F
:102B9800704700BF80B485B000AF78607B68FB6089
:102BA800FB68D3F8AC344FF001021A72FB68D3F813
:102BB800AC344FF000029A7207F11407BD4680BC8E
:102BC800704700BF80B485B000AF78607B68FB6059
:102BD800FB68D3F8AC344FF001025A72FB68D3F8A3
:102BE800AC344FF00002DA7207F11407BD4680BC1E
:102BF800704700BF80B584B000AFF8607A603B6072
:102C08000B46FB72F86815F057FD4FF0000015F001
:102C1800FFFDF868796800F02BF87B683A68DA6796
:102C28007B68BA69C3F88020FA6840F6CC03C2F220
:102C38000003C2F8AC34FB68D3F8AC344FF00002A0
:102C48001A72FB68D3F8AC344FF000025A72FB7A60
:102C5800F8681946FEF756FC7B68D3F880301B6885
:102C68009847F86815F098FD07F11007BD4680BD34
:102C780080B582B000AF786039603B684FF00002E1
:102C88001A703B684FF000025A703B684FF0000220
:102C98009A703B684FF00102DA703B684FF001020E
:102CA8001A773B684FF040029A713B684FF0000278
:102CB80083F820203B684FF0010283F821203B680D
:102CC8001B797868194600F0E7FD3B685B797868FE
:102CD800194600F0E1FD4FF00003184607F1080718
:102CE800BD4680BD90B587B002AF786039604FF0BF
:102CF8000203FB733B681B780C2B00F2058101A2D1
:102D080052F823F0592D0008412D0008772D0008AE
:102D1800112F0008112F0008112F0008452E000858
:102D2800932E0008C32E0008E12E0008672E000825
:102D3800112F0008EB2E00087868FEF74BFC0346BD
:102D4800002B40F0E3803B684FF000021A70DDE092
:102D58007868FEF74DFC0346002B00F0D9807868B0
:102D680000F0C0FD3B684FF002021A70D0E03B68EB
:102D7800D3F880309B6898477B68D3F8AC344FF021
:102D880000025A727B68D3F8AC344FF001029A7291
:102D980078684FF0000100F059FD03461A463B6879
:102DA8005A7178684FF0800100F050FD03461A46CA
:102DB8003B681A717868FEF70DFC0346002B40F05B
:102DC800A9803B68D3F88030DB6898477868FEF7BD
:102DD800EDFB0346DAB23B6883F821203B684FF0ED
:102DE80006021A703B68D3F880309B693A6892F8FB
:102DF8002120104698473B6819793B6893F82020B2
:102E08003B6893F82130386880794FF000040094CB
:102E18000190786800F048FC3B6859793B6893F862
:102E280020203B6893F82130386880794FF00004FF
:102E380000940190786800F037FC6BE07868396896
:102E480000F0C0F80346002B66D13B68D3F8803009
:102E58005B6B98473B684FF00A021A705CE03B686E
:102E6800D3F880309B6B98470346012B56D13B68BB
:102E7800DB6F1B687868396898470346002B4DD18B
:102E88003B684FF007021A7048E03B68DB6F9B68AD
:102E98007868396898470346FB73FB7BDBB2002BE5
:102EA80004D13B684FF008021A7038E0FB7BDBB2B4
:102EB8003868194600F060F831E03B68DB6FDB6882
:102EC8007868396898470346FB73FB7BDBB2386840
:102ED800194600F051F822E07868396800F00EFAD7
:102EE8001DE078683968FFF7C3FE3B68D3F8803087
:102EF8005B6898473B68DB6F5B683A6802F12002C1
:102F08007868114698470AE000BF08E000BF06E06D
:102F180000BF04E000BF02E000BF00E000BF786827
:102F2800FEF766FB0346002B22D17B68D3F8AC344E
:102F3800DB7A002B1CD13B68D3F880301B6998479B
:102F48007B68D3F8AC344FF00102DA7278683968DC
:102F5800FFF78EFE3B68D3F880305B6898473B6884
:102F6800DB6F5B683A6802F120027868114698477F
:102F780007F11407BD4690BD80B582B000AF7860F8
:102F88000B46FB70FB78052B02D0FB78042B09D18C
:102F98007B68D3F880305B6C98477B684FF00C02F5
:102FA8001A700BE0FB78062B08D17B684FF00C02F7
:102FB8001A707B68D3F880301B68984707F10807B8
:102FC800BD4680BD80B596B002AF786039604FF0DD
:102FD800010387F84F303B689B78092B00F2748116
:102FE80001A252F823F000BF19300008873000080A
:102FF800B7300008313100084F3100088B31000824
:10300800EB31000849320008A7320008C73200082F
:10301800786839684FF0080200F07CFF0346002BFF
:1030280040F054813B6893F829203B689A7178688E
:10303800FEF7D0FA3B684FF001029A703B685B7963
:103048003A6892794FF00001009101927868194628
:103058004FF000024FF0000300F0AAFB3B681B7919
:103068003A6892794FF00001009101927868194608
:103078004FF000024FF0000300F09AFB26E1786859
:1030880039684FF0120200F045FF0346002B40F06C
:103098001F813B68D3F88030DB693A6802F122026D
:1030A800104698473B684FF002029A7010E1786822
:1030B80039684FF0010200F0EBFF0346002B40F0A7
:1030C80009813B684FF0010283F820203B68D3F860
:1030D80080301B6A98473B684FF003029A703B6840
:1030E8001A793B6893F820304FF0000100914FF0B7
:1030F80000010191786811461A464FF0000300F06C
:1031080057FB3B685A793B6893F820304FF0000131
:1031180000914FF000010191786811461A464FF06E
:10312800000300F045FBD5E0786839684FF00902E4
:1031380000F01EFF0346002B40F0CE803B684FF0A6
:1031480004029A70C8E03B68DB8E786839681A46D2
:1031580000F00EFF0346002B40F0C0803B68D3F818
:1031680080305B6A3A6802F134003A6802F13E0145
:103178003A6802F1500298473B684FF005029A708E
:10318800ACE03B6893F83030002B1CD03B6893F8D8
:10319800302007F10C034FF0FF010091786839687F
:1031A80000F016FF0346002B40F09A803B68D3F8E6
:1031B80080309B6A07F10C02104698473B684FF035
:1031C80006029A708CE03B68D3F880309B6A4DF613
:1031D800D800C0F6020098473B684FF006029A7084
:1031E8007EE03B6893F83130002B1BD03B6893F8A6
:1031F800312007F10C034FF0FF010091786839681E
:1032080000F0E6FE0346002B6CD13B68D3F8803013
:10321800DB6A07F10C02104698473B684FF007023B
:103228009A705FE03B68D3F88030DB6A4DF6D800CF
:10323800C0F6020098473B684FF007029A7051E0C9
:103248003B6893F83230002B1BD03B6893F8322050
:1032580007F10C034FF0FF0100917868396800F01E
:10326800B7FE0346002B3FD13B68D3F880301B6B79
:1032780007F10C02104698473B684FF008029A7015
:1032880032E03B68D3F880301B6B4DF6D800C0F6AF
:10329800020098473B684FF008029A7024E03B68A8
:1032A80093F83930786839681A4600F01BFF0346EE
:1032B800002B1BD13B684FF009029A7016E04FF0C3
:1032C800000387F84F3012E000BF10E000BF0EE0A7
:1032D80000BF0CE000BF0AE000BF08E000BF06E046
:1032E80000BF04E000BF02E000BF00E000BF97F8A5
:1032F8004F30184607F15007BD4680BD80B584B0F1
:1033080000AF786039604FF00003FB734FF00003A3
:10331800BB733B684FF000029A743B681B7F03F154
:10332800FF330A2B00F2AF8101A252F823F000BF4D
:10333800653300088333000823340008413400084B
:10334800A7340008EF340008413500085D3500084F
:10335800D135000817360008573600083B6803F1D6
:1033680014023B685B79786811461A4600F05AFBEC
:103378003B684FF002021A7790E13B685B79786806
:103388001946FEF755F90346BB73BB7B012B37D1B2
:103398003B681B7D23F07F037B733B685B8B002BB3
:1033A80013D040F60823C2F2000341F288321A8093
:1033B8007B7B802B04D13B684FF003021A7717E020
:1033C8003B684FF005021A7712E040F60823C2F274
:1033D80000034FF032021A807B7B802B04D13B68BC
:1033E8004FF009021A7703E03B684FF007021A779B
:1033F8007868FEF70BF903469AB23B681A8244E1F3
:10340800BB7B032B40F041813B684FF00B021A77DE
:103418003B684FF005029A7437E13B6899683B684E
:103428009B89DAB23B681B79786800F09BFB3B68A4
:103438004FF004021A7731E13B681B797868194626
:10344800FEF7F6F80346BB73BB7B012B03D13B6841
:103458004FF009021A77BB7B042B04D13B685A78DA
:103468003B681A7013E1BB7B032B04D13B684FF018
:103478000B021A770BE17868FEF7C8F802463B683A
:103488001B8AD21A40F60823C2F200031B889A420C
:1034980040F2FD803B684FF00B021A77F7E03B687B
:1034A8005B793A685279796802F116024FEA42125A
:1034B8008A18527982F00102D2B2796803F11603B0
:1034C8004FEA4313CB185A713B6899683B689B894C
:1034D800DAB23B685B79786800F0E2FA3B684FF053
:1034E80006021A77DAE03B685B7978681946FEF7D6
:1034F8009FF80346BB73BB7B012B04D13B684FF09D
:1035080007021A77C5E0BB7B042B04D13B685A78C5
:103518003B681A70BDE0BB7B022B04D13B684FF0BF
:1035280005021A77B5E0BB7B032B40F0B2803B68FD
:103538004FF00B021A77ACE03B681B7978684FF0C4
:1035480000014FF0000200F00DFB3B684FF008024D
:103558001A77A3E03B681B7978681946FEF768F884
:103568000346BB73BB7B012B04D13B685A783B688D
:103578001A7090E0BB7B032B04D13B684FF00B0221
:103588001A7788E07868FEF741F802463B681B8A9C
:10359800D21A40F60823C2F200031B889A4204D9C3
:1035A8003B684FF00B021A7775E0BB7B042B72D196
:1035B8003B685A783B681A703B684FF004029A746B
:1035C8004FF00303FB7366E03B685B793A68527916
:1035D800796802F116024FEA42128A18527982F08B
:1035E8000102D2B2796803F116034FEA4313CB18EC
:1035F8005A713B685B7978684FF000014FF0000220
:1036080000F04EFA3B684FF00A021A7746E03B6832
:103618005B7978681946FEF70BF80346BB73BB7BEA
:10362800012B04D13B685A783B681A7035E0BB7BA4
:10363800022B04D13B684FF009021A772DE0BB7BBF
:10364800032B2AD13B684FF00B021A7725E03B6821
:103658009B7B03F10103DAB23B689A733B689B7B5F
:10366800022B04D83B684FF001021A7716E03B683A
:103678004FF008029A743B685A783B681A704FF00A
:103688000203FB730AE000BF08E000BF06E000BFCA
:1036980004E000BF02E000BF00E000BFFB7B18466B
:1036A80007F11007BD4680BD80B582B000AF7860D5
:1036B800F970BA707B70F878FB787A6803F5117343
:1036C8004FEA4303D3189B88DBB203F07F03DAB2D7
:1036D80079684FEA4013CB1803F52A735A71F878C2
:1036E800FB787A6803F511734FEA4303D3189B8874
:1036F80003F08003002B0CBF00230123DAB27968A2
:103708004FEA4013CB1803F52A739A71FB787A684D
:103718004FEA4313D31803F52A73BA781A71FB7862
:103728007A684FEA4313D31803F52A733A7C5A721E
:10373800FB787A684FEA4313D31803F52A73BA8AD9
:103748005A81FB787A684FEA4313D31803F52A7332
:103758007A78DA71FB787A6803F116034FEA431333
:10376800D3184FF000021A71FB787A6803F1160338
:103778004FEA4313D3184FF000025A717B78002B9D
:1037880009D1FB787A684FEA4313D31803F52A73F3
:103798004FF001021A72FB7878681946FDF7DCFAD7
:1037A8004FF00003184607F10807BD4680BD00BF6B
:1037B80080B582B000AF7860F970BA707B70BB7862
:1037C800002B08D0FB787A684FEA4313D31803F527
:1037D8002A73BA781A71FB787A684FEA4313D318B8
:1037E80003F52A735B89BA8A9A420BD0BB8A002BED
:1037F80008D0FB787A684FEA4313D31803F52A7385
:10380800BA8A5A81FB787A684FEA4313D31803F5CA
:103818002A73DB797A789A420BD07B78002B08D010
:10382800FB787A684FEA4313D31803F52A737A783A
:10383800DA71FB7878681946FDF78EFA4FF00003C5
:10384800184607F10807BD4680BD00BF80B584B0A3
:1038580000AF78600B46FB70786800F065F80346A7
:10386800FB81FA894FF6FF739A420ED0F889FB78EC
:103878009BB26FEA43436FEA53439AB2796800F503
:1038880011734FEA4303CB189A80FB89DBB21846C1
:1038980007F11007BD4680BD80B483B000AF7860E3
:1038A8000B46FB70FB78072B14D8F878FB787A68FE
:1038B80003F511734FEA4303D3189B884FEA434338
:1038C8004FEA53439AB2796800F511734FEA4303FC
:1038D800CB189A804FF00003184607F10C07BD4635
:1038E80080BC704780B485B000AF78604FF00203A9
:1038F800FB730DE0FB7B7A6803F511734FEA430312
:10390800D3184FF000029A80FB7B03F10103FB738D
:10391800FB7B072BEED94FF00003184607F114077D
:10392800BD4680BC704700BF80B485B000AF7860EA
:103938004FF00003FB734FF00003FB7312E0FB7BB7
:103948007A6803F511734FEA4303D3189B889BB237
:103958001BB2002B02DBFB7B9BB208E0FB7B03F175
:103968000103FB73FB7B072BE9D94FF6FF7318465E
:1039780007F11407BD4680BC704700BF80B586B00C
:1039880000AFF860B9607A607B804FF00003BB75C8
:10399800BB685B79F8681946FDF74AFE0346BB75B4
:1039A8004FF00103FB75BB68DB78012B02D0022BBB
:1039B8000ED02EE07B88B86879681A4600F088FA3D
:1039C800BB684FF00202DA704FF00103FB7522E08A
:1039D800BB7D012B07D1BB684FF00102DA704FF0B5
:1039E8000003FB7516E0BB7D032B07D1BB684FF0C6
:1039F8000102DA704FF00203FB750BE0BB7D042B6C
:103A080008D1BB684FF00102DA704FF00303FB7571
:103A180000E000E000BFFB7D184607F11807BD462F
:103A280080BD00BF80B584B000AFF860B9601346B0
:103A3800FB71FB79FA684FEA4313D31803F52A732D
:103A48004FF000029A71FB79FA6803F10D034FEA0F
:103A58004313D31803F588734FF003021A71FB79E7
:103A6800FA6803F10D034FEA4313D31803F58C7377
:103A7800BA681A60FB79FA684FEA4313D31803F55A
:103A88002F734FF008021A60FB79F8681946FDF7A2
:103A980017FE0346DBB2184607F11007BD4680BD86
:103AA80080B584B000AFF860B960FA71BB71BB79BA
:103AB800FA684FEA4313D31803F52A734FF000024C
:103AC8009A71BB79FA6803F10D034FEA4313D318CF
:103AD80003F58C73BA681A60BB79FA79F9684FEA0A
:103AE8004313CB1803F52F731A60FB79002B09D108
:103AF800BB79FA6803F116034FEA4313D3184FF062
:103B080001025A71BB79FA6803F116034FEA4313AD
:103B1800D3185B79002B0CD1BB79FA6803F10D033C
:103B28004FEA4313D31803F588734FF000021A7154
:103B38000BE0BB79FA6803F10D034FEA4313D3187E
:103B480003F588734FF002021A71BB79F8681946B9
:103B5800FDF7B6FD4FF00003184607F11007BD4604
:103B680080BD00BF80B584B000AFF860B960FA715D
:103B7800BB71BB79FA684FEA4313D31803F52A736C
:103B88004FF001029A71BB79FA6803F10D034FEA0D
:103B98004313D31803F588734FF002021A71BB79E7
:103BA800FA6803F10D034FEA4313D31803F58C7336
:103BB800BA681A60BB79FA79F9684FEA4313CB18E7
:103BC80003F52F731A60BB79F8681946FDF778FD7D
:103BD8004FF00003184607F11007BD4680BD00BF2F
:103BE80080B584B000AFF860B960FA807B717B79EA
:103BF800FA684FEA4313D31803F52A734FF000020B
:103C08009A717B79FA6803F10D034FEA4313D318CD
:103C180003F58C73BA681A607B79FA88F9684FEAF9
:103C28004313CB1803F52F731A607B79FA6803F1F5
:103C380016034FEA4313D3185B79002B0CD17B7919
:103C4800FA6803F10D034FEA4313D31803F5887399
:103C58004FF000021A710BE07B79FA6803F10D034B
:103C68004FEA4313D31803F588734FF002021A7111
:103C78007B79F8681946FDF723FD4FF000031846D5
:103C880007F11007BD4680BD80B584B000AFF8606D
:103C9800B960FA807B717B79FA684FEA4313D318CD
:103CA80003F52A734FF001029A717B79FA6803F1E0
:103CB8000D034FEA4313D31803F58C73BA681A60DF
:103CC8007B79FA88F9684FEA4313CB1803F52F7309
:103CD8001A607B79FA6803F116034FEA4313D31885
:103CE8001B79002B0CD17B79FA6803F10D034FEA9D
:103CF8004313D31803F588734FF000021A710BE0D1
:103D08007B79FA6803F10D034FEA4313D31803F5DF
:103D180088734FF002021A717B79F8681946FDF72B
:103D2800CFFC4FF00003184607F11007BD4680BDD1
:103D380080B584B000AFF860B960FA71BB71BB7927
:103D4800FA684FEA4313D31803F52A734FF00102B8
:103D58009A71BB79FA6803F10D034FEA4313D3183C
:103D680003F58C73BA681A60BB79FA79F9684FEA77
:103D78004313CB1803F52F731A60BB79FA6803F164
:103D880016034FEA4313D3181B79002B0CD1BB79C8
:103D9800FA6803F10D034FEA4313D31803F5887348
:103DA8004FF000021A710BE0BB79FA6803F10D03BA
:103DB8004FEA4313D31803F588734FF002021A71C0
:103DC800BB79BA79F96802F116024FEA42128A18E9
:103DD800127982F00102D2B2F96803F116034FEAB0
:103DE8004313CB181A71BB79F8681946FDF768FCBC
:103DF8004FF00003184607F11007BD4680BD00BF0D
:103E080080B584B000AFF860B960FA71BB71BB7956
:103E1800FA684FEA4313D31803F52A734FF00002E8
:103E28009A71BB79FA6803F10D034FEA4313D3186B
:103E380003F58C73BA681A60BB79FA79F9684FEAA6
:103E48004313CB1803F52F731A60BB79FA6803F193
:103E580016034FEA4313D3181B79002B0CD1BB79F7
:103E6800FA6803F10D034FEA4313D31803F5887377
:103E78004FF000021A710BE0BB79FA6803F10D03E9
:103E88004FEA4313D31803F588734FF002021A71EF
:103E9800BB79BA79F96802F116024FEA42128A1818
:103EA800127982F00102D2B2F96803F116034FEADF
:103EB8004313CB181A71BB79F8681946FDF700FC53
:103EC8004FF00003184607F11007BD4680BD00BF3C
:103ED80080B485B000AFF860B9601346FB80FB681A
:103EE8001A78FB685A70FB684FF009021A70FB6871
:103EF800BA689A60FB68FA889A81FB684FF00102F9
:103F08001A774FF00003184607F11407BD4680BC26
:103F1800704700BF80B588B002AFF860B96013463B
:103F2800FB71FB6803F58872FB799BB200920193E1
:103F3800F868B9684FF000024FF4807300F076F823
:103F48000346FB75FB7D002B0CD1BB6803F12201F6
:103F5800FB6803F58872FB799BB2084611461A463E
:103F680000F02AF9FB7D184607F11807BD4680BD09
:103F780090B589B002AFF860B9601346FB80FB6862
:103F880003F588730093FB880193F868B9684FF0CC
:103F980000024FF4007300F049F80346FB75FB7DFF
:103FA800002B0FD1BB6803F13400BB6803F13E015D
:103FB800BB6803F15002FB6803F58873FC88009422
:103FC80000F072F9FB7D184607F11C07BD4690BD4D
:103FD80080B588B002AFF860B9603B601346FB71EA
:103FE800FB799BB243F440739BB2FA6802F588727E
:103FF80000923A8C0192F868B9684FF0000200F01C
:1040080015F80346FB75FB7D002B08D1FB6803F50B
:1040180088723B8C104639681A4600F053FAFB7DCB
:10402800184607F11807BD4680BD00BF80B584B0AB
:1040380000AFF860B960FA71BB80FB7963F07F0369
:10404800DAB2BB681A75BB684FF006025A75BB68CE
:10405800BA88DA82BB8803F47F43B3F5407F04D182
:10406800BB6840F209421A8303E0BB684FF00002C4
:104078001A83BB68BA8B5A83BB8BF868B968BA696C
:10408800FFF77CFC0346184607F11007BD4680BDC4
:1040980080B584B000AFF860B9601346FB71BB68A7
:1040A8004FF000021A75BB684FF005025A75FB798C
:1040B8009AB2BB68DA82BB684FF000021A83BB6809
:1040C8004FF000025A83F868B9684FF000024FF0C9
:1040D8000003FFF753FC0346184607F11007BD46D7
:1040E80080BD00BF80B584B000AFF860B9601346EA
:1040F800FB80BB684FF000021A75BB684FF00902DD
:104108005A75BB68FA88DA82BB684FF000021A83D6
:10411800BB684FF000025A83F868B9684FF0000294
:104128004FF00003FFF72AFC0346184607F1100773
:10413800BD4680BD80B584B000AFF860B960FA7143
:10414800BB71BB684FF002021A75BB684FF00102E1
:104158005A75BB684FF00002DA82FB799AB2BB68E5
:104168001A83BB684FF000025A83FB795BB2002BBD
:104178000ADABB79FA6803F116034FEA4313D31836
:104188004FF000021A7109E0BB79FA6803F11603CF
:104198004FEA4313D3184FF000025A71F868B96810
:1041A8004FF000024FF00003FFF7E8FB0346184604
:1041B80007F11007BD4680BD80B485B000AFF86038
:1041C800B9601346FB80BB681A78FB681A70BB6835
:1041D8005A78FB685A70BB6803F102031B781A46C9
:1041E800BB6803F103031B784FEA03239BB2D31880
:1041F8009AB2FB685A80BB681A79FB681A71BB6867
:104208005A79FB685A71BB689A79FB689A71BB68DE
:10421800DA79FB68DA71FB88082B3FD9BB6803F1B0
:1042280008031B781A46BB6803F109031B784FEA99
:1042380003239BB2D3189AB2FB681A81BB6803F1B7
:104248000A031B781A46BB6803F10B031B784FEA75
:1042580003239BB2D3189AB2FB685A81BB6803F157
:104268000C031B781A46BB6803F10D031B784FEA51
:1042780003239BB2D3189AB2FB689A81BB689A7BD6
:10428800FB689A73BB68DA7BFB68DA73BB681A7CD5
:10429800FB681A74BB685A7CFB685A7407F11407E8
:1042A800BD4680BC704700BF80B58AB000AFF860DB
:1042B800B9607A603B603B687B623B687B623B68C5
:1042C8001A78FB681A703B685A78FB685A703B6822
:1042D80003F102031B781A463B6803F103031B78BA
:1042E8004FEA03239BB2D3189AB2FB685A803B6803
:1042F8001A79FB681A713B685A79FB685A713B68EE
:104308009A79FB689A713B68DA79FB68DA713B68DD
:104318001A7AFB681A723B8E092B73D94FF009037E
:10432800FB82FB681B79022B6CD84FF0000387F8DF
:1043380023304FF00003FB61FB681B79022B61D827
:104348005AE007F11603786A194600F0F5F80346B3
:104358007B627B6A5B78042B47D197F9232013464D
:104368004FEAC3039B18BA68D318FB61F869796AE6
:1043780000F04CF84FF0000387F82230FB691B79F6
:10438800022B2BD824E007F11603786A194600F0AF
:10439800D3F803467B627B6A5B78052B11D197F9CA
:1043A80022304FEAC3037A68D318BB61B869796AC7
:1043B80000F05AF897F8223003F1010387F8223009
:1043C80006E07B6A1B781A46FB8AD3189BB2FB82ED
:1043D80097F92220FB691B799A42D4DB97F823309E
:1043E80003F1010387F8233006E07B6A1B781A463D
:1043F800FB8AD3189BB2FB8297F92320FB681B79B1
:104408009A429EDB07F12807BD4680BD80B483B081
:1044180000AF786039603B681A787B681A703B682F
:104428005A787B685A703B689A787B689A703B68C0
:10443800DA787B68DA703B681A797B681A713B68AE
:104448005A797B685A713B689A797B689A713B689C
:10445800DA797B68DA713B681A7A7B681A7207F135
:104468000C07BD4680BC704780B483B000AF78604D
:1044780039603B681A787B681A703B685A787B68A1
:104488005A703B689A787B689A703B68DA787B68E0
:10449800DA703B6803F104031B781A463B6803F1A2
:1044A80005031B784FEA03239BB2D3189AB27B68A3
:1044B8009A803B689A797B689A7107F10C07BD4628
:1044C80080BC704780B487B000AFF860B96013460D
:1044D800FB80FB6803F101031B78032B26D1FB68E3
:1044E8001B78A3F10202FB889A42B8BF1346BB822D
:1044F800FB6803F10203FB604FF00003FB820DE051
:10450800FB8AFA68D3181A78BB681A70BB6803F17B
:104518000103BB60FB8A03F10203FB82FA8ABB8AB0
:104528009A42EDD3BB684FF000021A7007F11C07DE
:10453800BD4680BC704700BF80B485B000AF7860CE
:1045480039603B681A887B681B78D3189AB23B6835
:104558001A807B681B787A68D318FB60FB6818465A
:1045680007F11407BD4680BC704700BF80B582B014
:1045780000AF78607868FDF73BF80346002B1FD042
:1045880044F2E873C2F2000345F25532C4F24232F3
:104598001A6044F2E873C2F2000344F25002C2F215
:1045A80030025A6044F2E873C2F200034FF000028E
:1045B8005A7344F2D873C2F200034FF00102DA7062
:1045C80040F60C23C2F200034FF000021A6040F6D6
:1045D8001923C2F200034FF000021A7007F108070E
:1045E800BD4680BD80B584B000AF786039604FF0BB
:1045F8000003BB737868FCF7FBFF0346002B00F051
:10460800DE8244F2D873C2F200031B7903F1FF3350
:10461800072B00F2C78201A252F823F04546000892
:104628007F46000875470008A5480008F1490008BA
:10463800834A00080B4B00086B4B000844F608033C
:10464800C2F200035B78786844F2E871C2F20001B4
:104658004FF01F02FFF7C4FA44F2D873C2F2000306
:104668004FF001025A7144F2D873C2F200034FF0BE
:1046780002021A71A3E244F60803C2F200035B784F
:1046880078681946FCF7D4FF0346BB73BB7B012B44
:104698004BD140F60C23C2F200034FF000021A601F
:1046A80044F2D873C2F200034FF002025A7144F286
:1046B800E873C2F200031B7B23F07F037B7344F291
:1046C800E873C2F200039B68002B26D044F2E8731B
:1046D800C2F200039A6840F61023C2F200031A607F
:1046E80044F2D873C2F200039A6840F61423C2F267
:1046F80000031A607B7B802B07D144F2D873C2F287
:1047080000034FF003021A714EE244F2D873C2F26A
:1047180000034FF004021A7146E244F2D873C2F261
:1047280000034FF005021A713EE2BB7B022B0AD14F
:1047380044F2D873C2F200035A7944F2D873C2F231
:1047480000031A7130E2BB7B042B40F02D8240F647
:104758001823C2F200034FF001021A7044F2D87312
:10476800C2F200034FF008021A711DE244F6080372
:10477800C2F200031B7878681946FCF759FF034614
:10478800BB73BB7B012B06D044F2D873C2F2000383
:104798005B79032B67D040F60C23C2F200034FF07D
:1047A80000021A6044F2D873C2F200034FF0030209
:1047B8005A7140F61023C2F200031B68402B28D917
:1047C80040F61423C2F200031A6844F60803C2F242
:1047D80000031B78786811464FF04002FFF754FA3F
:1047E80040F61023C2F200031B68A3F1400240F612
:1047F8001023C2F200031A6040F61423C2F2000329
:104808001B6803F1400240F61423C2F200031A6049
:1048180043E040F61023C2F200031B68002B07D1C7
:1048280044F2D873C2F200034FF005021A7134E063
:1048380040F61423C2F20003196840F61023C2F2AE
:1048480000031B689AB244F60803C2F200031B78FF
:104858007868FFF719FA40F61023C2F200034FF008
:1048680000021A6019E0BB7B042B40F09F8140F6E0
:104878001823C2F200034FF000021A7044F2D873F2
:10488800C2F200034FF007021A7144F2D873C2F261
:1048980000034FF005025A7188E187E144F60803E6
:1048A800C2F200035B7878681946FCF7C1FE03463C
:1048B800BB73BB7B012B67D140F60C23C2F200030C
:1048C8004FF000021A6044F2D873C2F200034FF0AE
:1048D80004025A7140F61023C2F200031B68402BF1
:1048E80028D940F61423C2F200031A6844F60803D4
:1048F800C2F200035B78786811464FF04002FFF778
:104908006FF940F61423C2F200031B6803F140025A
:1049180040F61423C2F200031A6040F61023C2F2D4
:1049280000031B68A3F1400240F61023C2F2000303
:104938001A603DE140F61023C2F200031B68002B09
:1049480007D144F2D873C2F200034FF005021A717E
:104958002EE140F61423C2F20003196840F6102332
:10496800C2F200031B689AB244F60803C2F20003BD
:104978005B787868FFF734F940F61023C2F2000339
:104988004FF000021A6013E1BB7B022B12D140F6F4
:104998001423C2F200031B68A3F1400244F6080383
:1049A800C2F200035B78786811464FF04002FFF7C7
:1049B80017F9FDE0BB7B042B40F0FA8040F6182382
:1049C800C2F200034FF001021A7044F2D873C2F227
:1049D80000034FF008021A7144F2D873C2F20003C0
:1049E8004FF005025A71E3E044F2D873C2F20003B3
:1049F8004FF005025A7144F2D873C2F2000344F230
:104A0800C872C2F200029A6044F2D873C2F200037C
:104A18004FF03F029A814FF00D03FB730BE0FA7BD6
:104A280044F2C873C2F200034FF000019954FB7BB3
:104A380003F1FF33FB73FB7B002BF0D144F2C87307
:104A4800C2F200034FF000021A7044F2D873C2F2A7
:104A580000039A6844F60803C2F200031B787868DA
:104A680011464FF03F02FFF70FF944F2D873C2F234
:104A780000034FF006021A71A1E044F60803C2F2DF
:104A880000031B7878681946FCF7D2FD0346BB7310
:104A9800BB7B012B23D140F60C23C2F200034FF05D
:104AA80000021A6044F2D873C2F200034FF0050204
:104AB8005A7144F2D873C2F200039A7844F2D87358
:104AC800C2F200031A707868396800F0CDF803461E
:104AD8001A4644F2D873C2F20003DA736AE0BB7B69
:104AE800042B67D140F61823C2F200034FF00002EE
:104AF8001A7044F2D873C2F200034FF007021A7119
:104B080058E0786839684FF0000200F05DF8034615
:104B18003B733B7B002B19D140F61823C2F20003EC
:104B28001B78022B07D144F2D873C2F200034FF06E
:104B380008021A7140E044F2D873C2F200035A79AD
:104B480044F2D873C2F200031A7135E03B7B042BA0
:104B580032D144F2D873C2F200034FF00202DA7382
:104B68002AE0786839684FF0010200F02DF8034612
:104B78003B733B7B002B0AD144F2D873C2F200038B
:104B88005A7944F2D873C2F200031A7116E03B7BDB
:104B9800042B13D144F2D873C2F200034FF002027F
:104BA800DA730BE000BF0AE000BF08E000BF06E0D0
:104BB80000BF04E000BF02E000BF00E000BF07F153
:104BC8001007BD4680BD00BF80B586B000AFF86055
:104BD800B9601346FB714FF00103FB75FB79002B9D
:104BE80002D0012B11D021E044F60803C2F20003E1
:104BF800DA7844F60803C2F200031B78F868B9684B
:104C0800FFF798FA0346FB7511E044F60803C2F271
:104C180000039A7844F60803C2F200035B78F86848
:104C2800B968FFF787FA0346FB7500E000BF40F656
:104C38000C23C2F200031B6803F1010240F60C23A7
:104C4800C2F200031A6040F60C23C2F200031B688C
:104C5800042B02D94FF00403FB75FB7D184607F1BE
:104C68001807BD4680BD00BF80B584B000AF78602E
:104C780039604FF00003BB604FF00103FB737868A5
:104C8800FCF7B6FC0346002B4CD044F60803C2F2EE
:104C980000031B7878681946FCF7DCFC0346BB6008
:104CA800BB680D2B03D04FF00203FB733AE044F2CC
:104CB800C873C2F200031A6845F25533C5F242338D
:104CC8009A422CD144F2C873C2F200035A6844F2E3
:104CD800E873C2F200035B689A4223D144F2C873B6
:104CE800C2F200031B7B002B03D14FF00003FB73C0
:104CF80018E044F2C873C2F200031B7B012B03D1F6
:104D08004FF00103FB730DE044F2C873C2F20003D5
:104D18001B7B022B06D14FF00203FB7302E04FF01E
:104D28000203FB7344F2D873C2F20003FA7BDA730E
:104D3800FB7B184607F11007BD4680BD90B587B0CC
:104D480002AF786039603B68FB60FB6893F84330DA
:104D5800082B40F0A780FB6893F84530502B40F0B3
:104D6800A180FB6893F85230DBB25BB2002B10DAFB
:104D7800FB6893F8522044F60803C2F20003DA7085
:104D8800FB68B3F8542044F60803C2F200039A8083
:104D98000FE0FB6893F8522044F60803C2F20003C0
:104DA8009A70FB68B3F8542044F60803C2F2000373
:104DB800DA80FB6893F85A30DBB25BB2002B10DA6A
:104DC800FB6893F85A2044F60803C2F20003DA702D
:104DD800FB68B3F85C2044F60803C2F200039A802B
:104DE8000FE0FB6893F85A2044F60803C2F2000368
:104DF8009A70FB68B3F85C2044F60803C2F200031B
:104E0800DA8044F60803C2F200039B7878681946F2
:104E1800FEF71CFD03461A4644F60803C2F20003D7
:104E28005A7044F60803C2F20003DB787868194622
:104E3800FEF70CFD03461A4644F60803C2F20003C7
:104E48001A7044F60803C2F200035978FB6893F815
:104E58002020FB6893F8214044F60803C2F20003BF
:104E6800DB884FF002000090019378682346FEF734
:104E78001BFC44F60803C2F200031978FB6893F898
:104E88002020FB6893F8214044F60803C2F200038F
:104E98009B884FF002000090019378682346FEF744
:104EA80003FC04E0FB68D3F880301B6C98474FF094
:104EB8000003184607F11407BD4690BD80B582B0BF
:104EC80000AF7860396044F60803C2F200035B78EB
:104ED800002B18D044F60803C2F200035B78786808
:104EE8001946FCF72DFA44F60803C2F200035B7872
:104EF80078681946FEF7D0FC44F60803C2F20003AE
:104F08004FF000025A7044F60803C2F200031B78FF
:104F1800002B18D044F60803C2F200031B78786807
:104F28001946FCF70DFA44F60803C2F200031B7891
:104F380078681946FEF7B0FC44F60803C2F200038D
:104F48004FF000021A7007F10807BD4680BD00BF88
:104F580080B485B000AF786039604FF00003FB7310
:104F680044F2D873C2F200034FF000021A70FB7BC0
:104F7800184607F11407BD4680BC704780B586B057
:104F880000AF786039603B683B614FF00103FB7507
:104F98004FF00303FB734FF00003BB737868FCF713
:104FA80027FB0346002B00F05D8144F2D873C2F260
:104FB80000031B780A2B00F24C8101A252F823F05F
:104FC800F54F00080B500008515000082751000801
:104FD80065510008A3510008E15100081752000864
:104FE80021520008E5500008535200087868FFF77E
:104FF800BDFA44F2D873C2F200034FF001021A70EE
:1050080030E17868396800F033F90346FB75FB7DB9
:10501800002B06D144F2D873C2F200034FF002020B
:105028001A70FB7D032B40F0168144F2D873C2F24C
:1050380000034FF002025A7044F2D873C2F2000320
:105048004FF009021A7006E17868396800F038F9FB
:105058000346FB75FB7D002B2DD144F60803C2F2F5
:1050680000031A7A44F60803C2F2000383F84820C2
:1050780044F60803C2F2000393F84830002B13D01B
:1050880040F61A23C2F200031B78002B0CD140F61D
:105098001A23C2F200034FF001021A703B69D3F8D9
:1050A80080301B6C9847DDE044F2D873C2F20003ED
:1050B8004FF003021A70FB7D032B40F0CE8044F2C0
:1050C800D873C2F200034FF003025A7044F2D87347
:1050D800C2F200034FF009021A70BEE03B695B7927
:1050E800786839684FF00002FFF724F80346FB752B
:1050F800FB7D002B40F0B38044F60803C2F20003A6
:105108004FF0000283F8482044F2D873C2F200033B
:105118005A7844F2D873C2F200031A709FE0786894
:1051280000F09AFA0346FB73FB7B002B11D144F283
:10513800D873C2F200034FF004021A7040F6192324
:10514800C2F200034FF000021A704FF00003FB7523
:1051580088E0FB7B184600F0DBF883E0786800F015
:1051680039FB0346FB73FB7B002B11D144F2D87348
:10517800C2F200034FF005021A7040F61923C2F27A
:1051880000034FF000021A704FF00003FB7569E04E
:10519800FB7B184600F0BCF864E0786800F008FC77
:1051A8000346FB73FB7B002B11D144F2D873C2F288
:1051B80000034FF008021A7040F61923C2F20003E8
:1051C8004FF000021A704FF00003FB754AE0FB7BBA
:1051D800184600F09DF845E0786800F0C5FC0346E5
:1051E800FB73FB7B002B0DD144F2D873C2F2000392
:1051F8005A7844F2D873C2F200031A704FF00003D1
:10520800FB752FE0FB7B184600F082F82AE07868EF
:105218003968FFF7E7F925E03B69D3F88030DB6BA5
:1052280098470346BB73BB7B002B07D144F2D87366
:10523800C2F200034FF008021A7012E0BB7B012B88
:105248000FD14FF00603FB750BE04FF00403FB751D
:1052580008E000BF06E000BF04E000BF02E000BFB6
:1052680000E000BFFB7D184607F11807BD4680BD6A
:1052780080B582B000AF786039603B684FF021029A
:105288001A753B684FF0FF025A753B684FF00002F1
:10529800DA823B684FF000021A833B684FF0000245
:1052A8005A83786839684FF000024FF00003FEF720
:1052B80065FB0346184607F10807BD4680BD00BFD9
:1052C80080B582B000AF786039603B684FF0A102CA
:1052D8001A753B684FF0FE025A753B684FF00002A2
:1052E800DA823B684FF000021A833B684FF00102F4
:1052F8005A8378683968054A4FF00103FEF73EFB88
:105308000346184607F10807BD4680BD104800202F
:1053180080B483B000AF0346FB71FB79012B2AD11F
:1053280040F61923C2F200031B7803F10103DAB235
:1053380040F61923C2F200031A7040F61923C2F28C
:1053480000031B78092B0ED844F2D873C2F200036D
:105358004FF006021A7044F2D873C2F200034FF0FD
:105368000102DA7011E044F2D873C2F200034FF080
:105378000A021A7009E0FB79022B06D144F2D873AD
:10538800C2F200034FF00A021A7007F10C07BD467B
:1053980080BC704780B582B000AF0346FB7140F611
:1053A800C430C2F20000FCF723F90346002B0DD0ED
:1053B80040F6E803C2F200031B78DBB223F00103D6
:1053C800DAB240F6E803C2F200031A7040F6E803C6
:1053D800C2F200031B78DBB2184607F10807BD4686
:1053E80080BD00BF80B483B000AF0346FB71FB797A
:1053F800002B02D04FF0010305E040F6E803C2F2AB
:1054080000031B78DBB2184607F10C07BD4680BCC9
:10541800704700BF80B586B000AFB9607A600246B9
:10542800FA73BB734FF00003FB75FB7B002B02D1B3
:10543800BB7B002B02D14FF0040344E040F6E803A5
:10544800C2F200031B78DBB203F00103DBB2002BCE
:1054580002D04FF0030336E040F6C430C2F2000039
:10546800FCF7C6F80346002B25D0BB7B4FEA432345
:1054780040F6C430C2F20000B9687A6800F048FD0E
:105488000346FB7540F6C430C2F2000041F27401D5
:10549800C2F20001FFF7A6F840F6C430C2F20000DD
:1054A800FCF7A6F80346002B02D14FF001030AE0EF
:1054B800FB7D032BD9D0FB7D002B02D14FF00003DD
:1054C80001E04FF00103184607F11807BD4680BDFB
:1054D80080B586B000AFB9607A600246FA73BB73D4
:1054E8004FF00003FB75FB7B002B02D1BB7B002B2D
:1054F80002D14FF0040351E040F6E803C2F2000382
:105508001B78DBB203F00103DBB2002B02D04FF0B3
:10551800030343E040F6E803C2F200031B78DBB262
:1055280003F00403002B02D04FF0020336E040F6EC
:10553800C430C2F20000FCF75BF80346002B25D00C
:10554800BB7B4FEA432340F6C430C2F20000B9687F
:105558007A6800F0FBFB0346FB7540F6C430C2F2E4
:10556800000041F27401C2F20001FFF73BF840F677
:10557800C430C2F20000FCF73BF80346002B02D10E
:105588004FF001030AE0FB7D032BD9D0FB7D002BF4
:1055980002D14FF0000301E04FF00103184607F174
:1055A8001807BD4680BD00BF80B485B000AF0B466C
:1055B8003A600246FA71BB714FF00003FB73FB7946
:1055C800002B02D04FF004033FE04FF00103FB73C0
:1055D80040F6E803C2F200031B78DBB203F00103D4
:1055E800DBB2002B02D04FF003032EE0BB79032B74
:1055F80026D801A252F823F01156000819560008BF
:105608002F5600083F5600084FF00003FB731BE0BD
:1056180044F65C23C2F200031A683B681A604FF034
:105628000003FB7310E03B684FF400721A804FF0E0
:105638000003FB7308E03B684FF400721A6003E054
:105648004FF00403FB7300BFFB7B184607F11407F8
:10565800BD4680BC704700BF80B584B000AF78609D
:105668004FF00303BB737868FBF7C2FF0346002BB8
:1056780000F0A98044F2D873C2F20003DB78012B52
:1056880002D0022B67D09CE044F2E873C2F2000318
:105698004FF000029A6044F2E873C2F200034FF040
:1056A80000021A7344F2E873C2F200034FF00602D4
:1056B8009A7344F2D873C2F2000344F2C872C2F279
:1056C80000029A6044F2D873C2F200034FF03F021E
:1056D8009A8144F2D873C2F200034FF003029A7021
:1056E8004FF01003FB730CE0FA7B44F2E873C2F24C
:1056F80000039B184FF00002DA73FB7B03F1FF33C2
:10570800FB73FB7B002BEFD144F2E873C2F200037A
:105718004FF00002DA7344F2D873C2F200034FF07C
:1057280001021A7144F2D873C2F200034FF0070263
:105738001A7044F2D873C2F200034FF00302DA730E
:1057480044F2D873C2F200034FF00202DA704FF04D
:105758000303BB7337E044F2D873C2F20003DB7B68
:10576800002B0AD144F2D873C2F200034FF00102B1
:10577800DA704FF00003BB7324E044F2D873C2F22E
:105788000003DB7B012B0AD144F2D873C2F2000379
:105798004FF00102DA704FF00103BB7312E044F2DC
:1057A800D873C2F20003DB7B022B0BD144F2D8730F
:1057B800C2F200034FF00102DA704FF00203BB732C
:1057C80000E000E000BFBB7B184607F11007BD46AC
:1057D80080BD00BF80B584B000AF78604FF0030390
:1057E800BB737868FBF704FF0346002B00F0CF80FB
:1057F80044F2D873C2F20003DB78012B02D0022BEB
:1058080060D0C2E044F2E873C2F200034FF008022D
:105818009A6044F2E873C2F200034FF080021A73F0
:1058280044F2E873C2F200034FF00A029A7344F29A
:10583800D873C2F2000344F65C02C2F200029A6016
:1058480044F2D873C2F200034FF004029A704FF08A
:105858001003FB730CE0FA7B44F2E873C2F2000316
:105868009B184FF00002DA73FB7B03F1FF33FB73E5
:10587800FB7B002BEFD144F2E873C2F200034FF038
:105888002502DA7344F2D873C2F200034FF0010222
:105898001A7144F2D873C2F200034FF007021A706B
:1058A80044F2D873C2F200034FF00302DA7344F2F1
:1058B800D873C2F200034FF00202DA704FF003030C
:1058C800BB7364E044F2D873C2F20003DB7B002BA5
:1058D80037D1324A44F65C03C2F200031B781370D6
:1058E8002F4A44F65C03C2F200035B7813702D4A1A
:1058F80044F65C03C2F200039B78137044F65C2301
:10590800C2F2000344F65C02C2F20002D2781A70B6
:10591800254A44F65C03C2F200039B791370234ABC
:1059280044F65C03C2F20003DB79137044F2D873C7
:10593800C2F200034FF00102DA704FF00003BB73AC
:1059480024E044F2D873C2F20003DB7B012B0AD1B6
:1059580044F2D873C2F200034FF00102DA704FF03C
:105968000103BB7312E044F2D873C2F20003DB7B7D
:10597800022B0BD144F2D873C2F200034FF001029C
:10598800DA704FF00203BB7300E000E000BFBB7B9E
:10599800184607F11007BD4680BD00BF5F4A0020CA
:1059A8005E4A00205D4A0020654A0020644A0020C3
:1059B80080B584B000AF78604FF00303BB7378689C
:1059C800FBF716FE0346002B00F0C88044F2D8739C
:1059D800C2F20003DB78012B02D0022B6ED0BBE0B1
:1059E80044F2E873C2F200034FF03F029A6044F2B7
:1059F800E873C2F200034FF080021A7344F2E873AE
:105A0800C2F200034FF00A029A7344F2D873C2F24A
:105A1800000344F65C02C2F200029A6044F2D873B2
:105A2800C2F200034FF005029A704FF01003FB73A7
:105A38000CE0FA7B44F2E873C2F200039B184FF0C3
:105A48000002DA73FB7B03F1FF33FB73FB7B002B54
:105A5800EFD144F2E873C2F200034FF01A02DA738E
:105A680044F2E873C2F200034FF03F025A7444F262
:105A7800E873C2F200034FF03F02DA7444F2D873BD
:105A8800C2F200034FF001021A7144F2D873C2F255
:105A980000034FF007021A7044F2D873C2F20003F1
:105AA8004FF00302DA7344F2D873C2F200034FF0E6
:105AB8000202DA704FF00303BB734FE044F2D8736D
:105AC800C2F20003DB7B002B22D144F65C03C2F256
