:020000040800F2
:08000000350000083D53000823
:0400080011000008DB
:1000100010B5054C237833B9044B13B10448AFF342
:1000200000800123237010BD100900200000000093
:10003000DC64010808B5064B1BB106480649AFF35E
:1000400000800648036813B1054B03B1984708BD0B
:1000500000000000DC6401081409002010090020E1
:100060000000000000000000000000000000000090
:1000700080B483B000AF78604FF46D43CEF20003DC
:100080007A6842F0BE6242F42022DA6007F10C077F
:10009000BD4680BC704700BF80B485B000AF7860BB
:1000A0004FF00003FB734FF00003BB734FF00F03DF
:1000B0007B737B68DB78002B45D04FF46D43CEF229
:1000C0000003DB686FEA030303F4E0634FEA1323E2
:1000D000FB73FB7BC3F10403BB737A7BFB7B42FAAC
:1000E00003F37B737B685B781A46BB7B02FA03F3EE
:1000F000FB737B689A787B7B1340DAB2FB7B1343FC
:10010000FB73FB7B4FEA0313FB734FF46143CEF2A7
:1001100000037A6812789B18FA7B83F800234FF467
:100120006143CEF200037A6812784FEA5212D2B2DB
:100130007968097801F01F014FF0010000FA01F120
:1001400043F8221014E04FF46143CEF200037A68C2
:1001500012784FEA5212D2B27968097801F01F0181
:100160004FF0010000FA01F102F1200243F82210E1
:1001700007F11407BD4680BC704700BF80B483B050
:1001800000AF786039604FF46D43CEF200033A68F7
:1001900022F0604222F07F0279680A439A6007F1F8
:1001A0000C07BD4680BC704780B483B000AF0246E8
:1001B0000B46FA71BB71BB79002B0DD04FF46D4328
:1001C000CEF200034FF46D42CEF2000212691146E6
:1001D000FA790A431A610EE04FF46D43CEF2000340
:1001E0004FF46D42CEF2000212691146FA796FEABD
:1001F00002020A401A6107F10C07BD4680BC704735
:1002000080B483B000AF78607B68042B0CD14EF2D1
:100210001003CEF200034EF21002CEF2000212687A
:1002200042F004021A600BE04EF21003CEF200031B
:100230004EF21002CEF20002126822F004021A609E
:1002400007F10C07BD4680BC704700BF00000000EE
:1002500080B400AF4FF47053C4F201034FF00002BA
:100260001A604FF47053C4F201034FF000025A6059
:100270004FF47053C4F201034FF000029A604FF440
:100280007053C4F201034FF00002DA604FF4705370
:10029000C4F201034FF6FF72C0F27F025A61BD46FD
:1002A00080BC704780B485B000AF78604FF0000329
:1002B000FB604FF47053C4F20103FB607B689B79D1
:1002C000002B7ED04FF47053C4F201034FF47052F0
:1002D000C4F20102126811467A6812686FEA0202DB
:1002E0000A401A604FF47053C4F201034FF4705285
:1002F000C4F20102526811467A6812686FEA02027B
:100300000A405A607B681B79FA68D318FB60FB6867
:10031000FA6811687A6812680A431A604FF47053D9
:10032000C4F201034FF47052C4F201029268114604
:100330007A6812686FEA02020A409A604FF47053BA
:10034000C4F201034FF47052C4F20102D2681146A4
:100350007A6812686FEA02020A40DA607B685B79A9
:10036000102B1CD14FF47053C4F201034FF47052A0
:10037000C4F20102926811467A6812680A439A60D0
:100380004FF47053C4F201034FF47052C4F20102EF
:10039000D26811467A6812680A43DA601FE04FF4A7
:1003A0007053C4F20103FB607B685B79FA68D31871
:1003B000FB60FB68FA6811687A6812680A431A6081
:1003C0000DE07B681B79FA68D318FB60FB68FA685C
:1003D00011687A6812686FEA02020A401A6007F12F
:1003E0001407BD4680BC704780B483B000AF78600E
:1003F0007B684FF000021A607B684FF000021A71B0
:100400007B684FF00C025A717B684FF000029A71C2
:1004100007F10C07BD4680BC704700BF80B483B0B5
:1004200000AF78604FF47053C4F201034FF4705280
:10043000C4F20102126911467A680A431A6107F18F
:100440000C07BD4680BC704780B485B000AF7860B3
:100450004FF00003FB734FF47053C4F201035B6968
:100460001A467B681340002B03D04FF00103FB7347
:1004700002E04FF00003FB73FB7B184607F1140703
:10048000BD4680BC704700BF80B483B000AF7860C9
:100490004FF47053C4F201037A685A6107F10C07F4
:1004A000BD4680BC704700BF80B485B000AF7860A7
:1004B0004FF00003FB734FF00003BB604FF4705329
:1004C000C4F201031B681A467B681340BB604FF4FB
:1004D0007053C4F201035B691A467B681340002B1A
:1004E00006D0BB68002B03D04FF00103FB7302E082
:1004F0004FF00003FB73FB7B184607F11407BD4662
:1005000080BC704780B483B000AF78604FF4705304
:10051000C4F201037A685A6107F10C07BD4680BC3A
:10052000704700BF00000000000000000000000055
:1005300080B582B000AF78607A684FF00003C4F2F3
:1005400002039A420CD14FF001004FF0010100F07C
:100550000DFF4FF001004FF0000100F007FF9EE09B
:100560007A684FF48063C4F202039A420CD14FF0D0
:1005700002004FF0010100F0F9FE4FF002004FF0D1
:10058000000100F0F3FE8AE07A684FF40063C4F2E1
:1005900002039A420CD14FF004004FF0010100F029
:1005A000E5FE4FF004004FF0000100F0DFFE76E0C2
:1005B0007A684FF44063C4F202039A420CD14FF0C0
:1005C00008004FF0010100F0D1FE4FF008004FF09D
:1005D000000100F0CBFE62E07A684FF48053C4F271
:1005E00002039A420CD14FF010004FF0010100F0CD
:1005F000BDFE4FF010004FF0000100F0B7FE4EE0DE
:100600007A684FF4A053C4F202039A420CD14FF01F
:1006100020004FF0010100F0A9FE4FF020004FF044
:10062000000100F0A3FE3AE07A684FF4C053C4F230
:1006300002039A420CD14FF040004FF0010100F04C
:1006400095FE4FF040004FF0000100F08FFE26E0D5
:100650007A684FF4E053C4F202039A420CD14FF08F
:1006600080004FF0010100F081FE4FF080004FF05C
:10067000000100F07BFE12E07A684FF40053C4F2F0
:1006800002039A420BD14FF480704FF0010100F049
:100690006DFE4FF480704FF0000100F067FE07F12F
:1006A0000807BD4680BD00BF80B487B000AF78604A
:1006B00039604FF000037B614FF000033B614FF066
:1006C0000003FB604FF000037B618EE07B694FF01D
:1006D000010202FA03F33B613B681A683B6913406D
:1006E000FB60FA683B699A427BD17B681B681A46BB
:1006F0007B694FEA43034FF0030101FA03F36FEA0A
:1007000003031A407B681A607B681B681A463B68C3
:100710001B7919467B694FEA430301FA03F31A4335
:100720007B681A603B681B79012B03D03B681B79FF
:10073000022B38D17B689B681A467B694FEA4303DA
:100740004FF0030101FA03F36FEA03031A407B68D9
:100750009A607B689B681A463B685B7919467B699F
:100760004FEA430301FA03F31A437B689A607B68FC
:100770005B681A467B699BB24FF0010101FA03F3F3
:100780006FEA03031A407B685A607B685B681A460D
:100790003B689B7919467B699BB201FA03F39BB2D4
:1007A0001A437B685A607B68DB681A467B699BB298
:1007B0004FEA43034FF0030101FA03F36FEA030327
:1007C0001A407B68DA607B68DB681A463B68DB7935
:1007D00019467B694FEA430301FA03F31A437B6826
:1007E000DA607B6903F101037B617B690F2B7FF684
:1007F0006DAF07F11C07BD4680BC704780B483B065
:1008000000AF78607B684FF6FF721A607B684FF02C
:1008100000021A717B684FF000025A717B684FF03A
:1008200000029A717B684FF00002DA7107F10C0741
:10083000BD4680BC704700BF80B485B000AF786013
:100840000B467B804FF48033FB607A88FB68134350
:10085000FB60FA687B68DA617A887B68DA61FA683B
:100860007B68DA617B68DB69FB607B68DB69FB6066
:1008700007F11407BD4680BC704700BF80B485B047
:1008800000AF78600B467B804FF00003FB737B6802
:100890001B691A467B881340002B03D04FF00103DD
:1008A000FB7302E04FF00003FB73FB7B184607F17C
:1008B0001407BD4680BC704780B483B000AF786039
:1008C0007B681B699BB2184607F10C07BD4680BCCC
:1008D000704700BF80B485B000AF78600B467B8066
:1008E0004FF00003FB737B685B691A467B881340FB
:1008F000002B03D04FF00103FB7302E04FF0000325
:10090000FB73FB7B184607F11407BD4680BC70479C
:1009100080B483B000AF78607B685B699BB2184697
:1009200007F10C07BD4680BC704700BF80B483B0A0
:1009300000AF78600B467B807B687A881A8307F16A
:100940000C07BD4680BC704780B483B000AF7860B0
:100950000B467B807B687A885A8307F10C07BD467B
:1009600080BC704780B483B000AF786013460A46FD
:100970007A807B707B78002B03D07B687A881A831F
:1009800002E07B687A885A8307F10C07BD4680BC79
:10099000704700BF80B483B000AF78600B467B80A7
:1009A0007A887B685A6107F10C07BD4680BC7047A6
:1009B00080B483B000AF78600B467B807B685B6956
:1009C0001A467B885A407B685A6107F10C07BD467E
:1009D00080BC704780B485B000AF786013460A468B
:1009E0007A807B704FF00003FB604FF00003BB6028
:1009F0007A787B8803F007034FEA830302FA03F354
:100A0000FB607B884FEAD3039BB21A467B884FEA90
:100A1000D3039BB219467B6801F1080153F82130DA
:100A200019467B8803F007034FEA83034FF00F005A
:100A300000FA03F36FEA030319407B6802F108022E
:100A400043F822107B884FEAD3039BB21A467B6897
:100A500002F1080253F822301A46FB681343BB60C8
:100A60007B884FEAD3039BB21A467B6802F10802E7
:100A7000B96843F8221007F11407BD4680BC7047DF
:100A800080B400AF4FF46053C4F202034FF46052DD
:100A9000C4F20202126842F001021A604FF460537D
:100AA000C4F202034FF000029A604FF46053C4F2A4
:100AB00002034FF46052C4F20202126822F0847200
:100AC00022F480321A604FF46053C4F2020343F2FE
:100AD0001002C2F200425A604FF46053C4F20203A3
:100AE0004FF46052C4F20202126822F480221A60AB
:100AF0004FF46053C4F202034FF00002DA60BD46C7
:100B000080BC704780B483B000AF0346FB7143F6EE
:100B10000203C4F202034FF000021A7043F602030C
:100B2000C4F20203FA791A7007F10C07BD4680BCC3
:100B3000704700BF80B582B000AF4FF000033B604C
:100B40004FF00003FB714FF00003BB714FF0310019
:100B500000F0F4FD0346BB713B6803F101033B6009
:100B60003B68B3F5A06F02D0BB79002BEED04FF0FD
:100B7000310000F0E3FD0346002B03D04FF00103EA
:100B8000FB7102E04FF00003FB71FB79184607F19F
:100B90000807BD4680BD00BF80B485B000AF0346E6
:100BA000FB714FF00003FB604FF46053C4F202038B
:100BB0001B68FB60FB6823F0F803FB60FB794FEADE
:100BC000C303FA681343FB604FF46053C4F202039B
:100BD000FA681A6007F11407BD4680BC704700BF71
:100BE00080B483B000AF0346FB714FF00003C4F242
:100BF0004723FA791A6007F10C07BD4680BC70479D
:100C000080B483B000AF0346FB7143F67003C4F2B7
:100C100002034FF000021A7043F67003C4F202039D
:100C20004FF000021A70FB79012B02D0042B08D080
:100C30000FE043F67003C4F202034FF001021A7092
:100C400008E043F67003C4F202034FF005021A7085
:100C500000E000BF07F10C07BD4680BC704700BF35
:100C600080B483B000AF0346FB714FF46863C4F2F5
:100C70004723FA791A6007F10C07BD4680BC70471C
:100C800080B485B000AFF860B9607A603B604FF423
:100C90006053C4F202037A684FEA8211BA681143C2
:100CA0003A684FEA520202F1FF324FEA0242114320
:100CB000FA681143BA694FEA02620A435A6007F1BF
:100CC0001407BD4680BC704780B483B000AF0346B4
:100CD000FB714FF06003C4F24723FA791A6007F101
:100CE0000C07BD4680BC704780B483B000AF78600D
:100CF00039604FF46053C4F202037A684FEA8211FC
:100D00003A684FEA02720A43C3F8842007F10C07DD
:100D1000BD4680BC704700BF80B483B000AF0346BF
:100D2000FB714FF06803C4F24723FA791A6007F1A8
:100D30000C07BD4680BC704780B483B000AF03464B
:100D4000FB714FF04C03C4F24723FA791A6007F1A4
:100D50000C07BD4680BC704780B485B000AF78609A
:100D600039604FF00003FB604FF46053C4F202039C
:100D70009B68FB60FB6823F0EC63FB607A683B6870
:100D80001343FA681343FB604FF46053C4F2020349
:100D9000FA689A6007F11407BD4680BC704700BF2F
:100DA00080B485B000AF786039604FF00003FB601D
:100DB0004FF46053C4F202039B68FB60FB6823F0AE
:100DC0007843FB607A683B681343FA681343FB601F
:100DD0004FF46053C4F20203FA689A6007F11407F3
:100DE000BD4680BC704700BF80B485B000AF78605E
:100DF0004FF00003FB604FF46053C4F202039B68A2
:100E0000FB60FB6823F00303FB60FA687B68134315
:100E1000FB604FF46053C4F20203FA689A6007F172
:100E20001407BD4680BC704780B400AF4FF46053D8
:100E3000C4F202039B68DBB203F00C03DBB218467A
:100E4000BD4680BC704700BF80B485B000AF7860FD
:100E50004FF00003FB604FF46053C4F202039B6841
:100E6000FB60FB6823F0F003FB60FA687B681343C8
:100E7000FB604FF46053C4F20203FA689A6007F112
:100E80001407BD4680BC704780B485B000AF786061
:100E90004FF00003FB604FF46053C4F202039B6801
:100EA000FB60FB6823F4E053FB60FA687B68134344
:100EB000FB604FF46053C4F20203FA689A6007F1D2
:100EC0001407BD4680BC704780B485B000AF786021
:100ED0004FF00003FB604FF46053C4F202039B68C1
:100EE000FB60FB6823F46043FB607B684FEAC3034D
:100EF000FA681343FB604FF46053C4F20203FA68CC
:100F00009A6007F11407BD4680BC704780B489B071
:100F100000AF78604FF00003BB614FF000037B61CE
:100F20004FF00003FB614FF002033B614FF0000301
:100F3000FB604FF00203BB604FF46053C4F2020346
:100F40009B6803F00C03BB61BB69042B0AD0082B20
:100F50000FD0002B62D17A684FF41053C0F2F40323
:100F6000136062E07A684FF49053C0F27A03136022
:100F70005BE04FF46053C4F202035B6803F4800348
:100F80004FEA9353FB604FF46053C4F202035B6873
:100F900003F03F03BB60FB68002B15D04FF4905368
:100FA000C0F27A03BA68B3FBF2F24FF46053C4F2B2
:100FB00002035B68194647F6C0730B404FEA931370
:100FC00003FB02F3FB6114E04FF41053C0F2F4038F
:100FD000BA68B3FBF2F24FF46053C4F202035B68E9
:100FE000194647F6C0730B404FEA931303FB02F315
:100FF000FB614FF46053C4F202035B6803F44033B7
:101000004FEA134303F101034FEA43033B61FA69DB
:101010003B69B2FBF3F27B681A6006E07A684FF432
:101020001053C0F2F403136000BF4FF46053C4F2D6
:1010300002039B6803F0F003BB61BB694FEA131323
:10104000BB6140F20403C2F20003BA699B181B782B
:10105000DBB27B617B681A687B6922FA03F27B68EA
:101060005A604FF46053C4F202039B6803F4E053E8
:10107000BB61BB694FEA9323BB6140F20403C2F238
:101080000003BA699B181B78DBB27B617B685A68E6
:101090007B6922FA03F27B689A604FF46053C4F2D2
:1010A00002039B6803F46043BB61BB694FEA53339F
:1010B000BB6140F20403C2F20003BA699B181B78BB
:1010C000DBB27B617B685A687B6922FA03F27B683A
:1010D000DA6007F12407BD4680BC704780B485B054
:1010E00000AF78604FF00003FB607B6803F440734F
:1010F000B3F5407F17D14FF46053C4F202039B68ED
:10110000FB60FB6823F4F813FB607B6823F07043FB
:1011100023F44073FA681343FB604FF46053C4F246
:101120000203FA689A604FF46053C4F202034FF46A
:101130006052C4F20202126F11467A684FEA0252FC
:101140004FEA12520A431A6707F11407BD4680BCE2
:10115000704700BF80B483B000AF0346FB7140F618
:101160003C63C4F24723FA791A6007F10C07BD46C5
:1011700080BC704780B483B000AF0346FB714FF46E
:101180006463C4F24723FA791A6007F10C07BD467D
:1011900080BC704780B483B000AF78604FF4AE730A
:1011A000C4F247237A681A6007F10C07BD4680BC79
:1011B000704700BF80B483B000AF78600B46FB700F
:1011C000FB78002B0DD04FF46053C4F202034FF4B0
:1011D0006052C4F20202126B11467A680A431A6323
:1011E0000EE04FF46053C4F202034FF46052C4F2B5
:1011F0000202126B11467A686FEA02020A401A6311
:1012000007F10C07BD4680BC704700BF80B483B0B7
:1012100000AF78600B46FB70FB78002B0DD04FF4CD
:101220006053C4F202034FF46052C4F20202526BE4
:1012300011467A680A435A630EE04FF46053C4F2D1
:1012400002034FF46052C4F20202526B11467A68F4
:101250006FEA02020A405A6307F10C07BD4680BCE0
:10126000704700BF80B483B000AF78600B46FB705E
:10127000FB78002B0DD04FF46053C4F202034FF4FF
:101280006052C4F20202926B11467A680A439A6372
:101290000EE04FF46053C4F202034FF46052C4F204
:1012A0000202926B11467A686FEA02020A409A6360
:1012B00007F10C07BD4680BC704700BF80B483B007
:1012C00000AF78600B46FB70FB78002B0DD04FF41D
:1012D0006053C4F202034FF46052C4F20202126C73
:1012E00011467A680A431A640EE04FF46053C4F260
:1012F00002034FF46052C4F20202126C11467A6883
:101300006FEA02020A401A6407F10C07BD4680BC6E
:10131000704700BF80B483B000AF78600B46FB70AD
:10132000FB78002B0DD04FF46053C4F202034FF44E
:101330006052C4F20202526C11467A680A435A643F
:101340000EE04FF46053C4F202034FF46052C4F253
:101350000202526C11467A686FEA02020A405A642D
:1013600007F10C07BD4680BC704700BF80B483B056
:1013700000AF78600B46FB70FB78002B0DD04FF46C
:101380006053C4F202034FF46052C4F202021269C5
:1013900011467A680A431A610EE04FF46053C4F2B2
:1013A00002034FF46052C4F20202126911467A68D5
:1013B0006FEA02020A401A6107F10C07BD4680BCC1
:1013C000704700BF80B483B000AF78600B46FB70FD
:1013D000FB78002B0DD04FF46053C4F202034FF49E
:1013E0006052C4F20202526911467A680A435A6195
:1013F0000EE04FF46053C4F202034FF46052C4F2A3
:101400000202526911467A686FEA02020A405A6182
:1014100007F10C07BD4680BC704700BF80B483B0A5
:1014200000AF78600B46FB70FB78002B0DD04FF4BB
:101430006053C4F202034FF46052C4F20202926994
:1014400011467A680A439A610EE04FF46053C4F281
:1014500002034FF46052C4F20202926911467A68A4
:101460006FEA02020A409A6107F10C07BD4680BC90
:10147000704700BF80B483B000AF78600B46FB704C
:10148000FB78002B0DD04FF46053C4F202034FF4ED
:101490006052C4F20202126A11467A680A431A6262
:1014A0000EE04FF46053C4F202034FF46052C4F2F2
:1014B0000202126A11467A686FEA02020A401A6250
:1014C00007F10C07BD4680BC704700BF80B483B0F5
:1014D00000AF78600B46FB70FB78002B0DD04FF40B
:1014E0006053C4F202034FF46052C4F20202526A23
:1014F00011467A680A435A620EE04FF46053C4F210
:1015000002034FF46052C4F20202526A11467A6832
:101510006FEA02020A405A6207F10C07BD4680BC1E
:10152000704700BF80B483B000AF78600B46FB709B
:10153000FB78002B0DD04FF46053C4F202034FF43C
:101540006052C4F20202126D11467A680A431A65AB
:101550000EE04FF46053C4F202034FF46052C4F241
:101560000202126D11467A686FEA02020A401A6599
:1015700007F10C07BD4680BC704700BF80B483B044
:1015800000AF78600B46FB70FB78002B0DD04FF45A
:101590006053C4F202034FF46052C4F20202526D6F
:1015A00011467A680A435A650EE04FF46053C4F25C
:1015B00002034FF46052C4F20202526D11467A687F
:1015C0006FEA02020A405A6507F10C07BD4680BC6B
:1015D000704700BF80B483B000AF78600B46FB70EB
:1015E000FB78002B0DD04FF46053C4F202034FF48C
:1015F0006052C4F20202926D11467A680A439A65FB
:101600000EE04FF46053C4F202034FF46052C4F290
:101610000202926D11467A686FEA02020A409A65E8
:1016200007F10C07BD4680BC704700BF80B483B093
:1016300000AF78600B46FB70FB78002B0DD04FF4A9
:101640006053C4F202034FF46052C4F20202126EFD
:1016500011467A680A431A660EE04FF46053C4F2EA
:1016600002034FF46052C4F20202126E11467A680D
:101670006FEA02020A401A6607F10C07BD4680BCF9
:10168000704700BF80B483B000AF78600B46FB703A
:10169000FB78002B0DD04FF46053C4F202034FF4DB
:1016A0006052C4F20202526E11467A680A435A66C8
:1016B0000EE04FF46053C4F202034FF46052C4F2E0
:1016C0000202526E11467A686FEA02020A405A66B6
:1016D00007F10C07BD4680BC704700BF80B483B0E3
:1016E00000AF02460B46FA71BB71BB79002B0ED0DE
:1016F00043F60D03C4F2020343F60D02C4F20202E4
:101700001278D1B2FA790A43D2B21A7010E043F6D5
:101710000D03C4F2020343F60D02C4F20202127872
:10172000D1B2FA796FEA0202D2B20A40D2B21A708A
:1017300007F10C07BD4680BC704700BF80B487B07E
:1017400000AF0346FB714FF00003FB604FF0000356
:101750007B614FF00003FB74FB794FEA5313DBB25C
:10176000FB60FB68012B06D14FF46053C4F2020307
:101770001B687B610FE0FB68022B06D14FF46053BE
:10178000C4F202031B6F7B6105E04FF46053C4F2A7
:1017900002035B6F7B61FB7903F01F03FB60FB6857
:1017A0007A6922FA03F303F00103DBB2002B03D0C2
:1017B0004FF00103FB7402E04FF00003FB74FB7C6D
:1017C000184607F11C07BD4680BC704780B400AFC7
:1017D0004FF46053C4F202034FF46052C4F20202A9
:1017E000526F42F080725A67BD4680BC704700BF9E
:1017F00080B485B000AF0346FB714FF00003FB736C
:101800004FF46053C4F20203DB681A46FB791340BD
:10181000002B03D04FF00103FB7302E04FF00003F5
:10182000FB73FB7B184607F11407BD4680BC70476D
:1018300080B483B000AF0346FB7143F60E03C4F2DD
:101840000203FA791A7007F10C07BD4680BC704795
:1018500080B500AF4FF480404FF00101FFF736FE36
:101860004FF480404FF00001FFF730FE80BD00BF15
:1018700080B483B000AF0346FB714FF46053C4F2F1
:101880000103FA791A6007F10C07BD4680BC704766
:1018900090B484B000AF02460B46FA71BB714FF0B2
:1018A0000003FB60BB7903F003034FEA83034FF0AF
:1018B0000F0202FA03F3FB604FF46053C4F201031A
:1018C000BA794FEA9202D2B210464FF46052C4F293
:1018D0000102B9794FEA9101C9B201F1020152F84E
:1018E00021201146FA686FEA0202114000F102025B
:1018F00043F822104FF46053C4F20103BA794FEA5F
:101900009202D2B210464FF46052C4F20102B97989
:101910004FEA9101C9B201F1020152F821201146AA
:10192000FC79BA7902F003024FEA820204FA02F269
:10193000114300F1020243F8221007F11007BD46DF
:1019400090BC704780B483B000AF78604FF0DC0388
:10195000C4F227237A681A6007F10C07BD4680BCE1
:10196000704700BF80B483B000AF0346FB714FF4F3
:101970008063C4F22723FA791A6007F10C07BD4689
:1019800080BC704780B483B000AF4FF00003FB71A0
:101990004FF46053C4F201031B6A03F48073002BFD
:1019A00003D04FF00103FB7102E04FF00003FB7125
:1019B000FB79184607F10C07BD4680BC704700BF95
:1019C00080B584B000AF0346FB71FA7944F6181372
:1019D000C0F6010353F8223018464FF00101FFF71B
:1019E000E9FBFA7944F61013C0F6010333F812301C
:1019F000BB604FF001033B734FF00003BB734FF02C
:101A00000103FB734FF002037B73FA7940F2140376
:101A1000C2F2000353F8222007F1080310461946CA
:101A2000FEF742FE07F11007BD4680BD80B483B0CB
:101A300000AF0346FB71FA7940F21403C2F20003CF
:101A400053F82220F97944F61013C0F6010333F855
:101A50001130138307F10C07BD4680BC704700BFEF
:101A600080B483B000AF0346FB71FA7940F21403EF
:101A7000C2F2000353F82220F97944F61013C0F69D
:101A8000010333F81130538307F10C07BD4680BCC6
:101A9000704700BF80B483B000AF0346FB71FA7992
:101AA00040F21403C2F2000353F82220F97940F205
:101AB0001403C2F2000353F821305B691946F87928
:101AC00044F61013C0F6010333F810304B40536155
:101AD00007F10C07BD4680BC704700BF80B588B0D9
:101AE00000AF02460B46FA71BB71FA7944F62C132B
:101AF000C0F6010353F8223018464FF00101FFF7FA
:101B000059FB4FF480404FF00101FFF703FC4FF009
:101B100000033B774FF00003FB77FA7944F6281374
:101B2000C0F6010333F81230BB61FA7940F22403A6
:101B3000C2F2000353F8222007F118031046194699
:101B4000FEF7B2FDBB79012B3AD1FA7944F6341392
:101B5000C0F601039A5CF97944F63813C0F6010324
:101B60005B5C10461946FFF793FEFA7944F6301392
:101B7000C0F6010333F812303B614FF000033B75B0
:101B80004FF008037B754FF00103BB7507F110039D
:101B90001846FEF787FBFA7944F63C13C0F60103BA
:101BA0009B5C3B734FF00F037B734FF00F03BB73D2
:101BB0004FF00103FB7307F10C031846FEF76CFAB4
:101BC00007F12007BD4680BD80B582B000AF034657
:101BD000FB71FA7940F22403C2F2000353F8222089
:101BE000F97944F62813C0F6010333F81130104692
:101BF0001946FEF743FE0346184607F10807BD469F
:101C000080BD00BF000000000000000000000000D8
:101C100080B582B000AF786039607B68184601F00B
:101C20001FFA7B68054A1A607B683A68DA607B684D
:101C3000184607F10807BD4680BD00BF48490108A6
:101C400080B582B000AF78607B680A4A1A60786815
:101C500001F022FA4FF0000303F00103DBB2002B86
:101C600002D0786811F074FC7B68184607F1080709
:101C7000BD4680BD4849010880B582B000AF78609C
:101C80007868FFF7DDFF786811F062FC7B68184622
:101C900007F10807BD4680BD80B483B000AF78600F
:101CA0004FF00103184607F10C07BD4680BC704792
:101CB00090B585B002AF78607B68DB681B6803F184
:101CC00020031B687A68D268104698477B68DB68F7
:101CD00018464FF0010100F0BBF87B68DB681B6819
:101CE0001B687A68D268104698477B68DB681B6877
:101CF00003F108031C687B68DB684FF03F02009229
:101D000018464FF000014FF000024FF07703A04754
:101D10007B68DB681B6803F108031C687B68DB6871
:101D20004FF03F02009218464FF079014FF0000249
:101D30004FF07703A0477B68DB681B6803F108035B
:101D40001C687B68DB684FF03F02009218464FF03A
:101D500000014FF041024FF07703A0477B68DB683A
:101D60001B6803F108031C687B68DB684FF03F02C7
:101D7000009218464FF079014FF041024FF077037F
:101D8000A047FEE700000000000000000000000087
:101D900080B483B000AF78607B68064A1A607B68C5
:101DA0004FF000021A717B68184607F10C07BD4618
:101DB00080BC70477849010880B483B000AF786078
:101DC0000B46FB707B68064A1A607B68FA781A71CA
:101DD0007B68184607F10C07BD4680BC704700BF02
:101DE0007849010880B582B000AF78607B68094A05
:101DF0001A604FF0000303F00103DBB2002B02D0A6
:101E0000786811F0A5FB7B68184607F10807BD4606
:101E100080BD00BF7849010880B582B000AF78600E
:101E20007868FFF7DFFF786811F092FB7B6818464F
:101E300007F10807BD4680BD80B483B000AF78606D
:101E40007B681B79184607F10C07BD4680BC7047BC
:101E500080B483B000AF78600B46FB707B68FA7883
:101E60001A7107F10C07BD4680BC704700000000E6
:101E700080B582B000AF78607B681846FFF788FFB6
:101E80007B68044A1A607B68184607F10807BD465C
:101E900080BD00BFB849010880B582B000AF78604E
:101EA0007B680A4A1A607868FFF79CFF4FF00003CE
:101EB00003F00103DBB2002B02D0786811F048FB7D
:101EC0007B68184607F10807BD4680BDB849010880
:101ED00080B582B000AF78607868FFF7DDFF786882
:101EE00011F036FB7B68184607F10807BD4680BD38
:101EF00080B582B000AF78607B681B6803F12C036B
:101F00001B68786898477B681B6803F130031B687F
:101F1000786898477B681B6803F138031B6878680A
:101F20004FF0E00198477B681B6803F138031B689A
:101F300078684FF0010198477B681B6803F1340310
:101F40001B6878684FF0420198477B681B6803F173
:101F500038031B6878684FF01E0198477B681B6840
:101F600003F138031B6878684FF0000198477B68DD
:101F70001B6803F134031B6878684FF043019847EE
:101F80007B681B6803F138031B6878684FF0000119
:101F900098477B681B6803F138031B6878684FF02B
:101FA000000198477B681B6803F134031B6878685D
:101FB0004FF0400198477B681B6803F138031B68AA
:101FC00078684FF01E0198477B681B6803F138035F
:101FD0001B6878684FF0000198477B681B6803F125
:101FE00034031B6878684FF0410198477B681B6891
:101FF00003F138031B6878684FF0020198477B684B
:102000001B6803F138031B6878684FF0000198479C
:102010007B681B6803F134031B6878684FF022016A
:1020200098477B681B6803F134031B6878684FF09E
:10203000810198477B681B6803F134031B6878684B
:102040004FF09C01984707F10807BD4680BD00BFCF
:1020500080B582B000AF786039607B681B6803F19F
:1020600038031B683A68D2B27868114698477B6893
:102070001B6803F138031B683A684FEA1222D2B298
:102080007868114698477B681B6803F134031B6826
:1020900078684FF02401984707F10807BD4680BDD6
:1020A00080B584B000AF786013460A46FA70BB7002
:1020B000F978BA7813464FEA03139B1A4FEA4303A1
:1020C000CB18FB607868F968FFF7C2FF07F11007CB
:1020D000BD4680BD80B584B000AF786013460A4627
:1020E000FA70BB70FB784FEAD303DBB21946BA78BB
:1020F00013464FEA03139B1A4FEA4303CB1803F529
:10210000F073FB607868F968FFF7A2FF07F110072A
:10211000BD4680BD80B584B000AF786078684FF46C
:10212000F071FFF795FF4FF00003FB6008E078685F
:102130004FF0000100F02EF8FB6803F10103FB6093
:10214000FA6840F6FF639A428CBF00230123DBB29A
:10215000002BECD178684FF00001FFF779FF4FF0CA
:102160000003FB6008E078684FF0000100F012F80F
:10217000FB6803F10103FB60FA6840F2DF139A4247
:102180008CBF00230123DBB2002BECD107F1100739
:10219000BD4680BD80B582B000AF78600B46FB7055
:1021A0007B681B6803F138031B68FA78786811466E
:1021B00098477B681B6803F134031B6878684FF00D
:1021C000C001984707F10807BD4680BD80B582B0C1
:1021D00000AF78600B46FB70FB78A3F12003DBB205
:1021E00078681946FFF7D6FF07F10807BD4680BD9E
:1021F00082B080B483B000AF7860396007F110011D
:1022000081E80C0007F10C07BD4680BC02B07047A6
:1022100080B584B000AF786013460A46FA70BB7090
:10222000FA78BB78786811461A46FFF753FF7B6847
:102230001B6803F13C031B68786898470346FB73EF
:102240007B681846FFF7F8FD0346002B11D0FB789A
:102250006FEA030303F007034FF0010202FA03F3EE
:10226000DBB26FEA0303DAB2FB7B1340DBB2FB7332
:102270000DE0FB786FEA030303F007034FF0010260
:1022800002FA03F3DAB2FB7B1343DBB2FB73FB7B93
:1022900078681946FFF77EFF07F11007BD4680BD3D
:1022A00080B58EB000AFF860B9607A603B603A6884
:1022B000BB68D31A7B623A6C7B68D31A3B627A6A3A
:1022C0007B6AD318FB613A6A3B6AD318BB61BB686F
:1022D0007B637B683B634FF00103FB624FF00103BC
:1022E000BB627B6A002B0ADA4FF0FF33FB627B6A2A
:1022F000C3F100037B62FB69C3F10003FB613B6A2E
:10230000002B0ADA4FF0FF33BB623B6AC3F10003D4
:102310003B62BB69C3F10003BB61BB68DAB27B6897
:10232000DBB2F86811461A46FFF772FF7B6A002B92
:1023300002D13B6A002B56D03A6A7B6A9A4229DC6A
:102340004FF000037B61FB6A7A6BD3187B637A6979
:10235000BB69D3187B617A697B6A9A4207DDBB6AE5
:102360003A6BD3183B637A69FB69D31A7B617B6B49
:10237000DAB23B6BDBB2F86811461A46FFF748FF4A
:102380007A6B3B689A420CBF00230123DBB2002B1F
:10239000D9D128E04FF000033B61BB6A3A6BD318F8
:1023A0003B633A69FB69D3183B613A693B6A9A42DD
:1023B00007DDFB6A7A6BD3187B633A69BB69D31A72
:1023C0003B617B6BDAB23B6BDBB2F86811461A46B5
:1023D000FFF71EFF3A6B3B6C9A420CBF00230123B0
:1023E000DBB2002BD9D107F13807BD4680BD00BF55
:1023F000B0B588B002AFF860B9607A603B60FB6846
:102400001B6803F10C031C68BB6803F10402B96884
:102410003B68CB18A3F104034FF0040100914FF087
:1024200001010191F86811467A68A047FB681B68B2
:1024300003F104031C687B68A3F104037968BA6A9A
:102440008A18A2F104020092F868B9681A46BB68BB
:10245000A047FB681B6803F104031C68BA683B686B
:10246000D1187B68A3F10402B8683B68C3187D6883
:10247000B86A2818A0F104000090F868A047FB682B
:102480001B6803F104031C68BB6803F104017A684C
:10249000BB6AD218B8683B68C318A3F104037D680F
:1024A000B86A28180090F868A0474FF001037B61D4
:1024B0006FE0BB68DAB27B69DBB2D318DAB27B6853
:1024C000DBB203F10303DBB2F86811461A46FFF7EB
:1024D0009FFEBB68DAB27B69DBB2D318DAB27B68E5
:1024E000DBB203F10203DBB2F86811461A46FFF7CC
:1024F0008FFEBB68DAB27B69DBB2D318DAB27B68D5
:10250000DBB203F10103DBB2F86811461A46FFF7AC
:102510007FFEBB68DAB23B68DBB2D318DAB27B6904
:10252000DBB2D31ADAB27B68DBB203F10303DBB2AE
:10253000F86811461A46FFF76BFEBB68DAB23B68D3
:10254000DBB2D318DAB27B69DBB2D31ADAB27B68BA
:10255000DBB203F10203DBB2F86811461A46FFF75B
:1025600057FEBB68DAB23B68DBB2D318DAB27B69DC
:10257000DBB2D31ADAB27B68DBB203F10103DBB260
:10258000F86811461A46FFF743FE7B6903F1010321
:102590007B617B69032B8CBF00230123DBB2002B03
:1025A00087D1BB68DBB203F10103DAB27B68D9B231
:1025B000BB6ADBB2CB18DBB2A3F10303DBB2F86872
:1025C00011461A46FFF724FEBB68DBB203F1010394
:1025D000DAB27B68D9B2BB6ADBB2CB18DBB2A3F14B
:1025E0000203DBB2F86811461A46FFF711FEBB681A
:1025F000DBB203F10103DAB27B68D9B2BB6ADBB2AA
:10260000CB18DBB203F1FF33DBB2F86811461A4690
:10261000FFF7FEFDBB68DBB203F10103DAB27B68B2
:10262000D9B2BB6ADBB2CB18DBB203F1FF33DBB24A
:10263000F86811461A46FFF7EBFDBB68DBB203F101
:102640000203DAB27B68D9B2BB6ADBB2CB18DBB269
:1026500003F1FF33DBB2F86811461A46FFF7D8FDE5
:10266000BB68DBB203F10303DAB27B68D9B2BB6AA1
:10267000DBB2CB18DBB203F1FF33DBB2F8681146F3
:102680001A46FFF7C5FDBB68DAB23B68DBB2D31868
:10269000DBB203F1FF33DAB27B68D9B2BB6ADBB2DB
:1026A000CB18DBB2A3F10303DBB2F86811461A467C
:1026B000FFF7AEFDBB68DAB23B68DBB2D318DBB222
:1026C00003F1FF33DAB27B68D9B2BB6ADBB2CB1855
:1026D000DBB2A3F10203DBB2F86811461A46FFF73A
:1026E00097FDBB68DAB23B68DBB2D318DBB203F10B
:1026F000FF33DAB27B68D9B2BB6ADBB2CB18DBB28C
:1027000003F1FF33DBB2F86811461A46FFF780FD8C
:10271000BB68DAB23B68DBB2D318DBB203F1FF333C
:10272000DAB27B68D9B2BB6ADBB2CB18DBB203F199
:10273000FF33DBB2F86811461A46FFF769FDBB6844
:10274000DAB23B68DBB2D318DBB2A3F10203DAB230
:102750007B68D9B2BB6ADBB2CB18DBB203F1FF33C3
:10276000DBB2F86811461A46FFF752FDBB68DAB2D1
:102770003B68DBB2D318DBB2A3F10303DAB27B68A8
:10278000D9B2BB6ADBB2CB18DBB203F1FF33DBB2E9
:10279000F86811461A46FFF73BFD07F11807BD46DA
:1027A000B0BD00BF80B586B000AFF860B9607A6098
:1027B0003B6097F82430002B31D04FF00003FB75BD
:1027C00023E04FF00003BB7512E0BB68DAB2BB7DBB
:1027D000D318DAB27B68D9B2FB7DCB18DBB2F868CC
:1027E00011461A46FFF714FDBB7D03F10103BB75CB
:1027F000BA7D3B689A422CBF00230123DBB2002B39
:10280000E3D1FB7D03F10103FB75FA7D3B6A9A423C
:102810002CBF00230123DBB2002BD2D15FE04FF0AD
:102820000003FB7522E0BB68DAB27B68D9B2FB7D9E
:10283000CB18DBB2F86811461A46FFF7E9FCBB6813
:10284000DAB23B68DBB2D318DBB203F1FF33DAB2A2
:102850007B68D9B2FB7DCB18DBB2F86811461A460B
:10286000FFF7D6FCFB7D03F10103FB75FA7D3B6AA4
:102870009A422CBF00230123DBB2002BD3D14FF0AF
:102880000003FB7522E0BB68DAB2FB7DD318DAB235
:102890007B68DBB2F86811461A46FFF7B9FCBB68E3
:1028A000DAB2FB7DD318DAB27B68D9B23B6ADBB20D
:1028B000CB18DBB203F1FF33DBB2F86811461A46DE
:1028C000FFF7A6FCFB7D03F10103FB75FA7D3B6876
:1028D0009A422CBF00230123DBB2002BD3D107F196
:1028E0001807BD4680BD00BF90B589B002AFF86043
:1028F000B9607A603B60FB681846FFF79DFA0346B3
:10290000FB75FA68FB7D83F00103DBB210461946C4
:10291000FFF79EFAFB681B6803F10C031C68BB6A97
:1029200000934FF001030193F868B9687A683B6837
:10293000A047FA68FB7D10461946FFF789FA07F1B0
:102940001C07BD4690BD00BF80B588B000AF786061
:10295000F970BA707B707B78FB614FF00003BB614C
:102960007A7813464FEAC3739B1A4FEA430303F185
:1029700001037B614FF001033B614FF00003FB60FB
:1029800096E0FB69DAB2FB78D318DAB2BB69D9B248
:10299000BB78CB18DBB2786811461A46FFF738FCD3
:1029A000FB69DBB2FA78D31ADAB2BB69D9B2BB7869
:1029B000CB18DBB2786811461A46FFF729FCFB6991
:1029C000DBB2FA78D31ADAB2BB69DBB2B978CB1AC8
:1029D000DBB2786811461A46FFF71AFCFB69DAB2D7
:1029E000FB78D318DAB2BB69DBB2B978CB1ADBB2A9
:1029F000786811461A46FFF70BFCBB69DAB2FB7820
:102A0000D318DAB2FB69D9B2BB78CB18DBB27868DD
:102A100011461A46FFF7FCFBBB69DBB2FA78D31A02
:102A2000DAB2FB69D9B2BB78CB18DBB27868114651
:102A30001A46FFF7EDFBBB69DBB2FA78D31ADAB2BC
:102A4000FB69DBB2B978CB1ADBB2786811461A465B
:102A5000FFF7DEFBBB69DAB2FB78D318DAB2FB69A9
:102A6000DBB2B978CB1ADBB2786811461A46FFF7A9
:102A7000CFFBBB6903F10103BB61FA683B69D31863
:102A8000FB603B6903F102033B61FB684FEA4302D1
:102A90007B69D318002B0BDDFB6903F1FF33FB616E
:102AA000FA687B69D318FB607B6903F102037B61E1
:102AB000FA69BB699A42B4BF00230123DBB2002B41
:102AC0007FF45FAF07F12007BD4680BD80B586B0BB
:102AD00000AFF860B960FA71BB714FF00003BB75CD
:102AE0004FE0BA79BB7DD318DBB2FA79F8681146AA
:102AF0001A46FFF7EFFA4FF00003FB7530E0FB6872
:102B00001846FFF799F90346002B15D0F97DBA7DD9
:102B100013464FEA03139B1A4FEA4303CB18BA68D4
:102B2000D3181B78002B14BF00230123DBB2F868F5
:102B30001946FFF72FFB0FE0F97DBA7D13464FEAE8
:102B400003139B1A4FEA4303CB18BA68D3181B78B8
:102B5000F8681946FFF71EFBFB7D03F10103FB75C7
:102B600097F820304FEAD303DBB2FA7D9A422CBFAC
:102B700000230123DBB2002BC1D1BB7D03F1010394
:102B8000BB75BA7D97F824309A422CBF00230123ED
:102B9000DBB2002BA5D107F11807BD4680BD00BFF1
:102BA00080B582B000AF78607B681846FFF760F9A7
:102BB0007B68044A1A607B68184607F10807BD461F
:102BC00080BD00BF684A010880B582B000AF786060
:102BD0007B680A4A1A607868FFF75EF94FF00003D5
:102BE00003F00103DBB2002B02D0786810F0B0FCD8
:102BF0007B68184607F10807BD4680BD684A010892
:102C000080B582B000AF78607868FFF7DDFF786844
:102C100010F09EFC7B68184607F10807BD4680BD92
:102C200080B485B000AF78604FF00003FB6004E033
:102C300000BFFB6803F10103FB6040F23403C2F202
:102C400000031A684DF68363C4F21B33A3FB02131F
:102C50004FEA93437A6802FB03F2FB689A4294BFFF
:102C600000230123DBB2002BE2D107F11407BD469C
:102C700080BC704780B582B000AF4FF48053C4F27F
:102C800002034FF48052C4F2020212684FEA024279
:102C90004FEA12421A604FF40060C4F202004FF093
:102CA0002001FDF751FE4FF48060C4F202004FF0A6
:102CB0000201FDF749FE4FF00300FFF7B1FF4FF4AB
:102CC0008050C4F20200FDF7F7FD03464FEA1323DC
:102CD000FB804FF48060C4F202004FF00201FDF768
:102CE00025FE4FF40060C4F202004FF02001FDF712
:102CF0001DFE4FF48053C4F202034FF48052C4F21D
:102D00000202126842F0AA4242F4AA021A604FF08C
:102D10000100FFF785FFFB8803F00303032B14BFBB
:102D200000230123DBB2184607F10807BD4680BD2A
:102D300080B584B000AF78604FF002004FF0010121
:102D4000FEF738FA4FF004004FF00101FEF732FAB7
:102D50004FF010004FF00101FEF72CFA4FF0010385
:102D60003B734FF00003BB734FF00003FB734FF056
:102D700001037B734FF03003BB6007F108034FF48E
:102D80000060C4F202001946FDF78EFC40F6030312
:102D9000BB6007F108034FF48060C4F202001946DB
:102DA000FDF782FC4FF47F43BB6007F108034FF44B
:102DB0008050C4F202001946FDF776FC4FF4006023
:102DC000C4F202004FF03001FDF7B0FD4FF4806017
:102DD000C4F202004FF00301FDF7A8FD07F1100750
:102DE000BD4680BD80B582B000AF78604FF4806092
:102DF000C4F2020040F60201FDF7A6FD4FF01400F8
:102E000000F0CEFE4FF48060C4F2020040F60201F2
:102E1000FDF78CFD07F10807BD4680BD80B582B087
:102E200000AF78600B46FB7000BFFFF723FF03463F
:102E300083F00103DBB2002BF7D14FF48053C4F2CF
:102E400002034FF48052C4F20202526922F47F421C
:102E50005A614FF48053C4F202034FF48052C4F21B
:102E6000020252691146FA784FEA02220A435A6175
:102E70004FF48060C4F202004FF00101FDF764FDE1
:102E80004FF48060C4F202004FF00201FDF75CFDD8
:102E90004FF00300FFF7C4FE4FF48060C4F202005D
:102EA0004FF00201FDF742FD4FF48060C4F20200D2
:102EB0004FF00101FDF73AFD4FF00100FFF7B0FEC2
:102EC00007F10807BD4680BD80B582B000AF7860CD
:102ED0000B46FB7000BFFFF7CDFE034683F00103F6
:102EE000DBB2002BF7D14FF48053C4F202034FF44E
:102EF0008052C4F20202526922F47F425A614FF4B6
:102F00008053C4F202034FF48052C4F202025269A9
:102F10001146FA784FEA02220A435A614FF40060E0
:102F2000C4F202004FF01001FDF70EFD4FF4806077
:102F3000C4F202004FF00101FDF706FD4FF480607E
:102F4000C4F202004FF00201FDF7FEFC4FF0030057
:102F5000FFF766FE4FF48060C4F202004FF00201FA
:102F6000FDF7E4FC4FF40060C4F202004FF01001E2
:102F7000FDF7DCFC4FF48060C4F202004FF0010169
:102F8000FDF7D4FC4FF00100FFF74AFE07F10807F8
:102F9000BD4680BD80B584B000AF786000BFFFF74C
:102FA00069FE034683F00103DBB2002BF7D14FF437
:102FB0008053C4F202034FF48052C4F2020212683A
:102FC0004FEA02424FEA12421A604FF40060C4F224
:102FD00002004FF03001FDF7B7FC4FF48060C4F2FF
:102FE00002004FF00201FDF7AFFC4FF00300FFF7C6
:102FF00017FE4FF48050C4F20200FDF75DFC03465B
:103000004FEA1323FB814FF48060C4F202004FF0BB
:103010000201FDF78BFC4FF40060C4F202004FF098
:103020003001FDF783FC4FF00100FFF7F9FD4FF48D
:103030008053C4F202034FF48052C4F202021268B9
:1030400042F0AA4242F4AA021A60FB89DBB2184697
:1030500007F11007BD4680BD000000000000000021
:1030600080B582B000AF78607B68184600F040F908
:103070007B68084A1A607B684FF000029A607868A3
:10308000796800F07BF87B68184607F10807BD46B1
:1030900080BD00BFD84A010880B582B000AF78601B
:1030A0007B680C4A1A607868796800F08FF8786855
:1030B00000F04EF94FF0000303F00103DBB2002BE8
:1030C00002D0786810F044FA7B68184607F10807C8
:1030D000BD4680BDD84A010880B582B000AF786097
:1030E0007868FFF7D9FF786810F032FA7B681846E5
:1030F00007F10807BD4680BD90B587B002AFF86004
:10310000B9603B601346FB80FB681B6803F11C033E
:103110001C68FB88F868B9681A463B68A0470346F4
:10312000002B13D0FA68FB88F96800913968019187
:10313000104643F25D11C0F60001BA6800F064F970
:103140000346002B02D04FF0010301E04FF00003D3
:10315000184607F11407BD4690BD00BF80B582B088
:1031600000AF78607B681B6803F118031B68786800
:10317000984707F10807BD4680BD00BF80B582B003
:1031800000AF7860396010F093F940F62C13C2F26A
:1031900000031B68002B06D140F62C13C2F200037B
:1031A0007A681A600CE040F62C13C2F200031A6829
:1031B0007B689A6040F62C13C2F200037A681A60AA
:1031C00010F07EF907F10807BD4680BD80B584B0D8
:1031D00000AF7860396010F06BF940F62C13C2F242
:1031E00000031B683A689A4209D13B689A6840F626
:1031F0002C13C2F200031A6010F062F925E010F0FF
:103200005FF910F075F940F62C13C2F200031B6849
:10321000FB6002E0FB689B68FB60FB68002B07D04B
:10322000FB689A683B689A4202D04FF0010301E0C4
:103230004FF00003002BEDD1FB68002B03D03B685F
:103240009A68FB689A6010F05BF907F11007BD46B9
:1032500080BD00BF90B583B000AF4FF00103FB719C
:1032600040F62C13C2F200031B683B6011E0FC79AE
:103270003B681B6803F114031B68386898470346D2
:103280002340002B0CBF00230123FB713B689B688C
:103290003B603B68002B0CBF00230123DBB2002BFB
:1032A000E5D1FB79184607F10C07BD4690BD00BF7C
:1032B00080B483B000AF78607B68184607F10C07D4
:1032C000BD4680BC704700BF80B483B000AF78605B
:1032D0007B68184607F10C07BD4680BC704700BFED
:1032E00080B500AFFFF7B6FF0346184680BD00BFAC
:1032F00080B582B000AF78607B68184610F008F99E
:103300007B68064A1A607B684FF000025A607B684F
:10331000184607F10807BD4680BD00BF384B0108BD
:1033200080B582B000AF786039607B68184610F0D5
:10333000EFF87B68054A1A607868396800F03AF857
:103340007B68184607F10807BD4680BD384B010869
:1033500080B582B000AF78607B680D4A1A607868EB
:1033600010F066F80346002B02D0786800F08AF867
:103370004FF0000303F00103DBB2002B02D07868AA
:1033800010F0E6F87B68184607F10807BD4680BDD7
:10339000384B010880B582B000AF78607868FFF7DD
:1033A000D7FF786810F0D4F87B68184607F1080753
:1033B000BD4680BD80B582B000AF786039603B68A3
:1033C000002B0FD144F60030C0F601004FF01B0176
:1033D00044F64C32C0F6010244F62033C0F6010335
:1033E00008F0C6FD7B681B681B6878689847034631
:1033F000002B02D0786800F045F87B683A685A6084
:1034000007F10807BD4680BD80B58AB004AFF860FB
:10341000B9607A607B807B887A6A009207F110023B
:1034200001924FF0000202924FF000020392B8683E
:1034300079681A463B6A00F023FA03467B617B6990
:10344000012B08D1FB681B6803F104031B683A6970
:10345000F868114698477B69184607F11807BD467A
:1034600080BD00BF80B485B000AF786039604FF098
:103470000003FB60FB68184607F11407BD4680BCDB
:10348000704700BF80B582B000AF78607B685B6832
:10349000002B08D07B685B68184600F0C7FA7B6891
:1034A0004FF000025A6007F10807BD4680BD00BF1B
:1034B00080B485B000AFF860B9607A60FB68A3F1B2
:1034C0000403FB60FB684FF080721A60FB68A3F195
:1034D0000403FB60BA68FB681A60FB68A3F104038D
:1034E000FB60FB684FF000021A60FB68A3F1140355
:1034F000FB607A68FB681A60FB68A3F12403FB6039
:10350000FB686FF002021A60FB68184607F11407A7
:10351000BD4680BC704700BF064B1968086850F86C
:1035200004EBB0E8F00F80F309884FF0000080F35F
:1035300011887047300900206E480068006880F3E9
:10354000088862B600DF00BF80B500AF4EF620539A
:10355000CEF200034EF62052CEF20002126842F480
:103560007F021A604EF62053CEF200034EF6205230
:10357000CEF20002126842F07F421A6000F09AF820
:1035800040F22803C2F200034FF000021A60FFF776
:10359000D3FF4FF00003184680BD00BF80B400AFDA
:1035A000BD4680BC704700BF80B400AF4EF60453E8
:1035B000CEF200034FF080521A60BD4680BC7047C7
:1035C00080B400AF4FF0BF0080F3118840F22803B1
:1035D000C2F200031B6803F1010240F22803C2F2A9
:1035E00000031A60BD4680BC704700BF80B400AFC6
:1035F00040F22803C2F200031B6803F1FF3240F2DD
:103600002803C2F200031A6040F22803C2F200034A
:103610001B68002B03D14FF0000080F31188BD46DA
:1036200080BC7047EFF30980134B1A6820E9F00F54
:103630001EF0100F08BF20ED108A40F804ED106056
:103640002DE908404FF0BF0080F3118801F004F825
:103650004FF0000080F31188BDE808401968086841
:1036600050F804EB1EF0100F08BFB0EC108AB0E861
:10367000F00F80F3098870473009002080B582B0D0
:1036800000AF4EF60453CEF200034FF080521A60A2
:103690004FF000037B604FF0BF0080F3118800F013
:1036A0009FFE4FF0000080F3118807F10807BD4628
:1036B00080BD00BF80B400AF4EF21403CEF2000311
:1036C00040F23402C2F20002116848F21F52C5F201
:1036D000EB12A2FB01024FEA521202F1FF321A6012
:1036E0004EF21003CEF200034FF007021A60BD46FF
:1036F00080BC704708ED00E0000000000000000002
:1037000080B483B000AF78607B6803F108027B6807
:103710005A607B684FF0FF329A607B6803F10802C1
:103720007B68DA607B6803F108027B681A617B685A
:103730004FF000021A6007F10C07BD4680BC7047CD
:1037400080B483B000AF78607B684FF000021A61EC
:1037500007F10C07BD4680BC704700BF80B485B040
:1037600000AF786039607B685B68FB60FB685B6812
:103770001A463B685A607B685A683B689A60FB68E7
:103780005B683A689A60FB683A685A607B683A6896
:103790005A603B687A681A617B681B6803F1010212
:1037A0007B681A6007F11407BD4680BC704700BFF4
:1037B00080B485B000AF786039603B681B68BB603F
:1037C000BB68B3F1FF3F03D17B681B69FB600EE070
:1037D0007B6803F10803FB6002E0FB685B68FB6049
:1037E000FB685B681B681A46BB689A42F5D9FB68A0
:1037F0005B681A463B685A603B685B683A689A6047
:103800003B68FA689A60FB683A685A603B687A6875
:103810001A617B681B6803F101027B681A6007F17B
:103820001407BD4680BC704780B485B000AF786097
:103830007B685B687A6892689A607B689B687A6844
:1038400052685A607B681B69FB60FB685A687B683A
:103850009A4203D17B689A68FB685A607B684FF094
:1038600000021A61FB681B6803F1FF32FB681A60F3
:1038700007F11407BD4680BC704700BF0000000080
:1038800080B58AB002AFF860B9603B601346FB8038
:10389000FB881846396B01F0CDF90346BB61BB6963
:1038A000002B00F0A580BB691A6BFB8803F1FF3386
:1038B0004FEA8303D3187B617B6923F007037B61A5
:1038C000FB880093B869B968BA6A7B6B01F08AF823
:1038D0007869F9683A68FFF7EBFD0246BB691A6040
:1038E000FB6A002B02D0FB6ABA691A60FFF768FE18
:1038F00040F60C23C2F200031B6803F1010240F6FC
:103900000C23C2F200031A6040F63013C2F2000327
:103910001B68002B0FD140F63013C2F20003BA69C6
:103920001A6040F60C23C2F200031B68012B18D169
:1039300001F09CF815E040F61C23C2F200031B685E
:10394000002B0ED140F63013C2F200031B68DA6A76
:10395000BB6A9A4205D840F63013C2F20003BA6936
:103960001A60BB69DA6A40F61423C2F200031B68CE
:103970009A4206D9BB69DA6A40F61423C2F2000300
:103980001A6040F63023C2F200031B6803F1010203
:1039900040F63023C2F200031A60BB69DA6A40F6CF
:1039A0001823C2F200031B689A4206D9BB69DA6A7F
:1039B00040F61823C2F200031A60BB69DA6A1346A4
:1039C0004FEA83039B184FEA83031A4640F63413E9
:1039D000C2F20003D218BB6903F104031046194672
:1039E000FFF7BCFE4FF00103FB61FFF7FFFD02E0B4
:1039F0004FF0FF33FB61FB69012B11D140F61C2313
:103A0000C2F200031B68002B0AD040F63013C2F24A
:103A100000031B68DA6ABB6A9A4201D2FFF7C4FD51
:103A2000FB69184607F12007BD4680BD80B584B00C
:103A300000AF7860FFF7C4FD40F63013C2F2000318
:103A40001B687A689A4202D14FF000037B607B6862
:103A5000002B05D140F63013C2F200031B6800E0D2
:103A60007B68FB60FB6803F104031846FFF7DCFE8C
:103A7000FB689B6A002B05D0FB6803F1180318460E
:103A8000FFF7D2FEFB6803F1040340F6DC10C2F23C
:103A900000001946FFF762FE40F6F013C2F2000381
:103AA0001B6803F1010240F6F013C2F200031A6032
:103AB00040F63023C2F200031B6803F1010240F616
:103AC0003023C2F200031A60FFF790FD40F61C237A
:103AD000C2F200031B68002B04D07B68002B01D1CD
:103AE000FFF762FD07F11007BD4680BD80B586B0C7
:103AF00000AF786039604FF000037B6100F0BCFAE2
:103B00007B681A683B68D3183B617B681A6840F68B
:103B10001023C2F200031B689A4210D97B681A680E
:103B20003B699A421BD940F61023C2F200031B687E
:103B30003A699A4213D94FF001037B610FE07B6829
:103B40001A683B699A4207D840F61023C2F2000374
:103B50001B683A699A4202D94FF001037B617B6886
:103B60003A691A607B69002B0CD040F63013C2F220
:103B700000031B6803F104031846FFF755FE38697C
:103B800001F012F800F08AFA0346FB60FB68002B94
:103B900001D1FFF709FD07F11807BD4680BD00BF41
:103BA00080B584B000AF78604FF00003FB607B68A5
:103BB000002B1AD000F060FA40F61023C2F2000386
:103BC0001A687B68D318BB6040F63013C2F200035A
:103BD0001B6803F104031846FFF726FEB86800F0DF
:103BE000E3FF00F05BFA0346FB60FB68002B01D1AA
:103BF000FFF7DAFC07F11007BD4680BD80B584B041
:103C000000AF7860FFF7DCFC7B68002B05D140F645
:103C10003013C2F200031B6800E07B68FB60FB68A6
:103C2000DB6ABB60FFF7E2FCBB68184607F11007D0
:103C3000BD4680BD80B586B000AF786039604FF07A
:103C400000037B613B68042B02D94FF004033B6007
:103C5000FFF7B6FC40F63013C2F200031B687A6827
:103C60009A4202D14FF000037B607B68002B05D1A4
:103C700040F63013C2F200031B6800E07B683B6132
:103C80003B695B6CFB60FA683B689A4262D03A68B9
:103C9000FB689A4206D97B68002B09D04FF00103DC
:103CA0007B6105E07B68002B02D14FF001037B6153
:103CB0003B695A6C3B69DB6A9A4202D13B693A68BC
:103CC000DA623B693A685A643B68C3F105023B69B2
:103CD0009A613B695969FA6813464FEA83039B1856
:103CE0004FEA83031A4640F63413C2F20003D31896
:103CF00099422AD13B6903F104031846FFF794FD6A
:103D00003B69DA6A40F61823C2F200031B689A4244
:103D100006D93B69DA6A40F61823C2F200031A603A
:103D20003B69DA6A13464FEA83039B184FEA830321
:103D30001A4640F63413C2F20003D2183B6903F16D
:103D4000040310461946FFF709FD7B69012B01D1D9
:103D5000FFF72AFCFFF74AFC07F11807BD4680BDB4
:103D600080B584B000AF7860FFF72AFC40F63013CE
:103D7000C2F200031B687A689A4202D14FF0000336
:103D80007B607B68002B05D140F63013C2F2000344
:103D90001B6800E07B68FB60FB6803F104031846C6
:103DA000FFF742FDFB689B6A002B05D0FB6803F11F
:103DB00018031846FFF738FDFB6803F1040340F6CB
:103DC000F410C2F200001946FFF7C8FCFFF70EFC22
:103DD0007B68002B20D140F61C23C2F200031B6835
:103DE000002B02D0FFF7E0FB16E040F6F413C2F21E
:103DF00000031B681A4640F60C23C2F200031B683E
:103E00009A4207D140F63013C2F200034FF000028D
:103E10001A6001E000F020FC07F11007BD4680BDEC
:103E200080B485B000AF78604FF00003FB607B6822
:103E3000BB60BB685A6940F6F413C2F200039A42B1
:103E40000ED1BB689A6A40F6C813C2F200039A42C8
:103E500006D0BB689B6A002B02D14FF00103FB60C8
:103E6000FB68184607F11407BD4680BC704700BFC9
:103E700080B584B000AF78607B68FB60FB68002B86
:103E800048D040F63013C2F200031B68FA689A4229
:103E900040D0FFF795FBF868FFF7C2FF0346012B00
:103EA00036D1FB6803F104031846FFF7BDFCFB683D
:103EB000DA6A40F61823C2F200031B689A4206D958
:103EC000FB68DA6A40F61823C2F200031A60FB6846
:103ED000DA6A13464FEA83039B184FEA83031A46B4
:103EE00040F63413C2F20003D218FB6803F1040356
:103EF00010461946FFF732FCFB68DA6A40F63013C9
:103F0000C2F200031B68DB6A9A4201D3FFF74CFB45
:103F1000FFF76CFB07F11007BD4680BD80B584B08C
:103F200000AF78604FF00003FB607B68BB60B8684F
:103F3000FFF776FF0346012B49D140F62023C2F25A
:103F400000031B68002B38D1BB68DA6A40F63013D7
:103F5000C2F200031B68DB6A9A4234BF00230123CC
:103F6000FB60BB6803F104031846FFF75DFCBB6808
:103F7000DA6A40F61823C2F200031B689A4206D997
:103F8000BB68DA6A40F61823C2F200031A60BB6805
:103F9000DA6A13464FEA83039B184FEA83031A46F3
:103FA00040F63413C2F20003D218BB6803F10403D5
:103FB00010461946FFF7D2FB09E0BB6803F118036E
:103FC00040F6C810C2F200001946FFF7C7FBFB68B5
:103FD000184607F11007BD4680BD00BF80B586B00A
:103FE00004AF4FF00003009340F60823C2F2000331
:103FF00001934FF0000302934FF00003039344F644
:10400000C110C0F6000044F68031C0F601014FF443
:1040100080724FF00003FFF733FC03467B607B6840
:10402000012B15D14FF0BF0080F3118840F61C23FF
:10403000C2F200034FF001021A6040F61023C2F2F0
:1040400000034FF000021A6001F0FEFAFFF77CFA5D
:1040500007F10807BD4680BD80B500AF4FF0BF0037
:1040600080F3118840F61C23C2F200034FF00002D7
:104070001A60FFF793FA80BD80B400AF40F62023AA
:10408000C2F200031B6803F1010240F62023C2F2D2
:1040900000031A60BD4680BC704700BF90B583B076
:1040A00000AF4FF000037B60FFF78AFA40F6202351
:1040B000C2F200031B6803F1FF3240F62023C2F274
:1040C00000031A6040F62023C2F200031B68002B95
:1040D00040F0868040F60C23C2F200031B68002BE0
:1040E0007ED04FF000033B603DE040F6C813C2F2C3
:1040F0000003DB68DB681C4604F118031846FFF771
:1041000093FB04F104031846FFF78EFBE26A40F6C6
:104110001823C2F200031B689A4205D9E26A40F6EE
:104120001823C2F200031A60E26A13464FEA8303BF
:104130009B184FEA83031A4640F63413C2F2000379
:10414000D21804F1040310461946FFF707FBE26A90
:1041500040F63013C2F200031B68DB6A9A4202D3B6
:104160004FF001033B6040F6C813C2F200031B6826
:10417000002BBAD140F62423C2F200031B68002BA7
:1041800018D00DE000F02CF940F62423C2F2000311
:104190001B6803F1FF3240F62423C2F200031A60C9
:1041A00040F62423C2F200031B68002BEAD14FF033
:1041B00001033B603B68012B06D040F62823C2F286
:1041C00000031B68012B0BD14FF001037B6040F60D
:1041D0002823C2F200034FF000021A60FFF7E4F94F
:1041E000FFF704FA7B68184607F10C07BD4690BD3F
:1041F00080B582B000AFFFF7E3F940F61023C2F2BA
:1042000000031B687B60FFF7F1F97B68184607F134
:104210000807BD4680BD00BF80B483B000AF4FF03B
:1042200000037B604FF0BF0080F3118840F610233D
:10423000C2F200031B683B604FF0000080F311885E
:104240003B68184607F10C07BD4680BC704700BFAD
:1042500080B400AF40F60C23C2F200031B6818467E
:10426000BD4680BC704700BF90B585B000AF786098
:10427000FFF702FF01F064F902460B461346BB60EC
:10428000BA6848F21F53C5F2EB13A3FB02134FEABF
:104290005313BB607B684FF000021A707C682046A5
:1042A00009F046FA0346E21844F68833C0F60103E3
:1042B00011461A464FF00303084611461A4608F005
:1042C0003FFC40F61423C2F200031B6803F1010314
:1042D000FB60FB6803F1FF33FB60FA6813464FEAAB
:1042E00083039B184FEA83031A4640F63413C2F245
:1042F0000003D3181B68002B13D0FA6813464FEA4B
:1043000083039B184FEA83031A4640F63413C2F224
:104310000003D31878681946BA684FF0520300F0CA
:10432000C3FCFB68002BD4D140F6C013C2F20003DB
:104330001B681B68002B0BD040F6C013C2F20003B1
:104340001B6878681946BA684FF0420300F0ACFC6D
:1043500040F6C413C2F200031B681B68002B0BD08D
:1043600040F6C413C2F200031B6878681946BA68A5
:104370004FF0420300F098FC40F6DC13C2F2000359
:104380001B68002B09D0786840F6DC11C2F20001EE
:10439000BA684FF0440300F087FC40F6F413C2F211
:1043A00000031B68002B09D0786840F6F411C2F2B4
:1043B0000001BA684FF0530300F076FCFFF76EFE81
:1043C00007F11407BD4690BD80B400AF40F6082346
:1043D000C2F200031B681846BD4680BC704700BF90
:1043E00080B584B000AF40F62023C2F200031B6802
:1043F000002B40F0C08040F61023C2F200031B687F
:1044000003F1010240F61023C2F200031A6040F6E5
:104410001023C2F200031B68002B40D140F6C013EA
:10442000C2F200031B68FB6040F6C413C2F2000333
:104430001A6840F6C013C2F200031A6040F6C413B3
:10444000C2F20003FA681A6040F62C23C2F200039D
:104450001B6803F1010240F62C23C2F200031A602C
:1044600040F6C013C2F200031B681B68002B07D183
:1044700040F22C03C2F200034FF0FF321A600EE04C
:1044800040F6C013C2F200031B68DB68DB68BB6048
:10449000BB685A6840F22C03C2F200031A6040F66F
:1044A0001023C2F200031A6840F22C03C2F2000388
:1044B0001B689A426BD340F6C013C2F200031B681C
:1044C0001B68002B07D140F22C03C2F200034FF00F
:1044D000FF321A605BE040F6C013C2F200031B68B3
:1044E000DB68DB68BB60BB685B687B6040F6102301
:1044F000C2F200031A687B689A4206D240F22C038B
:10450000C2F200037A681A6041E0BB6803F1040359
:104510001846FFF789F9BB689B6A002B05D0BB687A
:1045200003F118031846FFF77FF9BB68DA6A40F613
:104530001823C2F200031B689A4206D9BB68DA6AE4
:1045400040F61823C2F200031A60BB68DA6A134609
:104550004FEA83039B184FEA83031A4640F634134D
:10456000C2F20003D218BB6803F1040310461946D7
:10457000FFF7F4F89FE740F62423C2F200031B681C
:1045800003F1010240F62423C2F200031A6007F18E
:104590001007BD4680BD00BF80B584B000AF786015
:1045A00039607B68002B06D140F63013C2F200035D
:1045B0001B68FB6001E07B68FB60FFF701F8FB68AC
:1045C0003A689A64FFF712F807F11007BD4680BDFC
:1045D00080B584B000AF78607B68002B06D140F6D0
:1045E0003013C2F200031B68FB6001E07B68FB60D4
:1045F000FEF7E6FFFB689B6CBB60FEF7F7FFBB684E
:10460000184607F11007BD4680BD00BF80B584B0D5
:1046100000AF786039607B68002B06D140F630131C
:10462000C2F200031B68FB6001E07B68FB60FB6873
:104630009B6C002B06D0FB689B6C38689847034640
:10464000BB6002E04FF00003BB60BB68184607F197
:104650001007BD4680BD00BF80B582B000AF40F6F8
:104660002023C2F200031B68002B07D040F628234A
:10467000C2F200034FF001021A6089E000F060FF0F
:1046800002460B4613467B6040F63013C2F200032D
:104690001A68D16C40F66823C2F200031B68786880
:1046A000C31ACB18D36440F66823C2F200037A68B9
:1046B0001A6040F63013C2F200031B681A6840F615
:1046C0003013C2F200031B681B6B9A421DD840F6E0
:1046D0003013C2F200031A6840F63013C2F200032E
:1046E0001B6803F134031046194600F0B9FD0CE0D5
:1046F00040F61823C2F200031B6803F1FF3240F6B4
:104700001823C2F200031A6000E000BF40F618232D
:10471000C2F200031A6813464FEA83039B184FEA5C
:1047200083031A4640F63413C2F20003D3181B6801
:10473000002BDDD040F61823C2F200031A6813469E
:104740004FEA83039B184FEA83031A4640F634135B
:10475000C2F20003D3183B603B685B685B681A4693
:104760003B685A603B685A683B6803F108039A4209
:1047700005D13B685B685B681A463B685A603B68DA
:104780005B68DB681A4640F63013C2F200031A6019
:1047900007F10807BD4680BD80B584B000AF7860E2
:1047A000396040F63013C2F200031B6803F11803AE
:1047B00078681946FEF7FCFF40F63013C2F200039A
:1047C0001B6803F104031846FFF72EF83B68B3F1AA
:1047D000FF3F0ED140F63013C2F200031B6803F115
:1047E000040340F6F410C2F200001946FEF7B6FFCB
:1047F0000AE040F61023C2F200031A683B68D3189F
:10480000FB60F86800F0D0F907F11007BD4680BDE5
:1048100080B584B000AF78607B68DB68DB68BB6024
:10482000BB6803F118031846FEF7FEFF40F620238D
:10483000C2F200031B68002B2BD1BB6803F10403F9
:104840001846FEF7F1FFBB68DA6A40F61823C2F299
:1048500000031B689A4206D9BB68DA6A40F618233F
:10486000C2F200031A60BB68DA6A13464FEA830398
:104870009B184FEA83031A4640F63413C2F2000332
:10488000D218BB6803F1040310461946FEF766FF11
:1048900009E0BB6803F1180340F6C810C2F200003B
:1048A0001946FEF75BFFBB68DA6A40F63013C2F2C6
:1048B00000031B68DB6A9A4203D34FF00103FB60DD
:1048C00002E04FF00003FB60FB68184607F1100799
:1048D000BD4680BD80B483B000AF786040F62C2325
:1048E000C2F200031A687B681A6040F61023C2F215
:1048F00000031A687B685A6007F10C07BD4680BC4C
:10490000704700BF80B584B000AF78603960FEF7B3
:1049100057FE3B681B68B3F1FF3F03D14FF0000324
:10492000FB6038E07B681A6840F62C23C2F2000373
:104930001B689A420CD07B685A6840F61023C2F27A
:1049400000031B689A4203D84FF00103FB6022E08A
:1049500040F61023C2F200031A687B685B68D21A23
:104960003B681B689A4213D23B681A687B68596897
:1049700040F61023C2F200031B68CB1AD2183B6822
:104980001A607868FFF7A6FF4FF00003FB6002E0B3
:104990004FF00103FB60FEF729FEFB68184607F1A4
:1049A0001007BD4680BD00BF80B400AF40F628238D
:1049B000C2F200034FF001021A60BD4680BC70478E
:1049C00080B582B000AF786000E000BF00F0A0F8D2
:1049D00040F63413C2F200031B68012BF5D9FEF731
:1049E000E3FDF2E780B584B000AFF860B9607A60AB
:1049F0003B60FB6803F134031846B9684FF01002BE
:104A000008F01EFFFB684FF0000283F843207B682C
:104A1000042B02D94FF004037B60FB687A68DA62EA
:104A2000FB687A685A64FB6803F104031846FEF7D2
:104A300087FEFB6803F118031846FEF781FEFB684A
:104A4000FA681A617B68C3F10502FB689A61FB682A
:104A5000FA685A62FB684FF000029A64FB684FF0F4
:104A60000002DA6407F11007BD4680BD80B582B050
:104A700000AF4FF000037B6013E07A6813464FEA03
:104A800083039B184FEA83031A4640F63413C2F29D
:104A90000003D3181846FEF733FE7B6803F10103C9
:104AA0007B607B68042BE8D940F69810C2F20000C6
:104AB000FEF726FE40F6AC10C2F20000FEF720FE24
:104AC00040F6C810C2F20000FEF71AFE40F6DC10F5
:104AD000C2F20000FEF714FE40F6F410C2F200002D
:104AE000FEF70EFE40F6C013C2F2000340F6981225
:104AF000C2F200021A6040F6C413C2F2000340F68C
:104B0000AC12C2F200021A6007F10807BD4680BD70
:104B100080B582B000AF40F6F013C2F200031B680C
:104B2000002B3CD0FFF7A8FA40F6DC13C2F20003DA
:104B30001B68002B14BF002301237B60FFF7AEFA34
:104B40007B68002B2BD1FEF73BFD40F6DC13C2F255
:104B50000003DB68DB683B603B6803F10403184635
:104B6000FEF762FE40F60C23C2F200031B6803F15D
:104B7000FF3240F60C23C2F200031A6040F6F01335
:104B8000C2F200031B6803F1FF3240F6F013C2F2D9
:104B900000031A60FEF72AFD386800F07DF907F17E
:104BA0000807BD4680BD00BF80B582B000AF786009
:104BB00040F63013C2F200031B687A685A6040F670
:104BC0001023C2F200031B687A689A4210D240F6A2
:104BD000C413C2F200031A6840F63013C2F2000395
:104BE0001B6803F1040310461946FEF7E1FD1DE0C2
:104BF00040F6C013C2F200031A6840F63013C2F246
:104C000000031B6803F1040310461946FEF7D0FDAC
:104C100040F22C03C2F200031B687A689A4205D264
:104C200040F22C03C2F200037A681A6007F1080709
:104C3000BD4680BD80B584B000AF03463960FB80BF
:104C40004FF0500007F03CFC0346FB60FB68002B74
:104C500023D03B68002B07D1FB884FEA830318461B
:104C600007F02EFC034600E03B68FA681363FB681C
:104C70001B6B002B06D1F86807F02AFC4FF00003ED
:104C8000FB600AE0FB681A6BFB884FEA830310465F
:104C90004FF0A5011A4608F003F8FB68184607F123
:104CA0001007BD4680BD00BF2DE9F0418EB004AFB6
:104CB000F860B9607A60FB70BB687B627B6A5B6896
:104CC0005B681A467B6A5A607B6A5A687B6A03F1A2
:104CD00008039A4205D17B6A5B685B681A467B6A67
:104CE0005A607B6A5B68DB683B62BB68FB61FB699F
:104CF0005B685B681A46FB695A60FB695A68FB6926
:104D000003F108039A4205D1FB695B685B681A46A8
:104D1000FB695A60FB695B68DB68BB617B68002BE1
:104D200076D0BB69DB6C002B1CD1BB69DB6A1D46EE
:104D300097F90340BB6903F13406BB691B6B184646
:104D400000F070F803460096019340F63420C2F25A
:104D5000000044F68C31C0F601012A46234608F0D3
:104D600041FB4EE0BB69DB6C1A467B68B2FBF3F398
:104D70007B617B69002B23D0BB69DB6A1D4697F9F9
:104D80000340BB6903F13408BB69DB6C1E46BB6999
:104D90001B6B184600F046F80346CDF800800196DC
:104DA0007A690292039340F63420C2F2000044F67E
:104DB000B431C0F601012A46234608F013FB20E077
:104DC000BB69DB6A1D4697F90340BB6903F13408F0
:104DD000BB69DB6C1E46BB691B6B184600F022F8F2
:104DE0000346CDF800800196029340F63420C2F2CB
:104DF000000044F6D431C0F601012A46234608F0EB
:104E0000F1FAF86840F63421C2F2000108F018FB0C
:104E1000BA693B6A9A427FF468AF07F12807BD463A
:104E2000BDE8F08190B482B000AF78604FF000042C
:104E300006E07B6803F101037B6004F101039CB28F
:104E40007B681B78A52BF4D04FEA94039CB22346D1
:104E5000184607F10807BD4690BC704780B586B07C
:104E600000AF78607B68002B05D140F63013C2F2AA
:104E700000031B6800E07B687B617B691B6B3B6107
:104E80003869FFF7CFFF0346FB60FB68184607F160
:104E90001807BD4680BD00BF80B582B000AF786006
:104EA0007B681B6B184607F013FB786807F010FB54
:104EB00007F10807BD4680BD80B483B000AF40F65F
:104EC0003013C2F200031B687B607B68184607F151
:104ED0000C07BD4680BC704780B584B000AF7860D9
:104EE0007B68FB60FB68DA6A40F63013C2F20003AD
:104EF0001B68DB6A9A4257D240F63013C2F20003B5
:104F00001B68DB6AC3F10502FB689A61FB6859699B
:104F1000FB68DA6A13464FEA83039B184FEA830360
:104F20001A4640F63413C2F20003D318994233D123
:104F3000FB6803F104031846FEF776FC40F63013D5
:104F4000C2F200031B68DA6AFB68DA62FB68DA6A9D
:104F500040F61823C2F200031B689A4206D9FB6888
:104F6000DA6A40F61823C2F200031A60FB68DA6AB4
:104F700013464FEA83039B184FEA83031A4640F611
:104F80003413C2F20003D218FB6803F10403104685
:104F90001946FEF7E3FB07E040F63013C2F20003C8
:104FA0001B68DA6AFB68DA6207F11007BD4680BD4C
:104FB00080B584B000AF78607B68FB607B68002BB5
:104FC0003AD0FB68DA6AFB685B6C9A4234D0FB68C3
:104FD00003F104031846FEF727FCFB685A6CFB68D4
:104FE000DA62FB68DB6AC3F10502FB689A61FB6861
:104FF000DA6A40F61823C2F200031B689A4206D907
:10500000FB68DA6A40F61823C2F200031A60FB68F4
:10501000DA6A13464FEA83039B184FEA83031A4662
:1050200040F63413C2F20003D218FB6803F1040304
:1050300010461946FEF792FB07F11007BD4680BDEA
:1050400080B582B000AF786039607B681846FEF7A3
:1050500007F87B68074A1A607B684FF000021A73F2
:105060007B683A681A617B68184607F10807BD46F5
:1050700080BD00BF084C010880B582B000AF7860E9
:105080007B680A4A1A607868FEF706F84FF000035A
:1050900003F00103DBB2002B02D078680EF058FA5F
:1050A0007B68184607F10807BD4680BD084C01081B
:1050B00080B582B000AF78607868FFF7DDFF786870
:1050C0000EF046FA7B68184607F10807BD4680BD1A
:1050D00080B582B000AF78604FF00100FCF770FC43
:1050E0004FF00000FCF76CFC4FF00200FCF768FC8E
:1050F0004FF00300FCF764FC4FF00103184607F182
:105100000807BD4680BD00BF80B582B000AF7860A3
:105110007B681B7B032B5FD801A252F823F000BFF2
:10512000315100085B51000885510008AF5100085B
:105130004FF00100FCF77AFC4FF00200FCF790FC06
:105140004FF00300FCF78CFC4FF00000FCF788FCEC
:105150007B684FF001021A7343E04FF00100FCF747
:105160007FFC4FF00200FCF761FC4FF00300FCF7FE
:1051700077FC4FF00000FCF773FC7B684FF00202F5
:105180001A732EE04FF00100FCF76AFC4FF00200AA
:10519000FCF766FC4FF00300FCF748FC4FF0000002
:1051A000FCF75EFC7B684FF003021A7319E04FF0C6
:1051B0000100FCF755FC4FF00200FCF751FC4FF0EA
:1051C0000300FCF74DFC4FF00000FCF72FFC7B6860
:1051D0004FF000021A7304E07B684FF000021A736C
:1051E00000BF7B681B691846FEF7DAFC90E700BF3A
:1051F00080B500AF40F66C20C2F2000044F63041AA
:10520000C0F601014FF480724FF00203FDF774FF06
:1052100040F68820C2F2000044F64041C0F6010189
:105220004FF400724FF00103FDF766FFFEF758F8E8
:105230000EF07EF94FF00003184680BD80B400AF39
:10524000BD4680BC704700BF80B400AFBD4680BC87
:10525000704700BF80B400AFBD4680BC704700BF40
:1052600080B483B000AF78603960FEE780B483B06B
:1052700000AF7860396007F10C07BD4680BC70470D
:1052800080B400AF4FF6FF731846BD4680BC704730
:1052900080B582B000AF786039607B68012B49D15E
:1052A0003A684FF6FF739A4244D140F66C20C2F23E
:1052B00000004FF03201FFF7C3FE45F27903C0F65C
:1052C000000340F66C20C2F20000194640F20002D2
:1052D000C2F200020EF034F940F68020C2F2000063
:1052E000FDF75EFC42F6C933C0F6000340F68020AD
:1052F000C2F20000194640F20002C2F200020EF0B3
:105300001FF940F68820C2F2000040F68021C2F268
:105310000001FCF77DFC41F64143C0F6000340F676
:105320008820C2F20000194640F20002C2F20002D8
:105330000EF006F907F10807BD4680BD80B500AF45
:105340004FF001004FF6FF71FFF7A2FF80BD00BFD5
:1053500080B483B000AF7860FEE700BF80B485B052
:1053600000AFF860B9607A603B604FF00003184608
:1053700007F11407BD4680BC704700BF80B485B0FC
:1053800000AFF860B9607A603B604FF000031846E8
:1053900007F11407BD4680BC704700BF80B485B0DC
:1053A00000AFF860B9607A603B60FB684FF058026C
:1053B0001A604FF0FF33184607F11407BD4680BC52
:1053C000704700BF80B483B000AF786039607B68FD
:1053D0004FF058021A604FF0FF33184607F10C07E0
:1053E000BD4680BC704700BF80B485B000AFF86098
:1053F000B9607A60BB68002B09DBBB68022B06DC56
:105400007B684FF400525A604FF0000305E0FB68E0
:105410004FF058021A604FF0FF33184607F1140797
:10542000BD4680BC704700BF80B483B000AF7860D9
:1054300039604FF00103184607F10C07BD4680BCE8
:10544000704700BF90B484B000AF7860396041F21B
:10545000F023C2F200031B68002B08D141F2F023B5
:10546000C2F2000341F2F422C2F200021A6041F2D9
:10547000F023C2F200031A683B68D218EFF30884E5
:105480002346194640F23003C2F200031B68CB1AD0
:105490009A4206D97B684FF00C021A604FF0FF3336
:1054A00012E041F2F023C2F200031B68FB6041F2FC
:1054B000F023C2F200031A683B68D21841F2F023CD
:1054C000C2F200031A60FB68184607F11007BD46D8
:1054D00090BC704780B485B000AFF860B9607A6066
:1054E000FB684FF058021A604FF0FF33184607F17F
:1054F0001407BD4680BC704780B483B000AF7860AD
:105500007B684FF058021A604FF0FF33184607F1DE
:105510000C07BD4680BC704780B582B000AF786094
:10552000FEF74EF807F10807BD4680BD80B582B092
:1055300000AF7860FEF75AF807F10807BD4680BD56
:1055400080B582B000AFFEF73BF84FF4A053C4F231
:1055500000035B6A7B6040F69823C2F200031B885D
:105560001A467B689A4203DD7B6803F580337B60D3
:1055700040F69823C2F200031B887A68D11A0A46C3
:105580004FEAE27340F6A021C2F20001D1E9000126
:10559000801841EB030140F6A023C2F20003C3E9E7
:1055A00000017B689AB240F69823C2F200031A8089
:1055B000FEF71CF840F6A023C2F20003D3E9002353
:1055C0001046194607F10807BD4680BD80B485B076
:1055D00000AF78604FF4A053C4F200035B6AFB8114
:1055E0004FF4A053C4F200035B6ABB60FA89BB6846
:1055F0009A4203DDBB6803F58033BB60FB89BA6860
:10560000D31A1A467B689A4208D8FA89BB68D31A1B
:105610007A68D3187B60BB68FB81E1E700BF07F1C4
:105620001407BD4680BC704780B582B000AF78607B
:105630007B684FF47A7202FB03F31846FFF7C6FF4C
:1056400007F10807BD4680BD80B584B000AF3B467A
:105650001846FBF75BFC4FF46053C4F202034FF4AF
:105660006052C4F20202126C42F020021A644FF43B
:10567000A053C4F20003F9684DF68362C4F21B32F2
:10568000A2FB01024FEA924292B202F1FF3292B2C1
:105690001A854FF4A053C4F200034FF6FF72DA628A
:1056A0004FF4A053C4F200034FF001021A8007F137
:1056B0001007BD4680BD00BF0000000000000000D4
:1056C00080B485B000AFF860B9607A60FB68002BE9
:1056D00005D0BB68002B02D07B68002B02D14FF0B5
:1056E00000030BE0FB684FF000021A70FB68BA6819
:1056F0005A60FB687A689A604FF00103184607F118
:105700001407BD4680BC704780B485B000AFF86018
:10571000B9607A60FB68002B05D0BB68002B02DB08
:105720007B68002B02D14FF000030BE0FB684FF0C9
:105730002D021A70FB68BA685A60FB687A689A6032
:105740004FF00103184607F11407BD4680BC7047AF
:1057500080B485B000AFF8600B467A60FB72FB68DE
:10576000002B08D07B68002B05D0FB7A002B02D0E1
:10577000FB7A032B02D94FF000030BE0FB684FF0DC
:1057800007021A70FB68FA7A1A71FB687A689A60E5
:105790004FF00103184607F11407BD4680BC70475F
:1057A00080B485B000AFF8600B467A60FB72FB688E
:1057B000002B08D07B68002B05D0FB7A002B02D091
:1057C000FB7A032B02D94FF000030BE0FB684FF08C
:1057D00008021A70FB68FA7A1A71FB687A689A6094
:1057E0004FF00103184607F11407BD4680BC70470F
:1057F00080B485B000AF78607B685A697B689B692C
:105800009A4202DB4FF0000313E07B6819697B6862
:105810005B691A4613464FEA43039B184FEA83031A
:10582000CB18FB607B685B6903F101027B685A61FE
:10583000FB68184607F11407BD4680BC704700BFDF
:1058400080B586B000AFF8607A603B600B46FB72B3
:10585000FB7A03F1FF33412B00F29D8001A252F845
:1058600023F000BF6D5900086D5900086D590008FC
:105870006D59000897590008975900089759000872
:10588000975900087F5900087F5900086D59000892
:105890007F5900087F5900087F5900087F59000888
:1058A0007F5900087F5900087F5900087F59000878
:1058B0007F5900087F590008975900089D59000832
:1058C0009D5900089D5900089D5900089D590008E0
:1058D0009D5900086D5900087F5900087F5900083C
:1058E0007F5900087F5900087F5900089759000820
:1058F0007F5900089D5900088B5900086D59000810
:10590000975900086D5900089D5900089D590008D5
:1059100097590008975900087F5900086D590008E9
:105920006D5900086D5900086D5900086D5900083F
:105930006D5900086D5900086D5900087F5900081D
:105940006D59000897590008975900087F590008B9
:105950007F5900087F590008975900089759000897
:10596000975900087F5900086D5900087B68002B83
:1059700002D03B68002B13D14FF0000327E07B6877
:10598000002B0FD14FF0000321E03B68002B0BD11F
:105990004FF000031BE04FF0000318E000BF04E0ED
:1059A00000BF02E000BF00E000BFF868FFF720FF83
:1059B00003467B617B69002B08D07B69FA7A1A70F9
:1059C0007B697A685A607B693A689A607B69184695
:1059D00007F11807BD4680BD80B582B000AF786082
:1059E00039607B68DB681B785F2B06D17B68DB68DE
:1059F00003F101031B785A2B0AD0386807F098FE90
:105A00000346786839681A4600F014F803460BE03C
:105A10007B68DB6803F102027B68DA6078684FF02C
:105A2000000100F04DFA0346184607F10807BD468D
:105A300080BD00BF80B586B000AFF860B9607A6005
:105A4000F868FFF7D5FE03467B617869B9687A6824
:105A5000FFF736FE0346002B02D14FF0000300E0B3
:105A60007B69184607F11807BD4680BD80B584B034
:105A700000AF786039603B68002B02D14FF0000323
:105A80000FE07868FFF7B4FE0346FB60FB68002B6D
:105A900006D0FB684FF023021A70FB683A685A6020
:105AA000FB68184607F11007BD4680BD80B584B07D
:105AB00000AF786039607868FFF79AFE0346FB60B4
:105AC000FB68002B06D0FB684FF02C021A70FB68B5
:105AD0003A685A60FB68184607F11007BD4680BD5A
